:100000000C9407040C944E040C944E040C944E046F
:100010000C944E040C944E040C944E040C944E0418
:100020000C944E040C944E040C94ED2F0C94C1309F
:100030000C949D250C944E040C944E040C944E0488
:100040000C944E040C944E040C944E040C944E04E8
:100050000C9467120C94F4250C944E040C944E04EA
:100060000C944E040C944E040C944E040C944E04C8
:100070000C944E040C944E040C944E040C944E04B8
:100080000C944E040C944E040C944E040C944E04A8
:100090000C944E040C944E040C944E040C944E0498
:1000A0000C944E040C944E040C944E0429001E0033
:1000B0001F0020002100220023002400250026002C
:1000C00027002D002E002A002A002B0014001A0001
:1000D0000800150017001C0018000C001200130087
:1000E0002F00300031000000390004001600070026
:1000F00009000A000B000D000E000F003300340051
:10010000310028000000E10032001D001B00060045
:100110001900050011001000360037003800E50016
:1001200052000151E000E300E20001510000000034
:1001300000002C000151E600E400500051004F0087
:10014000000035003A003B003C003D003E003F000F
:1001500040004100420043004400450001004C00C3
:10016000C35C010052000100010001000100010018
:1001700001000100010001000100005C0000BF5C03
:10018000500051004F00010001000100C55CC75C38
:10019000C95C010001000100010000000100010034
:1001A0000100BD5CBE5CC05C01000100C65CC85CB7
:1001B000CA5C010001000100010001000100010012
:1001C000010000000000000001000100010001002A
:1001D0000100010001000000010001000100010018
:1001E0000100010001000100010001000100010007
:1001F00001000100010001000100010001000100F7
:1002000001000100010001000100010001000100E6
:1002100001000000010001000100010001000100D7
:1002200001000100010001000100010001000100C6
:1002300000000100010001000100010001000100B7
:1002400001000100010001000100010001000100A6
:100250000100010001000100000000000000010099
:100260000100010001000100010001000000010087
:100270000100010001000100010001000100010076
:100280000100010001000100010001000100010066
:100290000100010001000100010001000100010056
:1002A0000100010001000100000001000100010047
:1002B0000100010001000100010001000100010036
:1002C0000100010001000000010001000100010027
:1002D0000100010001000100010001000100010016
:1002E0000100010001000100010001000100000007
:1002F00000000000010001000100010001000100F8
:100300000100000000000000000000002A2B28006F
:1003100000000000000000000000000000000029B4
:10032000000000002C1E3420212224342627252EF4
:10033000362D3738271E1F2021222324252633332C
:10034000362E37381F0405060708090A0B0C0D0E58
:100350000F101112131415161718191A1B1C1D2F24
:100360003130232D350405060708090A0B0C0D0E44
:100370000F101112131415161718191A1B1C1D2F04
:100380003130354C0000000000000000000000008B
:1003900000000000000000007E0F00D4FFFFFFC738
:1003A0000000007832190A00047F3F1F6432146491
:1003B0003214783C1E1E140A052223252628292AD9
:1003C0002C2D2F3032333536383A3B3D3E404243B8
:1003D0004547494A4C4E5051535557595A5C5E60F7
:1003E00062646668696B6D6F71737577797B7D7F09
:1003F00081838587898A8C8E90929496989A9C9E08
:100400009FA1A3A5A7A8AAACAEAFB1B3B4B6B8B923
:10041000BBBCBEBFC1C2C3C5C6C7C9CACBCCCDCE8B
:10042000D0D1D2D2D3D4D5D6D7D7D8D9D9DADADB6E
:10043000DBDBDCDCDCDCDCDDDDDDDDDCDCDCDCDCFA
:10044000DBDBDBDADAD9D9D8D7D7D6D5D4D3D2D239
:10045000D1D0CECDCCCBCAC9C7C6C5C3C2C1BFBE21
:10046000BCBBB9B8B6B4B3B1AFAEACAAA8A7A5A38C
:10047000A19F9E9C9A98969492908E8C8A8987854B
:1004800083817F7D7B79777573716F6D6B6968662A
:100490006462605E5C5A5957555351504E4C4A49FC
:1004A00047454342403E3D3B3A3836353332302FA4
:1004B0002D2C2A292826252322FFAA7F554000001B
:1004C0000000000000000000000101020304050616
:1004D000080A0C0F1114181C2024292E33393F460A
:1004E0004C535B626A7179818A929AA2AAB2B9C1AD
:1004F000C8CFD5DCE1E7EBF0F4F7FAFCFDFEFFFE38
:10050000FDFCFAF7F4F0EBE7E1DCD5CFC8C1B9B2F6
:10051000AAA29A928A8179716A625B534C463F39EA
:10052000332E2924201C1814110F0C0A0806050468
:1005300003020101000000000000000000000001B3
:100540000101010101010101020202020202020293
:100550000203030303030303030404040404040465
:100560000505050505060606060607070707070829
:10057000080808090909090A0A0A0B0B0B0C0C0CDC
:100580000D0D0D0E0E0E0F0F0F1010111111121276
:1005900013131414151516161717181819191A1AF3
:1005A0001B1B1C1D1D1E1E1F202021222223242454
:1005B000252626272829292A2B2C2D2D2E2F303190
:1005C0003232333435363738393A3B3C3D3E3F40A2
:1005D0004142434445464748494A4C4D4E4F50518D
:1005E0005354555658595A5B5D5E5F616264656647
:1005F00068696B6C6D6F7072737577787A7B7D7ECE
:100600008082838587888A8C8E8F91939596989A1D
:100610009C9EA0A2A3A5A7A9ABADAFB1B3B5B7BA35
:10062000BCBEC0C2C4C6C9CBCDCFD1D4D6D8DBDD09
:10063000DFE2E4E7E9EBEEF0F3F5F8FAFDFF04039F
:1006400030000000100350006F006C006100720069
:100650006900730000002603610069003000330068
:100660002000440065007300690067006E002000F0
:10067000530074007500640069006F0000000403FB
:10068000090409025B00030100A0FA09040000014B
:100690000301010009211101000122400007058129
:1006A0000308000A090401000203000000092111E7
:1006B0000100012222000705820320000107050333
:1006C00003200001090402000103000000092111B8
:1006D00001000122BC000705840320000A1201105A
:1006E00001000000081111020001000102030106CF
:1006F00060FF0961A1010962150026FF00952075C0
:100700000881020963150026FF00952075089102F3
:10071000C005010902A10185020901A1000509190D
:1007200001290515002501950575018102950175C1
:100730000381010501093009311581257F95027575
:1007400008810609381581257F9501750881060500
:100750000C0A38021581257F950175088106C0C0F5
:1007600005010980A101850319012AB70015012699
:10077000B700950175108100C0050C0901A1018524
:100780000419012AA002150126A002950175108105
:1007900000C005010906A1018505050719E029E743
:1007A000150025019508750181020507190029EF3B
:1007B0001500250195F0750181020508190129052B
:1007C000950575019102950175039101C005010917
:1007D00006A101050719E029E7150025019508750F
:1007E0000181029501750881010507190029FF158E
:1007F0000026FF00950675088100050819012905E6
:10080000950575019102950175039101C0001124B0
:100810001FBECFEFDAE0DEBFCDBF04B603FE27C0B8
:100820008091890390918A03A0918B03B0918C03EE
:100830008730904BA740B04BD1F4109289031092AF
:100840008A0310928B0310928C0314BE84B7877FA7
:1008500084BF0FB6F894A89580916000886180935A
:100860006000109260000FBEE0E0F8E3099511E02F
:10087000A0E0B1E0EEEDF8E602C005900D92A63ED4
:10088000B107D9F723E0A6EEB1E001C01D92A93867
:10089000B207E1F70E94A32C0C94D8330C9400000B
:1008A000849A0C943B0881FF03C08C980C94D50566
:1008B0008C9AFCCF81E0089581E008950C945C044B
:1008C00008950C9460041F93CF93DF9300D000D061
:1008D0000F92CDB7DEB749835A836B8330915D02A7
:1008E00089819A8131111DC06623B9F02223A9F0B4
:1008F0000E947622182F682F89819A810E942222D5
:1009000069817A81812F0F900F900F900F900F9037
:10091000DF91CF911F910C94DA150E944E22182F6F
:10092000EFCF0E94762269817A81EDCFFC01262FDC
:10093000408151816281738184810C946304CF93DF
:10094000DF93EC0160E00E949604BE01DF91CF913D
:100950000C946104FF920F931F93CF93DF93E82FC2
:10096000F0E0EC5FFC4FF490C82FC695C695C69595
:10097000D0E0FE01EC56FC4F0491877010E0082E89
:1009800002C0159507950A94E2F701701127CC571C
:10099000DC4FFE01C491D0E002C0D595C7958A9581
:1009A000E2F7C170DD270115110519F081EE0E94F3
:1009B000101A209719F086EE0E94101A8F2D0E94AF
:1009C000FD1ACD2B19F086EE0E94A71A012B41F0DB
:1009D00081EEDF91CF911F910F91FF900C94A71A98
:1009E000DF91CF911F910F91FF900895EF92FF92A9
:1009F0000F931F93CF93DF93EC01162F0AE08881AA
:100A0000882309F454C0813009F04EC089818130B7
:100A100099F47E0122E0E20EF11C8A810E94FD1A07
:100A2000E7012196812F815050F3EFE9FFE03197E4
:100A3000F1F700C00000F7CF823041F47E0182E080
:100A4000E80EF11C8A810E94101AEACF833041F42B
:100A50007E01E2E0EE0EF11C8A810E94A71AE0CF2F
:100A6000843011F02196DDCF2A81229690E080E03B
:100A7000AE014F5F5F4F2053330B2A30310548F0F2
:100A8000019778F2EFE9FFE03197F1F700C000003D
:100A9000F7CF089FB001099F700D1124C901860F7F
:100AA000971F2981EA01E4CF0E94AA04BACFDF91FF
:100AB000CF911F910F91FF90EF90089560E00C94FB
:100AC000F6048F929F92AF92BF92CF92DF92EF92F5
:100AD000FF920F931F936B017C0181E090E0A0E0F7
:100AE000B0E04C015D0104C0880C991CAA1CBB1C21
:100AF0004A95D2F7B501A4014C015D0104C0880CF0
:100B0000991CAA1CBB1C2A95D2F7482959296A2985
:100B10007B2904C0880F991FAA1FBB1F0A95D2F713
:100B20008A019B010C211D212E213F21041715074D
:100B30002607370789F48C299D29AE29BF29BC01D6
:100B4000CD011F910F91FF90EF90DF90CF90BF905C
:100B5000AF909F908F90089580959095A095B095B7
:100B60008C219D21AE21BF21EACF0F93382F262F54
:100B70006091C8027091C9028091CA029091CB0223
:100B8000042F432F0E9461050F910C9460210E9455
:100B90003E260E94C023811102C00E9466240E944A
:100BA000D6120C9450040C943D08089581E00895E9
:100BB0000C94D605CF93C82F0E9453048C2FCF914D
:100BC0000C94D80508950E948C1D0E94E2052FEF19
:100BD00084E39CE0215080409040E1F700C0000099
:100BE0000C9418260F931F93CF93DF93EC0161E0D1
:100BF0000E9496048C01BE010E946F138823B9F1F4
:100C0000BE01C8010E945E04882389F1BE01C801AB
:100C10000E94BF11882359F1BE01C8010E9412171A
:100C2000882329F1BE01C8010E9453178823F9F0D7
:100C3000BE01C8010E9476188823C9F0BE01C80110
:100C40000E945510882399F08A81882339F0011574
:100C50008CE5180751F00E3D1C4579F0CE01DF916F
:100C6000CF911F910F910C945A040E94E30580E0EC
:100C7000DF91CF911F910F9108950E946624F7CFC5
:100C800090E080E008950895FC01EE0FFF1FEC5501
:100C9000FC4F859194910895CF93DF930E94DA15CC
:100CA0000E946107EC01811520E5920708F042C01F
:100CB000811530E4930708F0BDC0883E910528F502
:100CC000803E910508F09DC0883A910588F4853AE8
:100CD000910508F08FC08130910509F492C000970A
:100CE00009F48FC0049708F08CC0D0E0C0E089C040
:100CF0008F3B910508F489C0805C9109C03CD10507
:100D0000A0F30E944406EC017CC08115904250F48F
:100D1000C11581E0D80708F074C0C03FD10528F3A1
:100D2000D0656FC0C11590E3D90708F079C0CE0136
:100D30009F70E7CF811525E5920758F5811534E5B9
:100D4000930708F0A6C0811542E5940750F4C11539
:100D500081E5D80708F471C0DC2FCC27C16FD06AB9
:100D600050C0982F969596959E0123703327C115F4
:100D7000D34508F07FC0C1E0D0E002C0CC0FDD1F3A
:100D80002A95E2F720E2929FC0011124C82BD92BAB
:100D90006FC0C11589E5D807A8F4C11598E5D90732
:100DA00008F07CC0C11526E5D20708F09ECF8C2F35
:100DB0000E94F807C82FD0E0DC2FCC27CC27DF71AA
:100DC000D0621FC0C1153AE5D30708F46CC0CE014C
:100DD00090568115904208F088CF8D2F8F710E9418
:100DE000F80790E0982F882788279F719C012C2B6B
:100DF000E901E6CFC55AD0E0C65ADE4FC881D0E03F
:100E0000D064CE01DF91CF910895C85AD0E0CC0FC5
:100E1000DD1FC45DDE4F0990D881C02DD464F1CFB1
:100E2000CE019927D3FF03C0EC01D86CEACFEC01C7
:100E3000D06CE7CFDF70D06AE4CFCE01E4E09695C6
:100E40008795EA95E1F783702C2F269526952370D8
:100E500090E2299F90011124382B8C2F8370C1E0E0
:100E6000D0E002C0CC0FDD1F8A95E2F7C22BD32B56
:100E7000DC68C7CFC1E0D0E002C0CC0FDD1F2A95EF
:100E8000E2F730E2939FC0011124C82BD92BDA6816
:100E9000B8CFD82FCC27C46FD06AB3CFDC2FCC27E4
:100EA000C06FD06AAECF8C2F8F700E94F80734E0ED
:100EB000D695C7953A95E1F7CF709C2FEC01D06994
:100EC000A0CF82389105B1F1B0F48133910509F4D6
:100ED00075C048F48932910509F469C08A329105D8
:100EE00009F473C008958533910509F459C0893315
:100EF000910501F10895833E9105A9F138F4803EF2
:100F00009105F9F0823E910549F10895863E9105DB
:100F1000A9F1873E9105C9F1843E910519F520910B
:100F20007B0321FF1FC080917A0384FD14C087EEEC
:100F300090E0089520917A032370A1F080EE90E074
:100F4000089520917A0320FD47C030917B0330FF44
:100F500009C024FF44C090E080E004C020917A03DF
:100F600022FDF7CF089520917A0322FD3BC03091F6
:100F70007B0330FDE3CF24FFF5CFEDCF20917A0343
:100F800023FFF0CF24FDE7CFD2CF20917A0323FDBA
:100F90002CC030917B0331FFEECF84EE90E00895BA
:100FA00020917A0325FFDECF89E290E00895209119
:100FB0007A0325FFD7CF85E390E0089520917A0347
:100FC00026FFD0CF8AE290E0089520917A0326FF91
:100FD000C9CF81E390E0089589E390E0089583EE1E
:100FE00090E0089582EE90E0089586EE90E00895F6
:100FF00090917A0392FF06C0282F28712830F9F4C7
:10100000877F846093FF06C0282F28712831F1F470
:10101000877E846120917B0320FF06C0382F3871C2
:101020003830D9F4877F816021FF06C0282F2871CE
:101030002831D1F4877E816194FD877E0895282F21
:1010400024712430F9F68B7F8860DCCF282F24713F
:10105000243101F78B7E8861DDCF382F317131303B
:1010600019F78E7F8860E0CF282F2171213121F779
:101070008E7E8861E1CF089508950C943C08E82F96
:10108000F0E0EE0FFF1FEA5CFC4F80819181089534
:10109000089580EA8A95F1F70895CF93DF93ACE63F
:1010A000B1E041E751E0C1E0D0E08D91E82FE29559
:1010B000EF70F0E061A18F709E0101C0220F8A9550
:1010C000EAF7922F9095962391A382A1822B82A377
:1010D0004A175B0751F7ADE5B1E061E070E08D9133
:1010E000E82FE295EF70F0E041A18F709B0101C005
:1010F000220F8A95EAF7922F9095942391A382A1CB
:10110000822B82A381E0AC36B80749F710922D03F9
:1011100010922C03109237031092360310922F0373
:1011200010922E031092390310923803109231035B
:101130001092300310923B0310923A031092330343
:101140001092320310923D0310923C03109235032B
:101150001092340310923F0310923E0385E00E94E8
:101160003C09DF91CF910C94C7058F929F92AF926B
:10117000BF92CF92DF92EF92FF920F931F93CF9384
:10118000DF938CE6E82E81E0F82E0CE213E0912C40
:10119000AA24A394B12CF70181917F01C82FC29595
:1011A000CF70D0E099A18F70650101C0CC0C8A95F9
:1011B000EAF7892F8C2989A38AA18C2C8094882115
:1011C0008AA30E944908EDE5F1E050E040E030E0FC
:1011D00020E06191A62FA295AF70B0E090968C911F
:1011E00090E06F7002C0959587956A95E2F780FD53
:1011F0003EC0C501042E02C0880F991F0A94E2F771
:10120000282B392B4F5F5F4F4F30510511F789A1C4
:10121000882289A28AA1C82ACAA2F8018081918164
:101220002817390739F13183208381E0982A0E5F2E
:101230001F4FF1E7EF16F1E0FF0609F0ACCF292DC3
:1012400045E066E373E08CE293E00E943D090E9472
:10125000D305892DDF91CF911F910F91FF90EF90D2
:10126000DF90CF90BF90AF909F908F90089590E0C7
:1012700080E0C6CF80E0DACF0895FF920F931F93EE
:10128000CF93DF93F82E092F162FD72FC42F2223A9
:1012900049F081E08093E8010E94CD259093E70119
:1012A0008093E6018091E8018823A1F08091E60116
:1012B0009091E7010E94E525069760F0EF2DF02F51
:1012C000A12FBD2F90E080E0D0E08C179D0744F067
:1012D0001092E801DF91CF911F910F91FF90089537
:1012E000219131912D933D930196EFCFAF92BF9213
:1012F000CF92DF92FF920F931F93CF93DF93362FFE
:10130000472FE82FF0E0E25CFA4F71110DC06491B5
:10131000762F862FDF91CF911F910F91FF90DF9055
:10132000CF90BF90AF900895C72FD0E02491F22EB8
:10133000022F10E056E0659FC0011124EFEFF0E0AE
:10134000BF010E948F32832F90E0880F991F35E5EF
:10135000369FD001379FB00D11248A1B9B0B982F0D
:10136000990F980F6F01CC1ADD0AC09ED001C19E63
:10137000B00DD09EB00D11248B2F949FA00111248D
:10138000452F55276F01C41AD50AC09EA001C19EE2
:10139000500DD09E500D11245F01A91AB108AC9ECA
:1013A0006001AD9ED00CBC9ED00C1124CD2CDD2450
:1013B000EC19FD09E09FE001E19FD00DF09FD00DF9
:1013C0001124ED2F62307105A1F048F4611571050B
:1013D00069F06130710589F0EB2F852F07C064300B
:1013E000710571F088F066307105B1F76E2F722FBC
:1013F00091CFE22F2B2F8D2FF9CFE22F252FF6CF74
:10140000EB2F822F2D2FF2CF2B2F8F2DE52FEECF0D
:101410000895CF93DF93762FE901682F842F0E94E0
:101420007609798368838A83DF91CF910895493C57
:1014300008F048EC0C94090A80914003982F9E7F95
:1014400061F4817082608093400380914303893C02
:1014500018F088EC8093430308958635B0F38170CB
:101460008465F1CF88E090E00C947133CF92DF92E5
:10147000EF92FF926B017C010E941C0AB701A6014A
:1014800088E090E0FF90EF90DF90CF900C948F3346
:101490006091400370914103809142039091430316
:1014A0000C94360AE0E4F3E083E0808311828FEF4E
:1014B000828388EC8383148260817181828193812D
:1014C0000C94360A8091400380FF02C086950895EF
:1014D00080E0089580914403833018F48F5F8093F7
:1014E00044036091400370914103809142039091C5
:1014F00043030C94360A80914403882319F08150E9
:1015000080934403609140037091410380914203B2
:10151000909143030C94360A80914403089580937C
:101520004403662351F06091400370914103809120
:101530004203909143030C94360A089560E00C94A2
:101540008F0A80914103089580914203089580910C
:101550004303089570E00C94EC12609107018091B0
:10156000400380FF0AC08091060123E0829FC001F2
:1015700011248B5B9C4F0C94AA0A809108019091D6
:10158000090123E0829FF0011124EB5BFC4F8917D6
:1015900050F71182108212828F5F3396F8CF9091AC
:1015A000400390FF14C0909108012091090133E09D
:1015B000939FF0011124EB5BFC4F921710F00C94F9
:1015C000AD0A8183608342839F5F3396F6CF08958F
:1015D000CF93DF9300D00F92CDB7DEB79091400349
:1015E00090FF0AC09E012F5F3F4F0E94170A4B8158
:1015F00069818A810E94CF0A0F900F900F90DF912E
:10160000CF910895CF93DF93EC01EC81F0E0E754A4
:10161000FC4F4491E0E4F3E0628181810E94E80A9A
:101620008C818F5F8C83DF91CF910895CF93DF936F
:10163000EC01E0E4F3E0438162818C810E94E80ADE
:101640008C818F5F8C83DF91CF9108950F931F93CF
:10165000CF93DF9300D00F92CDB7DEB78C0180918E
:10166000E90181110AC09E012F5F3F4F48EC6FEFE7
:101670000E94170A8A818093E901F8016481613030
:1016800069F08091E90140E0662361F040E062305A
:1016900011F44091E90180E060E004C06091E9014B
:1016A00040E080E00E94CF0AF801848190E001963A
:1016B00063E070E00E94A33284830F900F900F903C
:1016C000DF91CF911F910F910895AF92BF92CF926A
:1016D000DF92EF92FF920F931F93CF93DF9300D08F
:1016E0000F92CDB7DEB7182FF62E042FE22E909171
:1016F000400390FF29C0E92FE695AE2FB0E0AF5828
:10170000BE4F8C91809343029E7F923059F59E018B
:101710002F5F3F4F812F0E94170A4B8169818A8179
:101720000E94CF0A10934103F092420300934303B7
:10173000EE2051F06091400370914103809142038B
:10174000909143030E94360A0F900F900F90DF9103
:10175000CF911F910F91FF90EF90DF90CF90BF90AE
:10176000AF900895823019F400914303DBCF8630A7
:1017700019F410914103D6CF8930D9F3893191F60C
:10178000E9518E2F8170D82EE695F0E0E754FB4F9B
:10179000A590B490C12CBB2460910A01C61618F024
:1017A0000E94AD0ABFCF2C2D30E0A29EC001A39EA7
:1017B000900DB29E900D112470E00E948F32812F07
:1017C000D11013C0860F40910801420F532F511DB5
:1017D0009A01220F331F240F351F2B5B3C4F402FE4
:1017E0006F2D0E94170AC394D7CF861BECCFE0E47D
:1017F000F3E09181282F4381628188E0890F0C9466
:10180000650B81E00C94F70BE0E4F3E09181282F65
:101810004381628188EF890F0C94650B81E00C9401
:10182000040CE0E4F3E0628128E0620F08F46FEF5B
:10183000282F438181810C94650B81E00C94110C5D
:10184000E0E4F3E0628128E0621B08F460E0282F06
:10185000438181810C94650B81E00C94200CE0E4C1
:10186000F3E0438128E0420F08F44FEF282F628114
:1018700081810C94650B81E00C942F0CE0E4F3E083
:10188000438128E0421B08F440E0282F62818181D7
:101890000C94650B81E00C943E0C20E00C94650BDD
:1018A000EF92FF921F93CF93DF93EC0110E0EE24B1
:1018B000EA94F12C60910A01161770F00E94AD0AAB
:1018C0009A818C8190FF27C08F5F8C83DF91CF91AD
:1018D0001F91FF90EF90089520910801422F410F32
:1018E0005527551FCA019A01220F331F280F391F90
:1018F0002B5B3C4F70E0C7010E94A332962F8C8176
:101900004091430360914203199F800D11240E946E
:10191000170A1F5FCFCF8150D8CFBF92CF92DF92EF
:10192000EF92FF920F931F93CF93DF93FC0182817D
:101930000FEF80FF01E010E080910A011817C0F05E
:101940000E94AD0A8091EB01013009F051C0811174
:1019500002C080910A0181508093EB01DF91CF9109
:101960001F910F91FF90EF90DF90CF90BF9008955F
:10197000C0910801C12ED12CCC0DDD2DD11DCE0181
:10198000880F991FC80FD91FCB5BDC4F19821882B3
:101990001A8234E0E32EF12CB12C8091EB018B0DF7
:1019A000813104F18F70082E000C990BC816D906EE
:1019B00091F4809143038E9DA0018F9D500D1124C1
:1019C00055954795559547959E01609142038091A5
:1019D00041030E94170AB00EF1E0EF1AF108E9F690
:1019E0001F5FAACF87FFDFCF90910A01890FDBCF5E
:1019F00090E0019660910A0170E00E94A332ACCFA2
:101A00000F931F93CF93DF93809108019091090169
:101A100023E0829FF0011124EB5BFC4F891740F11A
:101A2000C0E0D3E060910A01C61740F10E94AD0A00
:101A3000209104018091EA01820F8093EA01909144
:101A40000501920F90930501191654F4082E000C0D
:101A5000990B40910A014150550B841795071CF0D2
:101A6000219520930401DF91CF911F910F9108954B
:101A70001182108212828F5F3396D0CF0C2F10E02C
:101A800070E0C8010E94A33220910801820F482F04
:101A900050E02091EA01022E000C330B02171307CD
:101AA000BCF020910501022E000C330B20173107EA
:101AB0007CF08D9F900111242B5B3C4F40914303A0
:101AC00060914203809141030E94170ACF5FAACF21
:101AD000FA01EE0FFF1FE40FF51FEB5BFC4F1182C5
:101AE00010821282F3CF0F931F93CF93DF938C0159
:101AF000FC01848195810196817099279583848367
:101B0000C0E0D5E580910A01C81730F0DF91CF9190
:101B10001F910F910C94AD0A20910801422F4C0F98
:101B20005527551FCA019A01220F331F280F391F4D
:101B30002B5B3C4F8C2F8695F80144815581840F97
:101B4000952F911D817040914303609142038D9FB9
:101B5000802D11240E94170ACF5FD4CF0F931F93BB
:101B6000CF93DF93EC0110E000E090910A01901711
:101B7000110609F06CF40E94AD0A8C8190E0019688
:101B8000817099278C83DF91CF911F910F910895D8
:101B900020910801A801420F511D9A01220F331F05
:101BA000240F351F2B5B3C4F4C8160914203809189
:101BB000410396959017110651F04CF0442349F0DB
:101BC000409143030E94170A0F5F1F4FCECF44235B
:101BD000B9F340E0F7CF8F929F92AF92BF92CF922E
:101BE000DF92EF92FF920F931F93CF93DF93FC014D
:101BF000B280948081E0848300E015E05BE4A52E50
:101C000088248394EE24EA94F12C7BE4C72ED12C13
:101C100080910A01081770F0DF91CF911F910F9109
:101C2000FF90EF90DF90CF90BF90AF909F908F90FC
:101C30000C94AD0AC02FD0E01C9FF0011D9FF00D49
:101C40001124E451FE4F91101CC013821282209186
:101C50000801CE01820F911D9C01220F331F280F16
:101C6000391F2B5B3C4F1C9FF0011D9FF00D112471
:101C7000E451FE4F4281618180810E94170A0F5F0B
:101C8000C7CF2381222379F12150238334818A2DE8
:101C9000821B311101C0822F1C9FF0011D9FF00D8E
:101CA0001124E451FE4F90914303899FC0011124F8
:101CB000B6010E948F326283211104C0332311F0D8
:101CC0001482A38222E02B1510F21C9FF0011D9FAD
:101CD000F00D1124E451FE4F8091410380838091E7
:101CE00042038183B4CF0E944C33823091400CF088
:101CF000AECF82E08B1530F50E944C33B7010E94C5
:101D0000A3321C9FF0011D9FF00D1124E451FE4FE2
:101D1000808322E02B15C8F40E944C3320914203AB
:101D20002695622F70E00E94A332280F1C9FF001BD
:101D30001D9FF00D1124E451FE4F21831282A382D6
:101D4000848285CF80914103DCCF20914203EECF86
:101D5000E0E4F3E080818E7F808360817181828105
:101D600093810E94360A109244022FEF80E792E09E
:101D7000215080409040E1F700C000000C94AD0A73
:101D8000E0E4F3E080818E7F8083109244022FEFA5
:101D900080E792E0215080409040E1F700C00000D1
:101DA0000C94AD0A60914003669570E04BE050E002
:101DB0008BE091E00E945C33892B19F481E08093E1
:101DC00044020E94CD2590933D0280933C020895E9
:101DD0009091400390FF35C09170811128C09260AE
:101DE00090934003662351F060914003709141034A
:101DF00080914203909143030E94360A6091400310
:101E0000669570E04BE050E08BE091E00E945C331F
:101E1000892BA1F01092440281E080933F0240910F
:101E2000430360914203809141030C944D0C8B322B
:101E300010F09465D5CF880F982BD2CF0E94D20E88
:101E4000EBCF0895682F90914003969581E0890F1C
:101E50008B3208F081E00C94E80E81E00C94220FA4
:101E6000682F9091400396958FEF890F09F48AE2CD
:101E70000C94E80E81E00C94300F61E00C94E80EB5
:101E8000E0E4F3E080818160808386950C943D0FCF
:101E90008091400380FD0C94A80E0C94400F60E0EC
:101EA0000C94E80E8091420281112EC00E94C02342
:101EB000811104C00E9466240E94520A0E94320AC4
:101EC00060934003709341038093420390934303D4
:101ED0006E7F61F40E94520A0E94320A60934003AE
:101EE0007093410380934203909343030E941C0A22
:101EF000109244028091400380FF03C086950E94A7
:101F00004F0F81E0809342020895E0E4F3E0808186
:101F10008160808386950C944F0F1092440208953F
:101F20000F931F93CF93DF9380914402882309F48A
:101F30009DC080914302E0914003E695E81BE09349
:101F40003E028230C9F5F0E0EB54FC4FE491CE2F15
:101F5000D0E002E01BE080913F02882389F01092DC
:101F60003F020E94CD259E0120953095820F931F40
:101F700090933D0280933C021092410210924002E5
:101F800080913C0290913D020E94E5258C179D07AF
:101F900008F46CC0E0913C02F0913D02CE0FDF1FCF
:101FA000D0933D02C0933C028CE392E0F801DF91B4
:101FB000CF911F910F910994863049F4F0E0EE54CF
:101FC000FC4FE491CE2FD0E006E11BE0C4CF893076
:101FD00051F4E695F0E0E155FC4FE491CE2FD0E0CE
:101FE00000E51CE0B8CF8F3051F4E695F0E0E45501
:101FF000FC4FE491CE2FD0E00DE81CE0ACCF853152
:1020000049F4F0E0E755FC4FE491CE2FD0E000E03A
:102010001DE0A1CFC8EED3E003E71DE0883109F44D
:102020009ACF833239F4E7EAF3E0C591D49106E21E
:102030001BE091CFC4EFD1E00EEA1DE0843209F439
:102040008ACFC0EDD7E008E01AE0853209F083CFEF
:102050008E2F63E00E948332E92FF0E0EC55FC4FB5
:10206000E491CE2FD0E00BEE1DE075CFDF91CF9144
:102070001F910F910895FA01811101C0FB0109948C
:10208000CF93DF93C82FD62F0E94620A8C1740F09F
:102090000E94620A8D1720F4DF91CF910C942D0FCE
:1020A0008C2FDF91CF910C943D0F0F931F93CF9303
:1020B0008C01FB01C281CC2309F465C00E940B2373
:1020C0008272F801E25CFC45E431F10538F4E65235
:1020D000FC4C0C94D9320E94480FC0E08C2FCF9159
:1020E0001F910F9108954AE35FE06DE27FE00E9447
:1020F0003B10F3CF4DE25FE06AE37FE0F8CF4EE0C4
:102100005CE061E07CE0F3CF41E05CE06EE07CE02D
:10211000EECF4CE25CE06DE17CE0E9CF4DE15CE0CC
:102120006CE27CE0E4CF4AE45CE06BE37CE0DFCF90
:102130004BE35CE06AE47CE0DACF4BE75AE06AE626
:102140007AE0D5CF4AE65AE06BE77AE0D0CF81E07B
:102150000E943D0FC2CF65E082E00E944010BDCFDB
:1021600068E086E0FACF6EE089E0F7CF64E18FE0C7
:10217000F4CF67E185E1F1CF88E1EACF62E289E15E
:10218000ECCF83E2E5CFC1E0A9CF809175030C9439
:10219000F2238091750386958695869508958091A2
:1021A000750381FD07C08260809375030E94F2234E
:1021B0000C94521208958091750381FF07C08D7FA2
:1021C000809375030E94F2230C945E12089580910F
:1021D000750381FD0C94DB100C94CF108091750376
:1021E0008695817008958091160108950E94C023FC
:1021F000811102C00E9466240E94EE238093750321
:10220000803320F087708862809375039091750306
:10221000892F817090FF04C0892F869586958695B9
:102220000C94281280917503982F96959695969503
:10223000953040F49F5F990F990F990F8770892B04
:1022400080937503809175038160809375030E946C
:10225000F223809175038695869586950C942812B5
:1022600080917503982F987F79F08850809375033B
:10227000887F91E009F490E08091750390FB80F9EC
:10228000809375030E94F22380917503869586954D
:1022900086950C9428128091750380FD13C081608F
:1022A00080937503813019F489E0809375038091E0
:1022B00075030E94F2238091750386958695869515
:1022C0000C94281208958091750380FF08C08E7FBA
:1022D000809375030E94F22380E00C9428120895E5
:1022E0008091750380FD0C9463110C944B119091B7
:1022F0007503892F8695869586958F5F8F71977068
:102300008630D8F4880F880F880F892B8093750347
:1023100080917503887F91E009F490E080917503C6
:1023200090FB80F9809375030E94F22380917503DE
:102330008695869586950C94281290937503E8CF20
:10234000863008F085E0909175039770282F220F52
:10235000220F220F922B90937503987F21E009F4AE
:1023600020E09091750320FB90F9909375030C94F5
:1023700028120E94A011809175030C94F223FC0195
:10238000DB0112968C918823F9F0EB5BFC45E7307A
:10239000F105D8F4E251FC4C0C94D93285E00E944E
:1023A000B91180E0089580E0FACF0E943011F9CF92
:1023B0000E941211F6CF0E947011F3CF0E94771184
:1023C000F0CF0E94E710EDCF81E00895279A2F9873
:1023D00008952F980895CF92DF92EF92FF928C3755
:1023E00024E1920750F469E070E00E948F32CB0143
:1023F000FF90EF90DF90CF900895B0E0A0E0BC0197
:10240000CD016A50774D8F4F9F4F982F872F762F92
:10241000662725EF38E241E050E00E94B7326901BB
:102420007A01CA01B9010E9473329B01AC01C70154
:10243000B6010E947332672F782F892F9927611573
:10244000710521E08207910591F66FEF7FEFCFCF05
:10245000CF93C82F8630F0F481111DC08091800089
:10246000877F809380000E94E9112C2F30E0AFEF2E
:10247000BFEF0E94E63225E030E040E050E00E94ED
:10248000B732C9010E94EB1190938D0080938C00AC
:10249000CF910895C5E0809180008860809380008E
:1024A000E4CF08951092460210924502109247021E
:1024B000EFE6F0E08081816080830895EFE6F0E050
:1024C00080818E7F80830E94C9100C9428121F92F5
:1024D0000F920FB60F9211242F933F934F935F9358
:1024E0006F937F938F939F93AF93BF93CF93EF930C
:1024F000FF930E94F31040914502509146024F5FB6
:102500005F4F94EF899F90011124CA01B9010E9485
:102510008F329093460280934502B901660F672F70
:10252000661F770B71950E948F326F7780914702FB
:10253000823041F4603451F480916F008E7F80933B
:102540006F0004C0813011F46F37B1F3E62FF0E073
:10255000E254FB4FC4910E94C910282F41E051E082
:10256000C49FC001C59F900D112465E070E00E94DA
:102570008F32269FC001279F900D11240E94EB11DE
:1025800090938D0080938C00FF91EF91CF91BF913C
:10259000AF919F918F917F916F915F914F913F91FB
:1025A0002F910F900FBE0F901F9018950E94E6116B
:1025B0008AE08093800089E1809381008FEF9FEF14
:1025C00090938700809386000E94F6100E94EE1080
:1025D00081110C94521208956A9A4EB14B7F5EB1EC
:1025E0005460EFB7F8949B01220F331F260F371F5B
:1025F000280F391F2817390741F4EFBF8FE594E002
:102600000197F1F700C000000895DC016D91CD0144
:1026100078E05EB9000000C067FF4EB9660F0000A9
:1026200000C000C000C04EB900C07A9591F7E2CF5B
:1026300082E290E00E946933803289F483E290E084
:102640000E946933883059F484E290E00E94693333
:1026500091E0843009F090E0892F8170089580E046
:10266000FCCFCF93C82F6FEF811160E282E290E040
:102670000E947D336FEFC11168E083E290E00E9419
:102680007D336FEFC11164E084E290E0CF910C9450
:102690007D3380E00E9431130C94BA23089585E2C3
:1026A00090E00E946933682F70E090E080E0089528
:1026B00085E290E00C947D330E944E130E94181323
:1026C00081110CC060E070E0CB010E9458130E94A1
:1026D00052150E943E1681E00C9431130895CF9359
:1026E000FB01C281CC2309F19C0122513F452031DD
:1026F000310520F582510E944E16C0E08C2FCF91FB
:10270000089581E00E94862143E062E081E00E941A
:10271000B505F3CF81E00E94A72143E062E081E0AC
:102720000E94B505EBCF82E0F6CF8031FFE59F0731
:1027300089F381319F45B9F3C1E0E0CF8031EFE506
:102740009E07F9F281319F45C9F682E0DBCF2FEF7A
:10275000FC0120830895CF93DF93EC0188818930B9
:1027600029F08A3079F0DF91CF9108950E94C91045
:102770002FEF829FC001112465E070E00E948F322C
:102780006983F1CF0E94EE108983EDCFFC01808137
:10279000893019F08A3069F00895818125E0829F9F
:1027A000C00111246FEF70E00E948F32862F0C94CD
:1027B000A0118181811102C00C94DB100C94CF1008
:1027C000CF93DF93EC0188818138A9F028F4803819
:1027D00071F0DF91CF910895823881F08338C9F785
:1027E0000E94A10A89830E94A40A8A83F2CF0E94D0
:1027F000A70A8983EECF0E94620AFBCF0E948C0A4F
:10280000F8CFCF93DF93EC0188818138E1F028F491
:10281000803869F0DF91CF910895823811F18338C3
:10282000C9F70E94A70A482F6A81898108C0D98107
:102830000E94A40AC82F0E94A10A4D2F6C2FDF917D
:10284000CF910C944D0C89810E944F0F8981811189
:1028500004C0DF91CF910C94C00EDF91CF910C9406
:10286000850F8981DF91CF910C949E0ADF92EF92C0
:10287000FF920F931F93CF93DF93EC01D62EDC01D1
:10288000ED918D01E150E33108F0C9C0F0E0EB506B
:10289000FC4C0C94D932198289E08A836D2DCE01CB
:1028A000DF91CF911F910F91FF90EF90DF900C94EB
:1028B000972B8981823069F0833071F08130D9F4AF
:1028C0000E94D9250E94DF326A837B838C839D839B
:1028D000E5CF0E944F13F6CF7E0110E0812F0E94BA
:1028E0003F08F701928383831F5FF2E0EF0EF11C34
:1028F0001530A1F7D3CF6D2DCE010E94A713CECFF7
:1029000089818230C1F76A817B818C819D810E949F
:10291000DF320E945813C2CF4B816A8189810E94A5
:1029200024159827892798279D838C83B7CF2C81DE
:102930003D813227232732274B816A8189810E947A
:102940003D15ACCF0E945215A9CFCD010E94C613F0
:10295000C8010E940114A2CFCD010E94AB13C8018F
:102960000E94E0139BCF0E94C5100E94480A96CF98
:102970000E94E715898392CF0E94E915982789273D
:1029800098279A8389838ACF6B8170E089819A81A5
:10299000AE014C5F5F4F9827892798270E94EC155E
:1029A0007DCF6B8170E089819A81AE014C5F5F4F72
:1029B0009827892798270E94131670CF0E943E16E9
:1029C0006DCF0E941215D6CF6B8170E089819A81FC
:1029D000AE014C5F5F4F9827892798270E948A1580
:1029E0005DCF6B8170E089819A81AE014C5F5F4F52
:1029F0009827892798270E94B01550CF0E94491325
:102A00004DCF0E94972B2FEF81EE94E02150804014
:102A10009040E1F700C000000E9418263FCF8FEFE2
:102A200088833CCF84E0089550E0440F551F9EE119
:102A3000699F400D511D112496E9899F400D511D3C
:102A40001124CA01869608950F931F93CF93DF93A5
:102A50000E9414158C010E946933C82FD0E0DC2F2E
:102A6000CC27C80101960E9469339E01282BC90119
:102A7000DF91CF911F910F9108950F931F93CF93E3
:102A8000DF93122F032F0E941415EC01602F0E9478
:102A90007D33612FCE010196DF91CF911F910F9170
:102AA0000C947D33AF92BF92CF92DF92EF92FF9260
:102AB0001F93CF93DF938CEAC82E80E0D82ED0E00E
:102AC0007601C0E014C0F50125913491412F6C2F9F
:102AD0008D2F0E943D1582E0A80EB11C1F5F1F3094
:102AE00091F78EE1E80EF11CCF5FC53019F0570168
:102AF00010E0E9CFDF5F86E9C80ED11CD43001F7C2
:102B0000DF91CF911F91FF90EF90DF90CF90BF901A
:102B1000AF900895EF92FF920F931F93CF93DF939F
:102B2000EC018A017C01E60EF71ECE018696CE15D9
:102B3000DF0539F4DF91CF911F910F91FF90EF9056
:102B40000895C83522E0D20740F40E946933F801A5
:102B500080830F5F1F4F2196E8CFF8011082F9CFD5
:102B6000CF92DF92EF92FF920F931F93CF93DF9359
:102B70007C016A018C01060F171FEC01CE018696BD
:102B8000C017D10749F4DF91CF911F910F91FF90AA
:102B9000EF90DF90CF900895C83522E0D20740F43F
:102BA000FE01EE19FF09EC0DFD1D60810E947D33D1
:102BB0002196E4CF462F843038F4753028F46F30F6
:102BC00018F4672F0C94241590E080E0089580E1BC
:102BD000089582E891E00895EF92FF920F931F937A
:102BE000CF93DF93EC018A017C01E60EF71ECE0144
:102BF00082589D4FCE15DF0539F4DF91CF911F919B
:102C00000F91FF90EF900895C23821E0D20740F471
:102C10000E946933F80180830F5F1F4F2196E7CF31
:102C2000F8011082F9CFCF92DF92EF92FF920F93CB
:102C30001F93CF93DF937C016A018C01060F171F4E
:102C4000EC01CE0182589D4FC017D10749F4DF91A6
:102C5000CF911F910F91FF90EF90DF90CF9008954B
:102C6000C23821E0D20740F4FE01EE19FF09EC0D55
:102C7000FD1D60810E947D332196E3CFCF93DF93CA
:102C8000CEE7D2E060E0CE010E947D332196C115EF
:102C900084E0D807B9F7DF91CF910895DF92EF92E2
:102CA000FF920F931F93CF93DF9300D000D0CDB747
:102CB000DEB7F82E8FE08F1540F08FEF93E00E9483
:102CC00069330EE712E08823C1F00F900F900F9048
:102CD0000F90DF91CF911F910F91FF90EF90DF90B8
:102CE0000895011584E0180781F3C8010E94693333
:102CF000811101C0FA940F5F1F4FF110F2CF1982BA
:102D00001A821B821C82DD24D39478018FEFE81A8B
:102D1000F80AC8010E94693389831A828823A9F2BC
:102D20009FEF980F933078F48A83D9820E5F1F4FFC
:102D3000C7010E9469338B83882339F2CE01019643
:102D40000E945E05E2CF8701F9CF0F931F93CF93C7
:102D5000DF93C62FD42F022FFC0182818823C9F074
:102D600060934A020E94CD259093490280934802C5
:102D700080E28C0F883008F050C0C77081E001C03D
:102D8000880FCA95EAF7DF91CF911F910F910C94AC
:102D9000101B10914A02161335C080914802909181
:102DA00049020E94E525883C910560F5C0E2CD0FFF
:102DB0001D17B9F080E2810F883040F4177081E070
:102DC00001C0880F1A95EAF70E94171BC83048F413
:102DD00081E09D2F977001C0880F9A95EAF70E94B5
:102DE000101B802F0E94FD1AC830B8F4D77081E004
:102DF00001C0880FDA95EAF7DF91CF911F910F910B
:102E00000C94171B80E28C0F883038F4C77081E077
:102E100001C0880FCA95EAF7EFCFDF91CF911F91DC
:102E20000F9108959C01CB01233F4CE5340731F10C
:102E300090F4283DFCE53F07E9F0293D4CE53407D7
:102E400069F1273D3C4579F426E241EE61EE0E94AE
:102E5000A51680E00895253FFCE53F07B9F090F006
:102E6000263F3C45B9F0FC0182818823D1F01092C5
:102E70004A02089527E245EE65EEE9CF26E241EEEB
:102E800060EEE5CF27E245EE64EEE1CF26E241EECB
:102E900062EEDDCF27E245EE66EED9CF28E241E0D3
:102EA000EBCF81E00895CF93DF93EC01FB018281AA
:102EB000882309F419C1C230FCE5DF07C0F1C6312F
:102EC0009CE5D90730F09E012A5F3C452930310549
:102ED00070F50E94D32390937B0380937A03C031D3
:102EE000ECE5DE0709F4CFC008F05BC0C8308CE524
:102EF000D80709F4B6C088F5C430ECE5DE0709F45C
:102F0000A8C0C0F4C2308CE5D80709F49CC08091F9
:102F10007A038260C330DC4509F498C080917A035B
:102F200090917B030E94E1230E948C1D80E0DF9141
:102F3000CF91089580917A038061C630ECE5DE0779
:102F400009F484C080917A038860C730DC4508F4B6
:102F50007DC080917A03806279C0CC308CE5D8073F
:102F600009F489C070F480917A038C60CA30ECE572
:102F7000DE0709F46BC008F478C080917A038E7F75
:102F800065C0CE308CE5D80709F479C080917A030A
:102F90008B7FCF30DC4508F459C080917A038F7E57
:102FA00055C0CB3FECE5DE0709F457C030F5C3311F
:102FB0008CE5D80709F46FC078F4C131ECE5DE0781
:102FC00009F465C0C231DC4509F0A8CF0E948C1D10
:102FD00080917A038F773AC0C5318CE5D80709F420
:102FE00062C008F476C080917B038160CA3FDC45F3
:102FF00009F094CF80937B0391CFCF3FFCE5DF07AF
:1030000009F44DC088F480917B038D7FCD3F9CE512
:10301000D90781F380917B038E7FCE3FDC4550F34F
:1030200080917B038360E6CFC130FDE5DF0709F4C3
:1030300059C008F444C080E0C230DD4509F06ECFCD
:103040000E9468246BCF80917A03816080937A0319
:1030500065CF80917A038460F9CF80917B03826091
:10306000C9CF80917A038064F1CF0E948C1D80913A
:103070007A038068EBCF80917A038D7FE7CF8091D0
:103080007A03877FE3CF80917A038F7DDFCF8091B2
:103090007A038F7BDBCF80917A03837FD7CF8091B8
:1030A0007B038C7FA7CF80917A0382FB992790F9CD
:1030B00021E0922790FB82F990FB83F9C7CF8091A2
:1030C0007B03982F909591708E7F892B90FB81F9CF
:1030D00091CF0E948C1D90917A03892F97FB87F9DD
:1030E0008058B4CF81E0ACCF81E021CFCF93DF9384
:1030F000EB0186319C4511F50E940B239A8199239F
:1031000099F08A7A91E009F490E090934B02811152
:1031100009C089E20E94E6220E94572380E0DF91E5
:10312000CF91089585E3F6CF80914B02811104C0C1
:1031300089E20E94ED22F0CF85E3FBCF81E0EFCF63
:1031400090935102809350020895E0915002F091C3
:103150005102309721F00190F081E02D099480E038
:103160000895E0915002F0915102309799F020912A
:103170002B01222359F020917A0327FF07C0DC019D
:103180002C9111962C93119725E02C930280F381BA
:10319000E02D09940895E0915002F091510230978A
:1031A00039F022E0DC012C930480F581E02D0994B4
:1031B000089520914E0230914F022817390771F07F
:1031C00090934F0280934E02E0915002F091510291
:1031D000309721F00680F781E02D09940895209121
:1031E0004C0230914D022817390771F090934D022F
:1031F00080934C02E0915002F0915102309721F0FF
:103200000084F185E02D0994089585B7806885BF15
:1032100085B7806885BF0895089508950C940C19AA
:1032200008950C9410190E9405190E940D190C9410
:103230000E1981E008950C9419190E94C4250E946A
:103240004D080E945C130E9452260E94F6100E94B4
:10325000520F0C9411197F928F929F92AF92BF924E
:10326000CF92DF92EF92FF920F931F93CF93DF9352
:10327000CDB7DEB72A970FB6F894DEBF0FBECDBF2D
:103280000E94B5080E941B19882309F475C043E504
:10329000A42E42E0B42E10E000E0702E802F0E9499
:1032A0003F086C01F501819091905F0188169906A5
:1032B00009F45CC08091F50281FD0E94480880E01D
:1032C000EE24E394F12C8C249D2494012E213F21A3
:1032D000232B09F445C08E837F82CE20DF2081E03E
:1032E000CD2809F480E088870E94CD258160782F61
:1032F0009A8789874E815F8168858A850E94E11956
:10330000000F111FF801ED5AFD4F80819181E826D1
:10331000F926F182E0820E94900F0E9451120E94D1
:10332000DF270E94A518909152028917B1F10E94DF
:10333000A518809352022A960FB6F894DEBF0FBEEE
:10334000CDBFDF91CF911F910F91FF90EF90DF9054
:10335000CF90BF90AF909F908F907F900C94DA05A4
:103360008F5FEE0CFF1C8F3009F0AFCF0F5F1F4F48
:103370000530110509F091CF8FEF89838A831B8275
:103380000E94CD258160782F9D838C8349815A814D
:103390006B818D810E94E119BECF2A960FB6F894F9
:1033A000DEBF0FBECDBFDF91CF911F910F91FF9078
:1033B000EF90DF90CF90BF90AF909F908F907F90D5
:1033C0000895CF93DF93CDB7DEB72B970FB6F89460
:1033D000DEBF0FBECDBF4F83588769877A878B8743
:1033E0001E821D8285E0FE013796DE011196019056
:1033F0000D928A95E1F749815A816B817C818D819B
:103400009E812B960FB6F894DEBF0FBECDBFDF9125
:10341000CF910C940220FC01808191810C94B82200
:10342000CF93C82F882309F490C08238C1F40E943A
:10343000A51881FD8AC089E30E94E6220E945723D5
:103440002FEF81EE94E0215080409040E1F700C0E2
:10345000000089E30E94ED22CF910C94572383381A
:10346000A1F40E94A51880FD70C083E50E94E622A9
:103470000E9457232FEF81EE94E02150804090402E
:10348000E1F700C0000083E5E5CF8438A1F40E9495
:10349000A51882FD5AC087E40E94E6220E945723A5
:1034A0002FEF81EE94E0215080409040E1F700C082
:1034B000000087E4CFCF8CEF8C0F813AB8F48C2FCB
:1034C0000E94522A811141C06C2F80911701909166
:1034D00018010E948124882329F08C2F0E94ED225C
:1034E0000E9457238C2F0E94E622B6CF80E28C0FD9
:1034F000883048F4C77081E001C0880FCA95EAF7A8
:103500000E940E23A9CFEBE5EC0FE33040F4F0E08E
:10351000E653FE4F808190E0CF910C94D918E8E5F6
:10352000EC0FE73150F4F0E0EE0FFF1FE456FE4FD2
:1035300080819181CF910C94EF18C03F30F08C2F97
:103540000E94ED26CF910C94D427CF910895882323
:1035500009F452C0823871F40E94A51881FF4CC052
:1035600089E30E94E6220E94572389E30E94ED220C
:103570000C945723833859F40E94A51880FF3CC04F
:1035800083E50E94E6220E94572383E5EFCF84382B
:1035900059F40E94A51882FF2FC087E40E94E622FA
:1035A0000E94572387E4E2CF9CEF980F913AF0F204
:1035B00090E2980F983050F4877091E001C0990F15
:1035C0008A95EAF7892F0E941423D2CF9BE5980FA2
:1035D000933020F490E080E00C94D91898E5980F8F
:1035E000973120F490E080E00C94EF18803F20F0B9
:1035F0000E9455270C94D4270895CF93C82F0E947A
:10360000101AC93349F42FEF87EE93E02150804020
:103610009040E1F700C000008C2FCF910C94A71AC6
:10362000882321F00E940E230C94572308958823A9
:1036300021F00E9414230C9457230895BF92CF9237
:10364000DF92EF92FF920F931F93CF93DF936C0162
:10365000D62FC72FFC01058102950F701281111121
:103660000E942B230E940423E82E882391F011232B
:10367000D1F08C2F807F803421F080E28D0F883054
:1036800090F082E00E94A2230E94042391E0E82EA1
:10369000E926BC2EB2949FE0B922EB2DF0E0E85F62
:1036A000FB4C0C94D932E12CF4CF0C2F0F70C07F5F
:1036B00011F00295007F1123A9F0002359F080E258
:1036C0008D0F883010F0D11109C0802F0E940E2379
:1036D0000E9457238D2F0E94101A14C0802F0E9421
:1036E0001E23F6CF8D2F0E94A71A002359F080E2E7
:1036F0008D0F883010F0D1112CC0802F0E94142320
:103700000E9457232B2D2850330B2430310520F4F1
:103710000E94A5180E94DA05EE2009F49EC10E94BD
:10372000002380FD9AC1F60112820E94FA220E94B3
:103730008621C6010E944E1D0E94FA22DF91CF9180
:103740001F910F91FF90EF90DF90CF90BF900C945E
:10375000A721802F0E942423D3CFFC2FFF70FF2EA0
:10376000C07FC03219F0F29480EFF822DD2369F0B7
:10377000D13049F1112391F1002351F1F6018581F6
:1037800080FFA8CF8F70858323C0112381F00111A2
:1037900006C00E943E238F290E94101BB3CF013028
:1037A000C1F70E943E238F290E944423ABCF011111
:1037B00006C00E944D238F2D0E94171BA3CF0130FE
:1037C00009F4A0CFF6CF112329F0063008F09ACFE4
:1037D0008F2DE2CF053008F095CFEDCF002359F3C0
:1037E000D93349F4FFEF27EE33E0F1502040304069
:1037F000E1F700C000008D2F0E94A71A83CF8C2F05
:1038000086958695837069F0813009F07BCF8D2F86
:103810009C2F9370111102C090E080E00E94EF187D
:1038200071CF8D2F9C2F9370111102C090E080E01A
:103830000E94D91867CF8D2F112329F00E94ED2601
:103840000E94D4275FCF0E945527FACF8C2F837018
:1038500009F041C0111156CF4D2F42954695477042
:10386000440F440F0D2F0F7010E030E020E0042EC5
:1038700004C0000F111F221F331F0A94D2F760E00B
:1038800070E0CB01D4FF0FC06FE070E080E090E00B
:1038900004C0660F771F881F991F4A95D2F760955D
:1038A000709580959095C695C695C370602B712BC9
:1038B000822B932BC23049F058F4C13019F00E948A
:1038C000382120CF0E9426211DCF0E944A211ACFE5
:1038D0000E94242117CF8695112311F08C2F81701F
:1038E000882309F40FCF4D2F429546954770440F1A
:1038F000440F0D2F0F7010E030E020E0042E04C0C4
:10390000000F111F221F331F0A94D2F760E070E0EE
:10391000CB01D4FF0FC06FE070E080E090E004C006
:10392000660F771F881F991F4A95D2F7609570958B
:1039300080959095C695C695C370602B712B822B90
:10394000932BC23049F058F4C13019F00E94FD2188
:10395000D9CE0E94EB21D6CE0E940F22D3CE0E9458
:103960006021D0CECF70112329F08C2F0E948621A8
:103970008D2F12CF8D2F0E94171B8C2F0E94A721F5
:10398000C1CED23F89F160F4D03FC9F0D13F29F1D7
:10399000112309F442C001119DCE8C2F8F7121C0DB
:1039A000D33F39F1D43FA1F7112369F1CF718C2FA7
:1039B0000E94862163E08C2F0E948D23A3CE1123C9
:1039C00041F0053008F09ECE8C2F8F710E94CA21E5
:1039D00099CE063008F096CEF7CF8C2F8F71112339
:1039E00069F20E9486218ECE8C2F8F711123C9F32C
:1039F000C5CF112329F08C2F8F710E94712182CEA7
:103A00000E946C217FCE81E00E94A223023008F444
:103A100079CE82E00E94A22375CE002359F0D933DB
:103A200009F0E9CE8FEF97EEE3E081509040E0405F
:103A3000E1F7DFCE8C2F8F71A1CF4C2F4F706D2F00
:103A4000C6010E9440060E949C205CCE4C2F4F7005
:103A50006D2FC6010E94430655CEDF91CF911F9175
:103A60000F91FF90EF90DF90CF90BF9008950F934C
:103A70001F93CF93DF93EC01688179818A810E9443
:103A8000C2228C010E9421220E942321B801CE0172
:103A9000DF91CF911F910F910C941E1BCF93DF9359
:103AA000EC018B819C81892B29F088819981892364
:103AB0008F3F59F4DF91CF910895CE010E94371DB9
:103AC000CE01DF91CF910C949F04CE010E94F205AC
:103AD0008111F3CF0E940423882361F38A81882314
:103AE00049F382E0DF91CF910C94A2230E942B2313
:103AF0000E943B230E9457230E94F9280E94D4274A
:103B000090E080E00E94D91890E080E00C94EF18DB
:103B10000E94F4220C94761D0E941B230C94881D95
:103B2000E92FE295EF70E250EE3070F4F0E0E85EDD
:103B3000FB4C0C94D932803F19F020F4883E20F4DD
:103B400081E00895843FE1F380E00895883EC0F36A
:103B5000813FD1F7F5CF93FB882780F908950E9424
:103B6000B8220C94901DCF93DF9300D000D00F9219
:103B7000CDB7DEB70F900F900F900F900F90DF91A1
:103B8000CF910895CF93DF9300D000D000D0CDB770
:103B9000DEB726960FB6F894DEBF0FBECDBFDF911D
:103BA000CF9108951F93CF93DF93C0915E0216E0EB
:103BB00080915F028C1304C0DF91CF911F91089513
:103BC000D0E01C9FF0011D9FF00D1124E05AFD4F25
:103BD0004081518162817381848195810E94C21DDF
:103BE0002196C770E5CF409190025091910260916B
:103BF00092027091930280919402909195020C949C
:103C0000C21D1F93CF93DF9380919502807FA9F40B
:103C100080919202882389F080915E02C0915F02B8
:103C20006091900270919102A0919302B0919402E0
:103C3000D62FD72316E0C81304C0DF91CF911F9170
:103C4000089590E0109711F0DF3F19F40196877006
:103C5000F2CF189F9001199F300D1124F901E05AFD
:103C6000FD4F41814713F2CF40814613EFCF428190
:103C70004111ECCF438154814A1B5B0B483C5105F9
:103C800028F7809195028F70806180939502F901E9
:103C9000EB59FD4F80818F708061808380E992E0D5
:103CA0000E944E1DDF91CF911F910C94D21DAF92B7
:103CB000BF92CF92DF92EF92FF920F931F93CF9319
:103CC000DF93CDB7DEB761970FB6F894DEBF0FBEB6
:103CD000CDBF8C0185E0F801DE011D9601900D92AB
:103CE0008A95E1F7F80140815181E28080E9C82E90
:103CF00082E0D82E60919302709194026115710553
:103D000009F461C19091900220919102892F822340
:103D10008F3F09F458C1A380B480F0909202F5015E
:103D2000E61BF70BFF2009F4FCC080919502382FA9
:103D3000307FE83CF10508F0B2C0311179C0FE2CAB
:103D4000251323C0941321C0E1101FC08F70806120
:103D5000809395020E94F31DC6010E944E1D809122
:103D60009502F80185838F2D61960FB6F894DEBF1A
:103D70000FBECDBFDF91CF911F910F91FF90EF90BC
:103D8000DF90CF90BF90AF900895AB2829F0842F9B
:103D900085238F3F09F033C180E0F82FF170DF2ECB
:103DA00080FF3CC080915E0220915F0236E082136A
:103DB00015C04D875E878D859E850E94B822292F6C
:103DC00022952F702230F0F0243018F59F70F1F01A
:103DD000F8019581907FD1F4D12C1EC090E0389FDE
:103DE000F001399FF00D1124E05AFD4F61816513F8
:103DF00006C06081641303C062816E110FC001961A
:103E00008770D5CF9F7011F0882331F3805E8830A2
:103E100018F3C8010E944E1DFD2CA5CFEE2009F419
:103E2000A2CF80919502816080939502F12C9BCF67
:103E3000251306C0941304C0F801EE2009F48DC0C8
:103E40004D875E878D859E850E94AF1D882319F161
:103E5000EE2009F180919502803270F0209190025D
:103E60003091910238872F831986BB86AA868C876A
:103E7000CE0107960E944E1D86E0F801A0E9B2E04F
:103E800001900D928A95E1F70E94011E0E94F31D98
:103E9000FF24F39468CFC8010E944E1DF9CF311161
:103EA00013C07A2DB98AA88A6E2D89890E94B31D04
:103EB00080E992E00E944E1D86E0F60111928A95FB
:103EC000E9F70E94F31DB2CF25130FC094130DC064
:103ED000E1100BC0F8018583C8010E944E1D86E0E9
:103EE000F60111928A95E9F73ECF4D875E878D8561
:103EF0009E850E94AF1D882371F2EE2061F28091B1
:103F00009502803208F4B8CF20919002309191024E
:103F10003A8329831B82BD82AC828E83CE010196B7
:103F2000A9CFE83CF10508F041C0FE2CEE2009F4D1
:103F3000B2CF25132AC0941328C08091950280FD2A
:103F40001BC0982F907FC1F0F8018583903F31F01E
:103F5000982F907F905F8F70892B8583C8010E9476
:103F60004E1D86E0F801A0E9B2E001900D928A951D
:103F7000E1F70E94F31DF7CE86E0F801A0E9B2E078
:103F800001900D928A95E1F7EECE4D875E878D8583
:103F90009E850E94AF1D81116FCF80919502816037
:103FA00080939502C8010E944E1DDDCE7A2DB98AFC
:103FB000A88A6E2D89890E94B31D86E0F6011192B0
:103FC0008A95E9F7D6CFEE2009F465CF4D875E8755
:103FD0008D859E850E94AF1DF82E882309F45BCF46
:103FE00086E0F801A0E9B2E001900D928A95E1F730
:103FF00080E992E00E940B1A0E94011EBACF81E074
:104000008E25CBCE1F93CF93DF93CDB7DEB72C9702
:104010000FB6F894DEBF0FBECDBF4F8358876987B8
:104020007A878B879C87CE0107960E94571E88232C
:1040300069F08A859B85892B39F04F815885842FBB
:1040400085238F3F09F071C016E05FC086E0FE0156
:104050003796DE01119601900D928A95E1F78A85D7
:104060009B85892B89F388859F8189238F3F61F305
:1040700020915F0230E0C901019687709927409135
:104080005E024817190671F40E948C1D10925F029F
:1040900010925E0286E0E0E9F2E0DF011D928A956F
:1040A000E9F7D2CF96E0929FD001939FB00D1124F3
:1040B000A05ABD4FFE01319601900D929A95E1F7FD
:1040C00080935F020E94D21DBFCF819FC001112447
:1040D000805A9D4F0E94571E8823E9F0E0915E02AE
:1040E0001E9FF0011124E05AFD4F408151816281F1
:1040F0007381848195810E94C21D80915E0290E04F
:1041000001968770992780935E0280915E0290915C
:104110005F028913DACF2C960FB6F894DEBF0FBE7C
:10412000CDBFDF91CF911F91089569857A858B85E9
:104130009C850E94C21D88CFEF92FF920F931F9320
:10414000CF93DF938C01892B81F0F12CEE24E39443
:10415000E8012196F8018491843770F4843008F0E6
:104160005FC08130B1F08230A1F1DF91CF911F911A
:104170000F91FF90EF900895853709F44CC008F433
:104180003DC09CE7980F903780F78F770E94A71A61
:1041900049C00E5F1F4FFE01849190E2980F983046
:1041A00060F48770FE2D01C0FF0F8A95EAF78F2F0C
:1041B0000E942E230E94572302C00E94101A8F2DA6
:1041C000815030F2EFE9FFE03197F1F700C00000D5
:1041D000F7CF0E5F1F4FFE01849190E2980F983049
:1041E00050F48770FE2D01C0FF0F8A95EAF78F2FDC
:1041F0000E943423DFCF0E94A71AE1CF0E5F1F4F2A
:10420000FE01C491C150D8F28FE99FE00197F1F708
:1042100000C00000F7CF0E5F1F4FFE01F490CFCF1C
:104220000E94101A8E01CBCF08950C9414210E9485
:1042300015216093CC027093CD028093CE029093AF
:10424000CF020C94761D08950C9417210F931F93A1
:104250000091CC021091CD022091CE023091CF027C
:10426000602B712B822B932B1F910F910C94172194
:104270000F931F930091CC021091CD022091CE029A
:104280003091CF0260237123822393231F910F91DA
:104290000C9417210F931F930091CC021091CD0223
:1042A0002091CE023091CF02602771278227932779
:1042B0001F910F910C9417210C9414210C945C21E4
:1042C0000E945E216093C8027093C9028093CA0263
:1042D0009093CB020C94761D60E070E0CB010C94BF
:1042E00060210F931F9341E050E060E070E08A018D
:1042F0009B0104C0000F111F221F331F8A95D2F7A4
:10430000C901B8011F910F910C9460210F931F9365
:1043100041E050E060E070E004C0440F551F661FAC
:10432000771F8A95D2F78091C8029091C902A09117
:10433000CA02B091CB028A019B01082B192B2A2BB0
:104340003B2BC901B8011F910F910C9460210F9371
:104350001F9341E050E060E070E004C0440F551F3F
:10436000661F771F8A95D2F7CB01BA0160957095C9
:10437000809590950091C8021091C9022091CA02BF
:104380003091CB0260237123822393231F910F91DD
:104390000C9460210F931F9341E050E060E070E0C7
:1043A00004C0440F551F661F771F8A95D2F780916E
:1043B000C8029091C902A091CA02B091CB028A01B1
:1043C0009B01082719272A273B27C901B8011F91FC
:1043D0000F910C9460210F931F930091C8021091CC
:1043E000C9022091CA023091CB02602B712B822B23
:1043F000932B1F910F910C9460210F931F930091A9
:10440000C8021091C9022091CA023091CB026023E8
:104410007123822393231F910F910C9460210F939A
:104420001F930091C8021091C9022091CA023091D5
:10443000CB0260277127822793271F910F910C943D
:10444000602108952FE0929F800D1124982F97707E
:1044500041E001C0440F9A95EAF7869586958695C6
:1044600095E0899FF0011124EA56FD4F90E080E02D
:1044700070E05191DF0111979B01082E02C0369523
:1044800027950A94E2F721702195252724232527D3
:104490002C9301968530910561F708952FE0929F46
:1044A000800D1124982F977086958695869525E026
:1044B000829FF0011124EA56FD4F50E040E080E079
:1044C000219130E0092E02C0369527950A94E2F733
:1044D00021703327042E01C0220F0A94EAF7822BA1
:1044E0004F5F5F4F4530510559F70895BF92CF9206
:1044F000DF92EF92FF920F931F93CF93DF938C0184
:10450000C090C802D090C902E090CA02F090CB02DD
:104510008091CC029091CD02A091CE02B091CF02B9
:10452000C82AD92AEA2AFB2ACFE1D0E0BC2ED7013B
:10453000C6010C2E04C0B695A795979587950A9449
:10454000D2F780FD0EC0219788F7B12C8B2DDF911B
:10455000CF911F910F91FF90EF90DF90CF90BF9080
:104560000895B8018C2F0E944C06019761F3EECF9D
:10457000CF93DF93EC010E947622BE01DF91CF91B1
:104580000C944C061F93CF93DF93EB0190915D0247
:10459000992331F0CB01DF91CF911F910C94B82278
:1045A000882379F0CB010E947622182F682FCE0144
:1045B0000E942222BE01812FDF91CF911F910C9486
:1045C0004C06CB010E944E22182FF4CF682F809109
:1045D0001701909118010C940125682F8091170103
:1045E000909118010C940C2580911701909118015D
:1045F0000C9417258091D002859585958595089511
:104600008091D002877008959091D002977081E0D8
:1046100009F480E008958091F40208959091F402E5
:10462000892B8093F402089580959091F402982349
:104630009093F40208951092F40208959091F30279
:10464000892B8093F302089580959091F30298232B
:104650009093F30208951092F30208959091F2025C
:10466000892B8093F202089580959091F20298230D
:104670009093F20208951092F20208958091D1026F
:10468000089508950C9441239091D102981721F038
:104690008093D1020C94422308958091D102882303
:1046A00029F01092D10280E00C9442230895E09109
:1046B0001701F09118018091F4028083E0911701B5
:1046C000F091180180819091F302892B8083E09111
:1046D0001701F091180180819091F202892B80835B
:1046E0009091D102992381F0E0911701F091180186
:1046F0008081892B808380911701909118010E94FD
:104700006D2481110E944D23809117019091180111
:104710000C94B11808950C948A2398E0899F900115
:104720001124622B6093D0020E9486218091D002D6
:104730008595859585950C948B231092D00280E009
:104740000C948B239091D002809589238093D00282
:10475000282F277071F4282F082E000C330B921786
:10476000130639F08595859585950E94A7210C94AF
:104770009D2308956FEF7FEF90E080E00C949B33D2
:1047800090E080E00E94773321E08C3E9E4F09F05C
:1047900020E0822F089582E090E00C94693383E05A
:1047A00090E00C946933CF9384E090E00E946933E9
:1047B000C82F81E290E00E946933982F8C2FCF910F
:1047C0000895CF93C92F682F84E090E00E947D3335
:1047D0006C2F81E290E0CF910C947D3386E090E0E5
:1047E0000C946933682F86E090E00C947D33AB0124
:1047F000BC018FE090E00C948F33AB01BC0183E1EE
:1048000090E00C948F3360E070E0CB010C94FD23BA
:1048100060E070E0CB010E94F7230C9403246CEE5F
:104820007EEF90E080E00E949B3360E082E090E0C9
:104830000E947D3360E083E090E00E947D3310921F
:10484000CC021092CD021092CE021092CF0260E004
:1048500084E090E00E947D3360E081E290E00E947D
:104860007D3360E085E090E00E947D3360E086E08B
:1048700090E00E947D336FEF87E090E00E947D33EF
:1048800040E050E0BA0188E090E00E948F3360E0A1
:104890008DE090E00E947D3340E050E0BA0188E175
:1048A00090E00E948F3360E087E190E00E947D33CA
:1048B00040E050E0BA018CE190E00E948F3360E06C
:1048C00080E290E00E947D330C9408240C940F2425
:1048D000682F8EE090E00C947D33FC01329680913D
:1048E0002B01882321F080917A039EE187FF96E0D7
:1048F00080E0915008F4089521912223D1F38F5F35
:10490000F8CF662301F120912B012223F1F02091B1
:104910007A0327FF1AC0462F4695469546954E3195
:1049200090F4677021E030E002C0220F331F6A95D7
:10493000E2F7840F911DFC01828190E02823392346
:1049400081E0232B69F480E00895FC0132960896FB
:104950002191261721F0E817F907D1F7F4CF81E06C
:1049600008959C01FC0132969FEF80E0419146172B
:1049700051F09F3F19F4411101C0982F8F5F86308D
:10498000A9F79F3F09F40895290F311D97FD3A9526
:10499000F90162830895FC0132960896219126134D
:1049A00003C0DF0111971C92E817F907B9F70895C2
:1049B000E62FE695E695E695EE3168F4E80FF92FD7
:1049C000F11D677021E030E001C0220F6A95EAF71F
:1049D0008281822B82830895E62FE695E695E695FF
:1049E000EE3170F4E80FF92FF11D677021E030E02F
:1049F00001C0220F6A95EAF720958281282322833D
:104A0000089520912B01222329F020917A0327FD7C
:104A10000C94D8240C94B12420912B01222329F04A
:104A200020917A0327FD0C94EC240C94CB24FC01F8
:104A3000329680912B01882351F080917A0387FF71
:104A400006C08EE1DF011D928A95E9F7089586E0A0
:104A5000F9CF089508950C942A250E942B25809162
:104A60008003843009F43CC01092F60288E190E0A3
:104A700020E40FB6F894A895809360000FBE2093B1
:104A8000600080E00E94281280E00E94DA050E9407
:104A90008D0F8091F70281110AC081E08093F702A7
:104AA0008091400381708093F8020E94C00E0E94A2
:104AB0002B2583B7817F846083BF83B7816083BFE9
:104AC0007894889583B78E7F83BF0FB6F894A895A6
:104AD00080916000886180936000109260000FBE3A
:104AE00008950895CF930E9429250E94B5080E9439
:104AF0007125C0E08C2F0E943F08892B31F4CF5FD5
:104B0000C530C1F780E0CF91089581E0FCCF0895D2
:104B10000C9487250E948C1D0E94F6100E94A518F7
:104B20000E94DA051092F7028091F80281110E942A
:104B3000850F0E94D20E0C9488251F921FB61F92DB
:104B400011248F939F93AF93BF938091F6028111AD
:104B500013C08091760390917703A0917803B09170
:104B600079034196A11DB11D80937603909377033D
:104B7000A0937803B0937903BF91AF919F918F91E8
:104B80001F901FBE1F90189582E084BD93E095BDD5
:104B90009AEF97BD80936E0008952FB7F894809197
:104BA000760390917703A0917803B09179032FBF9A
:104BB00008952FB7F89460917603709177038091F0
:104BC0007803909179032FBF08959C014FB7F89413
:104BD0008091760390917703A0917803B091790347
:104BE0004FBF821B930B089578941F921FB61F929C
:104BF00011248F939F93AF93BF93809176039091ED
:104C00007703A0917803B09179030196A11DB11D9E
:104C10008093760390937703A0937803B0937903FE
:104C2000BF91AF919F918F911F901FBE1F901895BC
:104C300081E08093E00080E28093D8001092C90068
:104C40008FE19EE40197F1F700C0000087E090EB50
:104C5000DC018093890390938A03A0938B03B09324
:104C60008C0388E19CE00FB6F894A89580936000CF
:104C70000FBE90936000FFCF0C9449130E94B508BB
:104C80008FE39CE90197F1F700C000000E94B5088E
:104C900080E00E943F0880FF04C00E943C260C94E4
:104CA000182608950E94C023811102C00E94662424
:104CB0000E94CB238093F5020E94D32390937B0321
:104CC00080937A030E94CF23682F70E090E080E009
:104CD0000C9424218091000380FF12C060911E017A
:104CE00085E0689FB0011124759567957595679566
:104CF00060387105A8F561157105A1F1862F089539
:104D000081FF09C060911E0185E0689FB0011124F8
:104D100075956795EDCF60911E0182FD0AC0809167
:104D2000FF028823D1F090911D0160911E01891727
:104D300028F085E0689FB0011124DACF869FB0018A
:104D4000112485E0869F9001879F300D1124692FE3
:104D500070E0C9010E94A332CBCF65E070E0CECFF6
:104D60008FE7089581E008958091000380FF0CC0D3
:104D700060911A0170E07595679575956795611555
:104D8000710549F1862F089581FF06C060911A01CF
:104D900070E075956795F3CF60911A0182FD0BC0A5
:104DA0009091FF029923A1F06091190180911A015D
:104DB000961738F0682F70E06038710500F38FE7C0
:104DC0000895899FC001112470E00E94A332F4CF9E
:104DD00061E070E0D7CF81E00895803F31F40E9418
:104DE0006A268195809304030895813F19F40E94F7
:104DF0006A26F8CF823F31F40E946A26819580931B
:104E000003030895833F19F40E946A26F8CF893F6F
:104E100029F40E94B4268093050308958A3F21F463
:104E20000E94B4268195F7CF8B3F31F40E94B426BF
:104E300081958093060308958C3F19F40E94B4264F
:104E4000F8CF843F31F480910203816080930203A4
:104E50000895853F21F4809102038260F7CF863F59
:104E600021F4809102038460F1CF873F21F4809187
:104E700002038860EBCF883F21F4809102038061B8
:104E8000E5CF8D3F31F48091000381608093000372
:104E900008958E3F21F4809100038260F7CF8F3F09
:104EA000B9F7809100038460F1CF90910303803FB4
:104EB00041F48091040387FD10920403992371F05B
:104EC0000895813F29F4809104031816ACF3F6CFBE
:104ED000823F81F497FFF2CF109203038091040385
:104EE00090910503892B90910603892B49F7109225
:104EF000FF020895833F19F4191674F3DFCF893F39
:104F000039F4809105031816CCF610920503D6CF1C
:104F10008A3F29F48091050387FFD0CFF6CF8B3FDE
:104F200039F48091060387FFC9CF10920603C6CFDC
:104F30008C3F29F4809106031816BCF3BFCF843F41
:104F400031F4809102038E7F80930203B7CF853FB7
:104F500021F4809102038D7FF7CF863F21F4809169
:104F600002038B7FF1CF873F21F480910203877F7B
:104F7000EBCF883F21F4809102038F7EE5CF8D3FF8
:104F800031F4809100038E7F8093000397CF8E3F92
:104F900021F4809100038D7FF7CF8F3F09F08ECFF2
:104FA000809100038B7FF0CF81E093E00E94CB18CB
:104FB0000E94CD259093FE028093FD020895CF9329
:104FC000DF9300D000D000D0CDB7DEB786E0E1E0BF
:104FD000F3E0DE01119601900D928A95E1F7809140
:104FE000030390910403892B81F08091FB0290913F
:104FF000FC020E94E525AC019091FF02992331F15A
:1050000080911F018417150670F18091050390911E
:105010000603892B91F08091F9029091FA020E9487
:10502000E525AC019091FF02992309F478C08091A5
:105030001B018417150608F480C026960FB6F89455
:10504000DEBF0FBECDBFDF91CF910895209120012B
:105050008AE0289F9001112424173507B0F69F5F3E
:105060009093FF0202C09F3FD1F710920503109268
:10507000060380910303181624F40E946A26809385
:1050800003038091030387FF05C00E946A26819570
:105090008093030380910403181624F40E946A2667
:1050A000809304038091040387FF05C00E946A2651
:1050B000819580930403309103033323A1F0209161
:1050C0000403222381F045EB3403C001112499230A
:1050D000F1F09093030345EB240390011124332353
:1050E000D1F0309304030E94D4278091FD02909167
:1050F000FE029093FC028093FB0286E0FE01319653
:10510000A1E0B3E001900D928A95E1F77ECF81E0B6
:1051100080930303E0CF81E080930403E4CF2091E8
:105120001C018AE0289F900111242417350708F0FC
:1051300084CF9F5F9093FF0202C09F3FD1F71092F0
:1051400003031092040380910503181624F40E94AF
:10515000B426809305038091050387FF05C00E9454
:10516000B42681958093050380910603181624F4D4
:105170000E94B426809306038091060387FF05C032
:105180000E94B42681958093060330910503332352
:10519000A1F020910603222381F045EB3403C001E6
:1051A00011249923F1F09093050345EB240390011A
:1051B00011243323D1F0309306030E94D427809129
:1051C000FD029091FE029093FA028093F90286E02C
:1051D000FE013196A1E0B3E001900D928A95E1F7CE
:1051E0002CCF81E080930503E0CF81E0809306031C
:1051F000E4CF86E0E1E0F3E0DF011D928A95E9F774
:105200001092FF02109200030895833081F128F478
:10521000813059F08230D1F00895853009F449C0C9
:10522000B8F1863009F456C0089580912001482FC6
:10523000460F5527551F4F3F510524F4680F6093C3
:10524000200108958FEF80932001089580911F0120
:10525000482F460F5527551F4F3F510524F4680F1F
:1052600060931F0108958FEF80931F01089580912F
:105270001E01482F460F5527551F4F3F510524F457
:10528000680F60931E0108958FEF80931E010895AB
:1052900080911D01482F460F5527551F4F3F51053F
:1052A00024F4680F60931D0108958FEF80931D0112
:1052B000089580911A01482F460F5527551F4F3FDB
:1052C000510524F4680F60931A0108958FEF8093BD
:1052D0001A01089580911901482F460F5527551F2F
:1052E0004F3F510524F4680F6093190108958FEF23
:1052F000809319010895833011F128F4813049F029
:10530000823091F00895853081F120F18630C1F12D
:10531000089580912001681720F4861B8093200156
:10532000089510922001089580911F01681720F4BC
:10533000861B80931F01089510921F01089580918C
:105340001E01681720F4861B80931E010895109299
:105350001E01089580911D01681720F4861B80931B
:105360001D01089510921D01089580911A0168177A
:1053700020F4861B80931A01089510921A01089553
:1053800080911901681720F4861B809319010895F4
:105390001092190108950F931F9341E050E060E0CF
:1053A00070E08A019B0104C0000F111F221F331FF0
:1053B0008A95D2F7C901B8010E9424211F910F914B
:1053C0000C948C1DEBEFE80FEF3308F05AC0F0E0BF
:1053D000EA5DFB4C0C94D9320E94662481E008956A
:1053E0008091F502807F8093F50281E0809308032D
:1053F00008950E94E305F2CF9091F502892F8E7FE8
:1054000090FF81608093F50280FDE8CF817F8093DB
:10541000F502E4CF9091F502892F8D7F91FF826094
:105420008093F50281FFDACF8091F5028160EFCFA2
:105430009091F502892F8B7F92FF84608093F50213
:1054400082FDF2CFCBCF9091F502892F877F93FF1A
:1054500088608093F50283FDE7CFC0CF0E948C1D4A
:1054600090917A03892F97FB87F9805880937A036C
:10547000B5CF80E00E94CB29B1CF8953FBCF8D51AE
:10548000F9CF80E0089580E008950C94432A8E516E
:105490008A3030F4E82FF0E0E353FE4F8081089526
:1054A00080E00895CF93C82F809108038130B9F030
:1054B000882331F08230A1F11092080380E00DC002
:1054C0000E940B238232D1F78C2F0E94432A811134
:1054D0001BC08C2F0E94E2298170CF9108950E94F9
:1054E0000B23823289F38C2F0E94452A81110AC036
:1054F000C43199F060F4CB3029F0C03169F782E013
:105500008093080381E0E8CF81E090E0E5CFC932E5
:1055100021F0C833B9F380E0DFCF10920803FBCF4E
:10552000C93219F188F4C43101F120F4C73081F196
:1055300081E0D3CF82EE8C0F8630D0F78C2F0E9483
:10554000472A80930703F4CFCE3401F140F46AE098
:10555000CB3471F7809107030E940529E9CFC1354B
:1055600079F061E0C235B1F3E3CF8091070388237E
:1055700019F010920703DCCF81E080930803ADCFD0
:1055800061E0809107030E947B29D2CF6AE0F9CFC6
:105590008EE18093200182E380931F018AE0809353
:1055A0001E0184E180931D0188E080931A0188E246
:1055B00080931901BDCF809129030895CF93DF9384
:1055C00000D00F92CDB7DEB790918003943011F5E3
:1055D00089837B836A839093E9008FEF9091E80041
:1055E000815095FD06C095ED9A95F1F70000811167
:1055F000F5CF8091E80085FF0DC050E040E063E00A
:1056000070E0CE0101960E94932D8091E8008E7784
:105610008093E8000F900F900F90DF91CF91089545
:10562000CF93DF93EC010E94762D823011F084300D
:1056300031F4BE0184E0DF91CF910C94DE2ADF913A
:10564000CF910895BC0183E00C94DE2ACF93DF93C1
:10565000EC010E94762D823011F08430F9F484E060
:105660008093E9008FEF9091E800815095FD06C08E
:1056700095ED9A95F1F700008111F5CF8091E80042
:1056800085FF0CC050E040E066E070E0CE010E9473
:10569000932D8091E8008E778093E800DF91CF9181
:1056A0000895CF93DF93EC010E94762D823011F0A4
:1056B0008430B9F580912B018823B1F180917A0370
:1056C00087FF32C060E284E08093E9008FEF909121
:1056D000E800815095FD06C095ED9A95F1F7000020
:1056E0008111F5CF8091E80085FF1BC080912B01CF
:1056F00070E050E040E0811104C050E040E068E01C
:1057000070E0CE010E94932D8091E8008E77809307
:10571000E80080E2FE01A9E0B3E001900D928A95D5
:10572000E1F7DF91CF91089568E081E0CDCFCF938D
:10573000FC01603221F580918003843001F5C09135
:10574000E900CF702091EC00922F917020FD90E83D
:10575000C92B82E08093E9008091E80080FF0CC0B3
:1057600050E040E060E270E0CF010E94932D809114
:10577000E8008E778093E800CF70C093E900CF9166
:10578000089580917F03811109C00E94722F0E94A9
:10579000CF2F8091E20084608093E2000895109200
:1057A0007F030895089508950C948A2542E061ECE2
:1057B00081E00E94EE2E42E261EC84E00E94EE2E37
:1057C00042E261EC82E00E94EE2E42E260EC83E075
:1057D0000C94EE2E80918203833009F461C030F482
:1057E0008130D1F1823009F49DC008958A3009F4E6
:1057F00089C08B3009F46FC0893009F050C08091A6
:105800008103813209F04BC080918503909186031A
:10581000009719F0029709F042C08091E800877F55
:105820008093E8008091E80082FF35C09091F300FA
:105830008091F200029729F48091F1008B7F8130F2
:1058400021F48091F100809329038091E8008B7707
:105850008093E8000C94222F80918103813AF9F41F
:105860008091E800877F8093E80080918503909184
:105870008603892B61F460E289E093E070E00E9486
:10588000312E8091E8008B778093E800089560E0E6
:1058900090E080E0F3CF809180038111C3CF089521
:1058A00080918103813AD9F7809185039091860395
:1058B000892BA9F78091E800877F8093E800809189
:1058C000E80080FFFCCF80912B018093F100809154
:1058D000E8008E77BDCF80918103813201F78091FE
:1058E000850390918603892BD1F68091E800877F0C
:1058F0008093E8000E94222F8091830380932B01E4
:105900000C948C1D80918103813249F68091E800CE
:10591000877F8093E8000E94222F809184038093E8
:105920002A03089580918103813A09F0B8CF8091CC
:10593000E800877F8093E8008091E80080FFFCCF3B
:1059400080912A03C2CFCDB7DEB7A0970FB6F894E7
:10595000DEBF0FBECDBF84B7877F84BF0FB6F8947C
:10596000A89580916000886180936000109260002B
:105970000FBE80E890E00FB6F8948093610090939A
:1059800061000FBE0E9413190E94722F0E94CF2F38
:105990008091E20084608093E20078940E94583203
:1059A0000E941D1981E291E00E94A01813E08091ED
:1059B0008003853039F10E942B1980918003843057
:1059C000B1F71093E9008091E80082FFF0CF809159
:1059D000E80090E085FF09C050E040E060E270E040
:1059E000CE0101960E94E22D91E08091E8008B7734
:1059F0008093E8009923D9F260E2CE0101960E94DB
:105A00003614D5CF0E942D2580917E03882379F20C
:105A10000E947225882359F20E947D2DC8CF0C94D4
:105A2000112D292F33272330310521F168F421303E
:105A3000310509F449C02230310509F44AC090E02B
:105A400080E030E020E029C02132310581F12232AE
:105A50003105A9F76330710590F7FB01EE0FFF1FC9
:105A6000E652FE4F2081318169527E4FFB018081D9
:105A700090E013C099278130910599F0009741F08B
:105A80008230910589F00397D1F6EEE3F6E002C08B
:105A9000EEE7F6E0849190E09F01FA0131832083E4
:105AA0000895E6E5F6E0F6CFE4E4F6E0F3CF633000
:105AB000710528F6660F771FFB01E052FE4F20812B
:105AC000318189E090E0E9CF82E190E02DED36E090
:105AD000E4CF8BE590E022E836E0DFCF80918003D1
