:100000000C94520A0C94990A0C94990A0C94990A2B
:100010000C94990A0C94990A0C94990A0C94990AD4
:100020000C94990A0C94990A0C94E9290C94BC2A12
:100030000C9453210C94990A0C94990A0C94990AE3
:100040000C94990A0C94990A0C94990A0C94990AA4
:100050000C94990A0C94BB210C94990A0C94990A5B
:100060000C94990A0C94990A0C94990A0C94990A84
:100070000C94990A0C94990A0C94990A0C94990A74
:100080000C94990A0C94990A0C94990A0C94990A64
:100090000C94990A0C94990A0C94990A0C94990A54
:1000A0000C94990A0C94990A0C94990A00004E0039
:1000B00063005F00570000006200580004005D000C
:1000C0004A004B00550056005400310059004000D2
:1000D0000900600014002300160012002800190017
:1000E0002A0043002F003F0005002B004C00250094
:1000F00007001C0036001700390020001B0010000C
:100100000B0000000F0038003B003A0015004100D2
:10011000440026000D0027003000000008001E00EB
:1001200037003D00220029000E002D00340045005C
:100130001A001F0033002E0035005200210051002C
:100140001800500011004F002400420000005A0027
:100150005B005E0061000000000001510C005300D4
:10016000000000000000000000000000E3000000AC
:100170001D000A000000000000000000E000E40094
:10018000000000003C00060000000000E200E60065
:10019000000000000000000013003E00E100E50048
:1001A0000000000000000000000000005C002C00C7
:1001B0000000010001000100010000000100010039
:1001C0000100010001000100010001000100010027
:1001D0000100010001000100010001000100010017
:1001E0000100010001000100010001000100010007
:1001F00001000100010001000100010001000100F7
:1002000001000100010000000100010001000100E7
:1002100001000100010001000100010001000000D7
:100220000100010001000100010000700100010057
:100230000100010001000100010001000100367011
:100240000100377001003B7001003A7001000100AD
:100250000000010001000100010000000000010099
:10026000010001000000000000000000000000008C
:10027000010000000100010000000000000000007B
:10028000010001000000000001000100000000006A
:10029000010001000000000000000000010001005A
:1002A00001003570000000000000000000000000A8
:1002B0000100347000000100010001000100000095
:1002C0000100010001000100010001000100010026
:1002D0000100010001000100010001000100010016
:1002E0000100010001000100010001000100010006
:1002F00001000100010001000100010001000100F6
:1003000001000100010001000100000001000100E6
:1003100001000100010001000100010001000100D5
:1003200001000000010001000100010001000100C6
:1003300001000100010001000100010001000100B5
:1003400001000100010001000100010001000100A5
:100350000100010000000100010001000100000097
:10036000000001000100010000000000000000008A
:10037000000000000100000001000100000000007A
:100380000000000001000100000000000100010069
:10039000000000000100010000000000000000005B
:1003A0000100010001000100000000000000000049
:1003B0000000000001000100000001000100010038
:1003C0000100000001000100010001000100010026
:1003D0000100010001000100010001000100010015
:1003E0000100010001000100010001000100010005
:1003F00001000100010001000100010001000100F5
:1004000001000100010001000100010001000000E5
:1004100001000100010001000100010001000100D4
:1004200001000100010000000100010001000100C5
:1004300001000100010001000100010001000100B4
:1004400001000100010001000100010001000100A4
:100450000100010001000100000001000100010095
:100460000100000000000100010001000000000088
:100470000000000000000000010000000100010079
:10048000000000000000000001000100000000006A
:100490000100010000000000010001000000000058
:1004A0000000000001000100010001000000000048
:1004B0000000000000000000010001000000010039
:1004C0000100010001000000010001000100010025
:1004D0000100010001000100010001000100010014
:1004E0000100010001000100010001000100010004
:1004F00001000100010001000100010001000100F4
:1005000001000100010001000100010001000100E3
:1005100001000000010001000100010001000100D4
:1005200001000100010001000100000001000100C4
:1005300001000100010001000100010001000100B3
:1005400001000100010001000100010001000100A3
:100550000100010001000100010001000000010094
:100560000100010001000000000001000100010085
:10057000000000000000000000000000010000007A
:100580000100010000000000000000000100010067
:100590000000000001000100000000000100010057
:1005A0000000000000000000010001000100010047
:1005B0000000000000000000000000000100010039
:1005C0000000010001000100010000000100010025
:1005D0000100010001000100010001000100010013
:1005E0000100010001000100010001000100010003
:1005F00001000100010001000100010001000100F3
:1006000001000100010001000100010001000100E2
:1006100001000100010000000100010001000100D3
:1006200001000100010001000100010001000000C3
:1006300001000100010001000100010001000100B2
:1006400001000100010001000100010001000100A2
:100650000100010001000100010001000100010092
:100660000000010001000100010000000000010085
:100670000100010000000000000000000000000078
:100680000100000001000100000000000000000067
:100690000100010000000000010001000000000056
:1006A0000100010000000000000000000100010046
:1006B0000100010000000000000000000000000038
:1006C0000100010000000100010001000100000024
:1006D0000100010001000100010001000100010012
:1006E0000100010001000100010001000100010002
:1006F00001000100010001000100010001000100F2
:1007000001000100010001000100010001000100E1
:1007100001000100010001000100000001000100D2
:1007200001000100010001000100010001000100C1
:1007300001000000010001000100010001000100B2
:1007400001000100010001000100010001000100A1
:100750000100010001000100010001000100010091
:100760000100010000000100010001000100000083
:100770000000010001000100000000000000000076
:100780000000000001000000010001000000000066
:100790000000000001000100000000000100010055
:1007A0000000000001000100000000000000000047
:1007B0000100010001000100000000000000000035
:1007C0000000000001000100000001000100010024
:1007D0000100000001000100010001000100010012
:1007E0000100010001000100010001000100010001
:1007F00001000100010001000100010001000100F1
:1008000001000100010001000100010001000100E0
:1008100001000100010001000100010001000000D1
:1008200001000100010001000100010001000100C0
:1008300001000100010000000100010001000100B1
:1008400001000100010001000100010001000100A0
:100850000100010001000100010001000100010090
:100860000100010001000100000001000100010081
:100870000100000000000100010001000000000074
:100880000000000000000000010000000100010065
:100890000000000000000000010001000000000056
:1008A0000100010000000000010001000000000044
:1008B0000000000001000100010001000000000034
:1008C0000000000000000000010001000000010025
:1008D0000100010001000000010001000100010011
:1008E0000100010001000100010001000100010000
:1008F00001000100010001000100010001000100F0
:1009000001000100010001000100010001000100DF
:1009100001000100010001000100010001000100CF
:1009200001000000010001000100010001000100C0
:1009300001000100010001000100000001000100B0
:10094000010001000100010001000100010001009F
:10095000010001000100010001000100010001008F
:100960000100010001000100010001000000010080
:100970000100010001000000000001000100010071
:100980000000000000000000000000000100000066
:100990000100010000000000000000000100010053
:1009A0000000000001000100000000000100010043
:1009B0000000000000000000010001000100010033
:1009C0000000000000000000000000000100010025
:1009D0000000010001000100010000000100010011
:1009E00001000100010001000100010001000100FF
:1009F00001000100010001000100010001000100EF
:100A000001000100010001000100010001000100DE
:100A100001000100010001000100010001000100CE
:100A200001000100010000000100010001000100BF
:100A300001000100010001000100010001000000AF
:100A4000010001000100010001000100010001009E
:100A5000010001000100010001000100010001008E
:100A6000010001000100010001000100010001007E
:100A70000000010001000100010000000000010071
:100A80000100010000000000000000000000000064
:100A90000100000001000100000000000000000053
:100AA0000100010000000000010001000000000042
:100AB0000100010000000000000000000100010032
:100AC0000100010000000000000000000000000024
:100AD0000100010000000100010001000100000010
:100AE00001000100010001000100010001000100FE
:100AF00001000100010001000100010001000100EE
:100B000001000100010001000100010001000100DD
:100B100001000100010001000100010001000100CD
:100B200001000100010001000100000001000100BE
:100B300001000100010001000100010001000100AD
:100B4000010000000100010001000100010001009E
:100B5000010001000100010001000100010001008D
:100B6000010001000100010001000100010001007D
:100B7000010001000000010001000100010000006F
:100B80000000010001000100000000000000000062
:100B90000000000001000000010001000000000052
:100BA0000000000001000100000000000100010041
:100BB0000000000001000100000000000000000033
:100BC0000100010001000100000000000000000021
:100BD0000000000001000100000001000100010010
:100BE00001000000010001000100010001000100FE
:100BF00001000100010001000100010001000100ED
:100C000001000100010001000100010001000100DC
:100C100001000100010001000100010001000100CC
:100C200001000100010001000100010001000000BD
:100C300001000100010001000100010001000100AC
:100C4000010001000100000001000100010001009D
:100C5000010001000100010001000100010001008C
:100C6000010001000100010001000100010001007C
:100C7000010001000100010000000100010001006D
:100C80000100000000000100010001000000000060
:100C90000000000000000000010000000100010051
:100CA0000000000000000000010001000000000042
:100CB0000100010000000000010001000000000030
:100CC0000000000001000100010001000000000020
:100CD0000000000000000000010001000000010011
:100CE00001000100010000000100010001000100FD
:100CF00001000100010001000100010001000100EC
:100D000001000100010001000100010001000100DB
:100D100001000100010001000100010001000100CB
:100D200001000100010001000100010001000100BB
:100D300001000000010001000100010001000100AC
:100D4000010001000100010001000000010001009C
:100D5000010001000100010001000100010001008B
:100D6000010001000100010001000100010001007B
:100D7000010001000100010001000100000001006C
:100D8000010001000100000000000100010001005D
:100D90000000000000000000000000000100000052
:100DA000010001000000000000000000010001003F
:100DB000000000000100010000000000010001002F
:100DC000000000000000000001000100010001001F
:100DD0000000000000000000000000000100010011
:100DE00000000100010001000100000001000100FD
:100DF00001000100010001000100010001000100EB
:100E000001000100010001000100010001000100DA
:100E100001000100010001000100010001000100CA
:100E200001000100010001000100010001000100BA
:100E300001000100010000000100010001000100AB
:100E4000010001000100010001000100010000009B
:100E5000010001000100010001000100010001008A
:100E6000010001000100010001000100010001007A
:100E7000010001000100010001000100010001006A
:100E8000000001000100010001000000000001005D
:100E90000100010000000000000000000000000050
:100EA000010000000100010000000000000000003F
:100EB000010001000000000001000100000000002E
:100EC000010001000000000000000000010001001E
:100ED0000100010000000000000000000000000010
:100EE00001000100000001000100010001000000FC
:100EF00001000100010001000100010001000100EA
:100F000001000100010001000100010001000100D9
:100F100001000100010001000100010001000100C9
:100F200001000100010001000100010001000100B9
:100F300001000100010001000100000001000100AA
:100F40000100010001000100010001000100010099
:100F5000010000000100010001000100010001008A
:100F60000100010001000100010001000100010079
:100F70000100010001000100010001000100010069
:100F8000010001000000010001000100010000005B
:100F9000000001000100010000000000000000004E
:100FA000000000000100000001000100000000003E
:100FB000000000000100010000000000010001002D
:100FC000000000000100010000000000000000001F
:100FD000010001000100010000000000000000000D
:100FE00000000000010001000000010001000100FC
:100FF00001000000010001000100010001000100EA
:1010000001000100010001000100010001000100D8
:1010100001000100010001000100010001000100C8
:1010200001000100010001000100010001000100B8
:1010300001000100010001000100010001000000A9
:101040000100010001000100010001000100010098
:101050000100010001000000010001000100010089
:101060000100010001000100010001000100010078
:101070000100010001000100010001000100010068
:101080000100010001000100000001000100010059
:10109000010000000000010001000100000000004C
:1010A000000000000000000001000000010001003D
:1010B000000000000000000001000100000000002E
:1010C000010001000000000001000100000000001C
:1010D000000000000100010001000100000000000C
:1010E00000000000000000000100010064321464F0
:1010F0003214783C1E1E140A050000000001010194
:101100000202030405050607090A0B0C0E0F111253
:10111000141517191B1D1F212325282A2C2F3134A4
:1011200036393B3E414346494C4F5255585A5D6112
:1011300064676A6D707376797C7F8386898C8F9201
:1011400095989B9EA2A5A7AAADB0B3B6B9BCBEC1E7
:10115000C4C6C9CBCED0D3D5D7DADCDEE0E2E4E634
:10116000E8EAEBEDEEF0F1F3F4F5F6F8F9FAFAFB54
:10117000FCFDFDFEFEFEFFFFFFFFFFFFFFFEFEFE8C
:10118000FDFDFCFBFAFAF9F8F6F5F4F3F1F0EEEDFB
:10119000EBEAE8E6E4E2E0DEDCDAD7D5D3D0CECB8A
:1011A000C9C6C4C1BEBCB9B6B3B0ADAAA7A5A29EFC
:1011B0009B9895928F8C898683807C797673706DED
:1011C0006A6764615D5A5855524F4C494643413EE7
:1011D0003B393634312F2C2A282523211F1D1B197A
:1011E00017151412110F0E0C0B0A0907060505043A
:1011F00003020201010100000000000000000101E3
:1012000001010101010101020202020202020202C5
:101210000303030303030303040404040404050594
:101220000505050606060606070707070808080855
:101230000909090A0A0A0A0B0B0B0C0C0C0D0D0DFF
:101240000E0E0F0F0F101011111112121313141490
:10125000151516161717181819191A1A1B1C1C1D04
:101260001D1E1F1F2020212222232425252627275B
:1012700028292A2B2B2C2D2E2F2F30313233343589
:1012800036363738393A3B3C3D3E3F404142434495
:10129000464748494A4B4C4D4F505152535556576B
:1012A000585A5B5C5E5F606263646667696A6C6D16
:1012B0006E707173747678797B7C7E80818384868E
:1012C000888A8B8D8F91929496989A9B9D9FA1A3CB
:1012D000A5A7A9ABADAFB1B3B5B7B9BBBDBFC1C4CD
:1012E000C6C8CACCCFD1D3D6D8DADCDFE1E4E6E891
:1012F000EBEDF0F2F5F7FAFCFF12036B00650079F5
:101300000062006F0061007200640000001603714B
:10131000006D006B006200750069006C0064006580
:1013200000720000000403090409026D00040100BA
:10133000A0FA0904000001030101000921110100C4
:10134000012240000705810308000A090401000189
:1013500003010200092111010001224D000705824D
:101360000308000A0904020001030000000921111A
:101370000100012236000705830308000A0904035F
:1013800000010300000009211101000122390007BA
:101390000584032000011201100100000008EDFE89
:1013A000606001000102000105010906A1010507B5
:1013B00019E029E715002501950875018102050846
:1013C0001901290595057501910295017503910192
:1013D0000507190029F71500250195F87501810207
:1013E000C005010980A10185021601002603001A2B
:1013F00081002A8300751095018100C0050C090148
:10140000A1018503160100269C021A01002A9C02F4
:10141000751095018100C005010902A1010901A112
:10142000000509190129051500250195057501819A
:1014300002950175038101050109300931158125E6
:101440007F95027508810609381581257F950175FC
:10145000088106050C0A38021581257F950175085B
:101460008106C0C005010906A101050719E029E7A9
:101470001500250195087501810295017508810106
:101480000508190129059505750191029501750356
:1014900091010507190029FF150026FF0095067523
:1014A000088100C011241FBECFEFDAE0DEBFCDBF40
:1014B00004B603FE27C08091EA039091EB03A0914C
:1014C000EC03B091ED038730904BA740B04BD1F4C3
:1014D0001092EA031092EB031092EC031092ED03CA
:1014E00014BE84B7877F84BF0FB6F894A895809107
:1014F0006000886180936000109260000FBEE0E0A1
:10150000F8E3099511E0A0E0B1E0E4E2FCE502C0F7
:1015100005900D92A034B107D9F723E0A0E4B1E023
:1015200001C01D92AA3EB207E1F70E9436270C9433
:10153000102E0C94000090E080E008950895089526
:1015400081E0089580FF07C06A9A729881FF05C004
:101550006E9A769808956A98F8CF6E98FACF81E0DF
:1015600008950C94A00A0E94C5192FEF84E39CE013
:10157000215080409040E1F700C000000C94E02131
:10158000FF920F931F93CF93DF938C01FC01C081D7
:10159000D1818091C101811148C08281882309F4E1
:1015A0003FC0CE010E942C1FF82E682FCE010E9452
:1015B000D21EBE018F2D0E945C0CEC01B8010E946E
:1015C000B10A882309F478C0B801CE010E946C0EDC
:1015D000882309F471C0C633F0E7DF0709F484C03B
:1015E000C0F5C53190E7D90728F5C230E0E7DE073E
:1015F00008F099C0C115F0E7DF0709F458C0C13001
:10160000D04709F460C081E0809342018093430198
:10161000C801DF91CF911F910F91FF900C94AF0AF9
:10162000CE010E94011FF82EC4CFCE010E942C1FB4
:10163000BE01C1CFC43390E7D90709F44EC0C5330A
:10164000D04709F7F80182818823B1F10E94541232
:1016500033C0CA33F0E7DF0709F457C070F4F8016C
:101660008281C833F0E7DF0709F44AC008F443C0B9
:10167000882311F10E9498111FC0CC33E0E7DE07E8
:1016800009F4D5C008F448C0CD33D04709F0BBCF2A
:10169000F8018281882309F4F1C0109243010E946D
:1016A0008521909341018093400180E2CDC0F801F3
:1016B000828181110E94B30A80E0DF91CF911F9156
:1016C0000F91FF900895F80182818823A9F38091FA
:1016D0007C02816080937C02EFCFF80182818823B5
:1016E00059F30E945E12E8CFF8018281882321F32A
:1016F0000E944911E1CF8823F9F20E946111DCCFE9
:101700008823D1F20E948011D7CFF80182818823EB
:1017100099F20E94B011D0CFF8018281882361F242
:101720000E94C811C9CFF8018281882309F470CFC3
:101730000E94E420811102C00E94C3200E94012166
:1017400090E09093DC038093DB03FE01E350F047CD
:101750008091DB038160E231F105C8F4EE54F44F6F
:101760000C94C22DC40BD00BD40BD80BDC0BE00BAC
:10177000E40BE80BEC0BF00BF40BF80BFC0B000C80
:10178000040C080C0C0C100C8091DB03826080931D
:10179000DB038091DB030E9405210E94C5198CCFD9
:1017A0008091DB038460F3CF8091DB038860EFCF0F
:1017B0008091DB038061EBCF8091DB038062E7CF18
:1017C0008091DB038064E3CF8091DB038068DFCF0F
:1017D0008091DB038460EACF8091DB038E7FD7CFDB
:1017E0008091DB038D7FD3CF8091DB038B7FCFCFC5
:1017F0008091DB03877FCBCF8091DB038F7EC7CFC8
:101800008091DB038F7DC3CF8091DB038F7BBFCFC4
:101810008091DB038F77BBCF8091DB038B7FEACF97
:101820009091DB03892F97FB87F98058B0CFF8019F
:101830008281882361F0109242010E948521909359
:1018400041018093400182E00E944F1735CF809183
:10185000420181110FC080914001909141010E948D
:101860009121883C910530F486E20E94241686E29C
:101870000E94001782E00E9456171ECF80914301FC
:1018800081110FC080914001909141010E949121EE
:10189000883C910530F487E20E94241687E20E947A
:1018A000001780E2E8CF0C94BB0E0C94BD0E0C9494
:1018B000A20A0C94570C0895972F70E02AE0929F8B
:1018C000600D711D1124FB0192E8899FE00DF11D4F
:1018D0001124EE0FFF1FE455FF4F85919491089559
:1018E000FC01EE0FFF1FE451FF4E85919491089586
:1018F0000E945C0C0E94EB0D811520E4920708F019
:101900008DC0811540E3940708F0E8C0803E910542
:1019100008F071C0803C910508F0CCC0883A910570
:1019200080F4853A910508F0CAC08130910509F428
:101930006EC020F08430910508F069C090E080E02E
:1019400008958D3B9105D0F7883A910509F404C1BB
:10195000893A910509F403C18A3A910509F402C153
:101960008B3A910509F401C18C3A910509F400C143
:101970008B3B910509F4FFC08C3B910509F4FEC037
:101980008D3A910509F4FDC0803B910509F4FCC036
:101990008E3A910509F4FBC08F3A910509F4FAC01B
:1019A000813B910509F4F9C0823B910509F4F8C027
:1019B000833B910509F4F7C0843B910509F4F6C017
:1019C000853B910509F4F5C0863B910509F4F4C007
:1019D000873B910509F4F3C0883B910509F4F2C0F7
:1019E000893B910509F4F1C08A3B910509F4F0C0E7
:1019F00080E094E408958F3F910509F048F4803F1A
:101A0000910508F067C0883E910508F097CF0895CA
:101A1000811520E2920708F05FC00895811543E523
:101A2000940760F5811522E5920708F062C08115E0
:101A300041E5940708F058C0811520E5920708F4A5
:101A400050C09C0154E0369527955A95E1F7922FA6
:101A50009370482F437021E030E002C0220F331F03
:101A60004A95E2F73C68392B86958695837040E26B
:101A7000849FC0011124822B932B0895811545E585
:101A8000940750F4811524E5920708F446C0982F76
:101A90008827846F906A0895811546E5940708F4B5
:101AA00050C09C0130569F702115304108F046CF40
:101AB00090620895805C91090E94700C0895853AA7
:101AC000910509F443C0863A910509F042C082E8C5
:101AD00090E40895906508959F70EECF9927906CDB
:101AE00008959F70906A0895982F8827816F906A53
:101AF0000895AC014370552721E030E002C0220F69
:101B0000331F4A95E2F78695869540E2849FC0018F
:101B10001124822B932B9C680895AC0143705527A8
:101B200021E030E002C0220F331F4A95E2F786958C
:101B3000869540E2849FC0011124822B932B9A68E2
:101B40000895982F882788279F71B2CF81E890E465
:101B5000089583E890E4089582EE94E4089589EE70
:101B600094E408958AEE94E4089585EB94E408954E
:101B700086EB94E4089583EB94E4089584EB94E475
:101B8000089587EB94E408958CEC94E408958DEC2B
:101B900094E4089583E895E408958AE895E4089527
:101BA00082E995E4089584E995E4089581E296E454
:101BB000089583E296E4089584E296E4089585E228
:101BC00096E4089586E296E4089587E296E40895FF
:101BD0008AE296E41CCF8238910549F1B0F4813352
:101BE000910509F45CC048F48932910509F452C0AA
:101BF0008A32910509F458C008958533910509F496
:101C000044C08933910599F00895833E910531F1DF
:101C100038F4803E910591F0823E9105B1F008952F
:101C2000863E910511F1873E910541F1089520917D
:101C3000DB032370C9F080EE90E008952091DB0370
:101C400020FF12C089E390E008952091DB0322FF7A
:101C50000BC024FF2EC090E080E008952091DB03AC
:101C600022FD2AC024FDF7CF08952091DB0323FF36
:101C7000FBCF24FDF0CF87EE90E008952091DB03A9
:101C800023FFF0CF86EE90E008952091DB0325FD41
:101C900016C008952091DB0325FD14C008952091FE
:101CA000DB0326FD12C008952091DB0326FD10C042
:101CB000089583EE90E0089582EE90E0089589E221
:101CC00090E0089585E390E008958AE290E0089519
:101CD00081E390E0C9CF08950F931F93CF938C01B8
:101CE000FB018281811106C0C1E08C2FCF911F9131
:101CF0000F910895C0915101C11125C005311047C0
:101D000099F70E946B0E81E0809351010E9485211A
:101D10009093500180934F0110924401109246011C
:101D200010924501109248011092470110924A0109
:101D30001092490110924C0110924B0110924E01E9
:101D400010924D01D2CF80914F01909150010E948D
:101D50009121883C910540F680914401E82FF0E004
:101D6000EE0FFF1FEB5BFE4F118300838F5F8093AD
:101D70004401C0E0BACF0C949E0A0C949F0A85B728
:101D8000806885BF85B7806885BFAEE1B1E061E05E
:101D900070E08D91E82FE295EF70F0E041A18F7037
:101DA0009B0101C0220F8A95EAF7922F9095942308
:101DB00091A382A1822B82A381E0AB32B80749F7BD
:101DC000A4E1B1E061E070E08D91E82FE295EF7061
:101DD000F0E041A18F709B0101C0220F8A95EAF7C4
:101DE000922F9095942391A382A1822B82A381E0CC
:101DF000AE31B80749F7ECE6F1E0A2E5B1E086E8DC
:101E000091E0119211921D921D928E179F07C9F7B2
:101E10000C94530C4F925F927F928F929F92AF924D
:101E2000BF92CF92DF92EF92FF920F931F93CF93C7
:101E3000DF9302E511E09EE1E92E91E0F92EE80141
:101E4000CC24C394D12C99249394A880B98019826E
:101E50001882D7018D917D01E82FE295EF70F0E0B7
:101E600091A18F70960101C0220F8A95EAF7892F00
:101E7000822B81A382A1822E8094882182A3B0EA42
:101E8000BA95F1F784E1482E81E0582E90E080E089
:101E9000D2017D912D01472F42954F7050E0DA011C
:101EA00090967C90488159817F70D60102C0AA0F1C
:101EB000BB1F7A95E2F7BD01672109F057C0B60153
:101EC000082E02C0660F771F0A94E2F7462B572BA5
:101ED0005983488301968A309105D1F681A18822E1
:101EE00081A282A1282B22A388819981A816B906F4
:101EF00041F0909286010E94852190938801809301
:101F000087012296BBE2EB16B1E0FB0609F09DCFFC
:101F1000809186018823B9F0809187019091880192
:101F20000E949121069778F0ECE6F1E08CE691E0D2
:101F3000D8012D913D918D01219331938A179B07F3
:101F4000B9F7109286010E94550C81E0DF91CF9184
:101F50001F910F91FF90EF90DF90CF90BF90AF90C7
:101F60009F908F907F905F904F90089570E060E019
:101F7000ADCFE82FF0E0EE0FFF1FE459FE4F808158
:101F800091810895089535B1242F2095232335B1EB
:101F9000432B3FB7F894FC01680F791FE617F7074A
:101FA00011F43FBF0895819198E045B9000000C049
:101FB00087FF25B9880F000000C000C000C025B908
:101FC00000C09A9591F7EACF24B1242B24B99B0144
:101FD000220F331F620F731F0E94C30F87EC90E024
:101FE0000197F1F700C00000089540E80C94E40F59
:101FF000CF92DF92EF92FF920F931F93CF93DF93D5
:10200000E901662309F466C0E42EF12CEFEFF0E05D
:10201000E61BF109EE9D8001EF9D100DFE9D100D58
:102020001124212FE12FFF27EE1AFF0A5CE3C52EB2
:10203000D12CB6010E949A2DFB01BC01E69EC00185
:10204000E79E900DF69E900D1124B6010E949A2DE8
:10205000E230F10589F168F4812F262F210F3097A6
:1020600081F0242F461B319761F080E020E040E0B2
:1020700008C0E430F10551F128F1842F861B359713
:10208000A1F7E42FF0E0E750FE4E4491E22FF0E09C
:10209000E750FE4E9491E82FF0E0E750FE4EE491B9
:1020A00049839883EA83DF91CF911F910F91FF902D
:1020B000EF90DF90CF900895862F810FE42F412F6E
:1020C0002E2FDFCFE42FE61B842FF9CF842F462F4E
:1020D000410FD7CF842F242FD4CF88E090E00C94E9
:1020E000D02DAB01BC0188E090E00C94EE2DE9EA24
:1020F000F2E083E080831092AA028FEF82838383D1
:102100006091A9027091AA028091AB029091AC02F9
:102110000C9471108091A902E1EBF2E080FF06C0FF
:1021200062E670E081EB92E00C94F50F1182108270
:102130001282339683E0E73DF807C1F7F1CFE1EB78
:10214000F2E0818360834283339693E0E73DF907B1
:10215000C1F70C948A10EF92FF920F931F93CF93C5
:10216000DF9300D01F92CDB7DEB7182FE92EF62EE1
:10217000042F8091A9029091AA02A091AB02B09184
:10218000AC028093AD029093AE02A093AF02B093E5
:10219000B0028091A90280FF1FC09E012F5F3F4FB8
:1021A000812F9E2D0E94F80F8091AD0210FB87F9C0
:1021B0008093AD0216958091AE028078812BE0FA73
:1021C00087F98093AE02F092AF020093B0024B8188
:1021D00069818A810E949F100F900F900F90DF916C
:1021E000CF911F910F91FF90EF9008950F931F9340
:1021F000CF93DF93EC01062F142F9091A90290FF4B
:1022000043C0892F8E77823021F5CE010E94AB101A
:102210008091A902C0FB87F98093A902C69580919D
:10222000AA028078C82BD0FBC7F9C093AA020093FA
:10223000AB021093AC026091A9027091AA02809146
:10224000AB029091AC02DF91CF911F910F910C9452
:102250007110892F86958F732EE3280F2F732430EA
:1022600018F41091AC02D4CF865C8F73893080F65D
:10227000991F9927991FD091AA02CD2FCC0FC92B56
:10228000D7FBDD27D0F9C4CFDF91CF911F910F91FC
:102290000895E9EAF2E02081221F2227221F3091CF
:1022A000AA02432F440F842F822B37FB992790F9E2
:1022B000089668E671E00E94AE2D438162810C941D
:1022C000F6102091A902221F2227221F3091AA0274
:1022D000432F440F842F822B37FB992790F98830A6
:1022E000910540F4805A9E4F4091AC026091AB0240
:1022F0000C94F610089768E671E00E94AE2DF4CFBA
:102300006091AB02683F90F4685F8091A902881FDA
:102310008827881F9091AA02292F220F97FB9927BF
:1023200090F94091AC02822B0C94F6106FEFEDCF38
:102330006091AB02683090F068508091A902881FCC
:102340008827881F9091AA02292F220F97FB99278F
:1023500090F94091AC02822B0C94F61060E0EDCF26
:102360004091AC02483F90F4485F8091A902881FD9
:102370008827881F9091AA02292F220F97FB99275F
:1023800090F96091AB02822B0C94F6104FEFEDCFD9
:102390004091AC02483090F048508091A902881FCB
:1023A0008827881F9091AA02292F220F97FB99272F
:1023B00090F96091AB02822B0C94F61040E0EDCFC7
:1023C0009091A90290FF3BC09178811126C0926044
:1023D0009093A9026091A9027091AA028091AB0228
:1023E0009091AC020E9471108091A902982F9E7763
:1023F0009230D9F410929E01881F8827881F9091EF
:10240000AA02292F220F97FB992790F94091AC023D
:102410006091AB02822B0C94F610893110F090631E
:10242000D7CF8F73880F982BD3CF982F9695925C28
:102430009F73963108F791E090939E01DDCF089548
:1024400080917C02816080937C0281E080939F0177
:102450000E94E420811104C00E94C3200E947710D2
:102460000E946D106093A9027093AA028093AB0240
:102470009093AC026E7761F40E9477100E946D1009
:102480006093A9027093AA028093AB029093AC026E
:1024900081E080939E018091A90280FF04C086950F
:1024A0008F730C94E01108958091A90286958F7323
:1024B0008F5F893108F081E00C94E0119091A902BE
:1024C000892F8E7F90FF81608093A9026091A9027D
:1024D0007091AA028091AB029091AC020E9471109F
:1024E0008091A90280FF04C086958F730C94E0113F
:1024F00010929E012FEF80E792E0215080409040A3
:10250000E1F700C000000C948A10CF93C82F80918F
:102510009C0190919D010E949121EC2FF0E0EB50E5
:10252000FF4EE491E817190609F010F50E94852185
:1025300090939D0180939C01E0919B01F0E0E75016
:10254000FF4E44918091A902881F8827881F90918F
:10255000AA02292F220F97FB992790F96091AB02CD
:10256000822B0E94AB1080919B018F5F80939B0117
:10257000CF910895CF93C82F8091990190919A019E
:102580000E949121EC2FF0E0EE50FF4EE491E8170D
:10259000190609F0E8F40E94852190939A0180932E
:1025A00099014091AC026091AB02809197019091AA
:1025B00098010E94AB10809197019091980101962B
:1025C00068E671E00E949A2D90939801809397019C
:1025D000CF910895FF920F931F93CF93DF93F82E1F
:1025E00080919501909196010E949121EF2DE695A1
:1025F000F0E0EE50FF4EE491E817190609F088F577
:102600000E9485219093960180939501D0E0C0E0CF
:1026100008E611E09E012F543D4F80919301909167
:1026200094018C0F9D1FB8010E949A2D4091AC021D
:102630006091AB020E94F80F2396C63281E0D80762
:1026400049F70E948A108091930190919401F0FEC5
:102650000EC00196B8010E949A2D90939401809328
:102660009301DF91CF911F910F91FF9008950197F2
:10267000F4CFAF92BF92CF92DF92EF92FF920F937F
:102680001F93CF93DF93C82FFF24FA9480FD02C0DD
:10269000FF24F39480919101909192010E949121E5
:1026A000C695EC2FF0E0E151FF4EE491E8171906D2
:1026B00011F008F053C00E948521909392018093FD
:1026C0009101C1EBD2E010E000E097E0C92ED12CDF
:1026D000198218821A8287E0A82EB12CE12C8091F1
:1026E00090018E0D87FD8E59082E000C990B08174E
:1026F0001907E9F42091AC022A9DC0012B9D900D91
:102700001124B6010E94AE2D462F8091A902881F88
:102710008827881F9091AA02592F550F97FB992758
:1027200090F99E016091AB02852B0E94F80FEF0C8F
:1027300081E0A81AB10899F60F5F1F4F2396023661
:10274000110531F60E948A108091900191E0F912F2
:1027500012C081110EC081E680939001DF91CF916C
:102760001F910F91FF90EF90DF90CF90BF90AF90AF
:1027700008958150F1CF90E00196B8010E94AE2DEE
:10278000EBCFBF92CF92DF92EF92FF920F931F9306
:10279000CF93DF93CDB7DEB7C652D1400FB6F894D2
:1027A000DEBF0FBECDBF182F80918E0190918F019B
:1027B0000E949121E12FF0E0E451FF4EE491E817EF
:1027C000190611F008F07AC00E94852190938F01BC
:1027D00080938E018E010F5F1F4FF12CE12C680159
:1027E000D80111961C9211971C9212961C92B12C32
:1027F0009091000180918D01B99E800D1124823647
:102800000CF081E687FD80E0082E000C990BE8169D
:10281000F906A1F48091A902881F8827881F90914A
:10282000AA02592F550F97FB992790F998014091CB
:10283000AC026091AB02852B0E94F80FB394B7E015
:10284000BB12D6CFEFEFEE1AFE0A0D5F1F4FF2E676
:10285000EF16F10429F621EB32E009E010E052E630
:10286000E52EF12CC801B7010E94AE2DFC01EE0F40
:10287000FF1FE80FF91FEC0DFD1D8181D901119695
:102880008C93119780818C93828112968C930F5F29
:102890001F4F2D5F3F4F0B36110521F70E948A1005
:1028A0009091000180918D019130E9F48A3FBCF450
:1028B00089EF80938D018FEF80930001CA5DDE4F19
:1028C0000FB6F894DEBF0FBECDBFDF91CF911F9141
:1028D0000F91FF90EF90DF90CF90BF9008958150BF
:1028E00080938D01EBCF89362CF088E680938D01A3
:1028F00081E0E2CF8F5FF4CFCF93DF9380918B01A4
:1029000090918C010E949121883E934028F10E9471
:10291000852190938C0180938B0180918901909106
:102920008A0101968170992790938A018093890189
:10293000C1EBD2E09E014091AC026091AB0290E00D
:1029400080E00E94F80F239683E0C73DD80791F7F7
:10295000DF91CF910C948A10DF91CF9108958091EF
:102960009E01882371F18091A90286958F739EE361
:10297000980F9F73943018F482500C9485129AE348
:10298000980F9F73933018F486500C94BA1297E303
:10299000980F9F73963018F489500C94EA1291E3C3
:1029A000980F9F73963018F48F500C9439139BE254
:1029B000980F9F73933018F485510C94C1130C94A5
:1029C0007C1408959093A5018093A4010895E0914B
:1029D000A401F091A501309721F00190F081E02D44
:1029E000099480E00895E091A401F091A501309749
:1029F00021F00280F381E02D09940895E091A40173
:102A0000F091A501309721F00480F581E02D099423
:102A100008952091A2013091A3012817390771F080
:102A20009093A3018093A201E091A401F091A501EC
:102A3000309721F00680F781E02D099408952091C8
:102A4000A0013091A1012817390771F09093A101DD
:102A50008093A001E091A401F091A501309721F0AD
:102A60000084F185E02D0994089508950C9435159E
:102A70000E947C210E94BF0E0E944D220C942012C5
:102A80005F926F927F928F929F92AF92BF92CF92FE
:102A9000DF92EF92FF920F931F93CF93DF93CDB707
:102AA000DEB72A970FB6F894DEBF0FBECDBF0E94E7
:102AB0000A0F97EAA92E91E0B92E10E000E08824D1
:102AC0008394912C502E802F0E94B90F7C01F50128
:102AD000C190D1905F01C816D90609F45EC08091FB
:102AE0007C0281FD0E94C20F90E080E0CE24DF24B2
:102AF0003401082E02C0660C771C0A94E2F7960196
:102B000026213721232B09F443C08E835F82E620E0
:102B1000F72081E0EF2809F480E088870E94852172
:102B20008160782F9A8789874E815F8168858A8541
:102B30000E94FA15000F111FF801E955FE4F808120
:102B4000918168267926718260820E94D0240E9439
:102B5000E7149091A6018917B9F10E94E7148093B8
:102B6000A6012A960FB6F894DEBF0FBECDBFDF9147
:102B7000CF911F910F91FF90EF90DF90CF90BF907A
:102B8000AF909F908F907F906F905F900C94590CB6
:102B900001968A30910509F0ABCF0F5F1F4F0D30C2
:102BA000110509F08FCF8FEF89838A831B820E94E2
:102BB00085218160782F9D838C8349815A816B8127
:102BC0008D810E94FA15C1CF2A960FB6F894DEBF08
:102BD0000FBECDBFDF91CF911F910F91FF90EF906E
:102BE000DF90CF90BF90AF909F908F907F906F902D
:102BF0005F900895CF93DF93CDB7DEB72B970FB6D5
:102C0000F894DEBF0FBECDBF4F83588769877A87A0
:102C10008B871E821D8285E0FE013796DE011196AC
:102C200001900D928A95E1F749815A816B817C81EF
:102C30008D819E812B960FB6F894DEBF0FBECDBF5F
:102C4000DF91CF910C94771C882309F4D8C0823887
:102C500071F40E94E71481FDD2C089E30E94CC1F69
:102C60000E94942089E30E9409200C9494208338C8
:102C700059F40E94E71480FDC2C083E50E94CC1F76
:102C80000E94942083E5EFCF843859F40E94E71422
:102C900082FDB5C087E40E94CC1F0E94942087E487
:102CA000E2CF9CEF980F913A18F40E94CC1FDDCF31
:102CB00090E2980F983050F4877091E001C0990F1E
:102CC0008A95EAF7892F0E944B20CFCF9BE5980F7A
:102CD000933070F4853A31F0863A39F083E890E029
:102CE0000C94091581E890E0FBCF82E890E0F8CFE2
:102CF00098E5980F953108F082C0883A09F440C0F1
:102D0000893A09F440C08A3A09F440C08B3A09F480
:102D100040C08C3A09F440C08B3B09F440C08C3B66
:102D200009F440C08D3A09F440C0803B09F440C02A
:102D30008E3A09F440C08F3A09F440C0813B09F44F
:102D400040C0823B09F440C0833B09F440C0843B4F
:102D500009F440C0853B09F440C0863B09F440C0FB
:102D6000873B09F440C0883B09F440C0893B09F423
:102D700040C08A3B09F440C090E080E00C941F15ED
:102D800082EE90E0FBCF89EE90E0F8CF8AEE90E003
:102D9000F5CF85EB90E0F2CF86EB90E0EFCF83EBC1
:102DA00090E0ECCF84EB90E0E9CF87EB90E0E6CFCA
:102DB0008CEC90E0E3CF8DEC90E0E0CF83E891E005
:102DC000DDCF8AE891E0DACF82E991E0D7CF84E9DC
:102DD00091E0D4CF81E292E0D1CF83E292E0CECFF6
:102DE00084E292E0CBCF85E292E0C8CF86E292E027
:102DF000C5CF87E292E0C2CF8AE292E0BFCF0895CA
:102E0000882309F44BC0823871F40E94E71481FFD3
:102E100045C089E30E94CC1F0E94942089E30E9450
:102E200009200C949420833859F40E94E71480FF01
:102E300035C083E50E94CC1F0E94942083E5EFCF2C
:102E4000843859F40E94E71482FF28C087E40E9466
:102E5000CC1F0E94942087E4E2CF9CEF980F913A18
:102E6000F0F290E2980F983050F4877091E001C032
:102E7000990F8A95EAF7892F0E945120D2CF9BE5BE
:102E8000980F933020F490E080E00C940915885A54
:102E9000853120F490E080E00C941F15089588237C
:102EA00021F00E944B200C9494200895882321F057
:102EB0000E9451200C94942008958F929F92AF927B
:102EC000BF92DF92EF92FF920F931F93CF93DF9306
:102ED0007C01D62FC72FFC01058102950F7012814E
:102EE00011110E946A200E94C51FD82E882371F0FC
:102EF000112321F180E28D0F883000F182E00E94E1
:102F0000AF1F0E94C51F91E0D82ED926EC2FE29565
:102F1000EF70F0E0E257F84E0C94C22DA017A01706
:102F2000F017F01732184E18CD17CD175918CD17C6
:102F3000F118F1186419CD17CD176D19D12CE6CF02
:102F40000C2F0F70C07F11F00295007F1123A9F0A4
:102F5000002359F080E28D0F883010F0D11109C0A4
:102F6000802F0E944B200E9494208D2F0E942416B7
:102F700014C0802F0E945C20F6CF8D2F0E94001776
:102F8000002359F080E28D0F883010F0D11124C059
:102F9000802F0E9451200E949420DD2009F4A4C1BA
:102FA0000E94A21F80FDA0C1F70112820E949C1FF7
:102FB0000E94161EC7010E9480190E949C1FDF916B
:102FC000CF911F910F91FF90EF90DF90BF90AF9046
:102FD0009F908F900C94371E802F0E946220DBCF31
:102FE000FC2FFF70BF2EC07FC03219F0B29480EF6B
:102FF000B822DD2369F0D13029F1112369F10023D2
:1030000059F0F701858180FFB0CF8F70858304C0B0
:10301000112361F0011104C08B2D0E944F17BDCF09
:103020008B2D0130D1F70E947E20B7CF011106C051
:103030000E9481208B2D0E945617AFCF013009F4DA
:10304000ACCFF6CF112321F0063008F0A6CFE4CFA5
:10305000053008F0A2CFEECF002361F38D2F0E9440
:1030600000179BCF8C2F86958695837069F08130F1
:1030700009F093CF8D2F9C2F9370111102C090E017
:1030800080E00E941F1589CF8D2F9C2F9370111106
:1030900002C090E080E00E9409157FCF8D2F1123A0
:1030A00029F00E94D9230E94C52477CF0E94412491
:1030B000FACF8C2F837009F047C011116ECF2D2FDE
:1030C000229526952770220F220F6D2F6F70862E66
:1030D000912CB12CA12C022E04C0880C991CAA1C86
:1030E000BB1C0A94D2F760E070E0CB01D4FF0FC0A4
:1030F0006FE070E080E090E004C0660F771F881FEB
:10310000991F2A95D2F76095709580959095C695F0
:10311000C695C370C23051F080F4682979298A2994
:103120009B29C13071F00E94BF1D37CF68297929D2
:103130008A299B290E94DB1D30CF0E94BF1DC5013B
:10314000B4010E94A31D29CF8695112311F08C2F65
:103150008170882309F421CF2D2F22952695277081
:10316000220F220F6D2F6F70862E912CB12CA12C67
:10317000022E04C0880C991CAA1CBB1C0A94D2F70E
:1031800060E070E0CB01D4FF0FC06FE070E080E042
:1031900090E004C0660F771F881F991F2A95D2F709
:1031A0006095709580959095C695C695C370C23010
:1031B00051F080F4682979298A299B29C13071F05E
:1031C0000E94991EEACE682979298A299B290E94A2
:1031D000B51EE3CE0E94991EC501B4010E947D1E5A
:1031E000DCCEE0E2ED0FE53108F062C0F0E0E55042
:1031F000F74E0C94C22D101910191019101910192E
:103200001019101910191019101910191019101976
:103210001019101910191D192B19321939194319C0
:10322000DF708C2F8F71112321F00E94161E8D2FBD
:10323000F4CE0E94371E8D2FFECE112341F00530B3
:1032400008F0ABCE8C2F8F710E945C1EA6CE06308C
:1032500008F0A3CEF7CF8C2F8F71112339F00E9485
:10326000161E9BCE8C2F8F711123C9F30E94371E1F
:1032700094CE112329F08C2F8F710E94011E8DCEC8
:103280000E94F71D8ACE112349F0CF718C2F0E9426
:10329000161E63E08C2F0E94A61F7FCE81E00E9445
:1032A000AF1F023008F479CE82E00E94AF1F75CEC6
:1032B000112329F0011159CE8C2F8F71D0CF01111C
:1032C000CDCE8C2F8F71D2CF4C2F4F706D2FC70169
:1032D0000E949B0A0E94201D60CE4C2F4F706D2FC4
:1032E000C7010E945B0C59CEDF91CF911F910F91C6
:1032F000FF90EF90DF90BF90AF909F908F900895D8
:103300000F931F93CF93DF93EC01988189812B81D9
:103310003C81232B39F08F3F19F481E09F3F19F056
:1033200080E001C081E080FD17C0CE010E94C00A8C
:10333000882391F0688179818A810E94781F8C01AD
:103340000E94D11E0E94981DB801CE01DF91CF913D
:103350001F910F910C945D17DF91CF911F910F91E9
:1033600008950E946A200E947B200E943D200E94B6
:1033700094200E9472250E94C52490E080E00E9463
:10338000091590E080E00C941F150E9459200C94C0
:10339000B1190E946E1FE92FE295EF70E250EE30F6
:1033A000E0F4F0E0EA52F64E0C94C22DE419E41970
:1033B000ED19ED19EF19ED19ED19ED19E419E419ED
:1033C000F419ED19ED19F419803F19F020F4803E3D
:1033D00020F481E00895843FE1F380E00895803E89
:1033E000C0F3813FD1F7F5CF93FB882780F908958B
:1033F000CF93DF9300D000D01F92CDB7DEB70F90F0
:103400000F900F900F900F90DF91CF910895CF9371
:10341000DF9300D000D000D0CDB7DEB726960FB630
:10342000F894DEBF0FBECDBFDF91CF9108951F93FB
:10343000CF93DF93C091C20116E08091C3018C133A
:1034400004C0DF91CF911F910895D0E01C9FF0013F
:103450001D9FF00D1124EC53FE4F4081518162817C
:103460007381848195810E94071A2196C770E5CFE8
:103470004091F4015091F5016091F6017091F701CE
:103480008091F8019091F9010C94071A1F93CF9342
:10349000DF938091F901807FD1F48091F601882338
:1034A000B1F08091C201D091C301B091F401C091FB
:1034B000F5014091F7015091F801A1E0BF3F09F0FB
:1034C000A0E0BA016095709516E0D81304C0DF91B2
:1034D000CF911F91089521E04115510521F02A2F28
:1034E000CF3F09F020E090E020FD38C0189FF001A8
:1034F000199FF00D1124EC53FE4F21812C132EC087
:1035000020812B132BC02281211128C023813481DB
:103510002417350700F1241B350B283C3105F0F446
:103520002091F9012F7020612093F90126E0289F56
:10353000F001299FF00D1124E753FE4F80818F7019
:103540008061808384EF91E00E948019DF91CF91A8
:103550001F910C94171A260F371FDFCF0196877023
:10356000B4CFAF92BF92CF92DF92EF92FF920F93C0
:103570001F93CF93DF93CDB7DEB761970FB6F89463
:10358000DEBF0FBECDBF8C0185E0F801DE011D96C8
:1035900001900D928A95E1F7D8014C9111965C91BA
:1035A00011971296EC903091F4016091F5018091A1
:1035B000F7019091F80121E0009731F06F3F19F485
:1035C00021E03F3F09F020E0B22FB170BB2E20FD7B
:1035D00080C1F801C380D480A090F601AA2009F42C
:1035E00027C1C816D906D0F1D601A81BB90BCD0149
:1035F000FF24F394883C910508F0F12C8091F901A7
:10360000982F907FFF2009F4CAC0911187C0FE2C2B
:10361000651329C0341327C0E11025C08F70806165
:103620008093F9010E94381A84EF91E00E9480197A
:103630008091F901F80185838F2D61960FB6F8947A
:10364000DEBF0FBECDBFDF91CF911F910F91FF90D5
:10365000EF90DF90CF90BF90AF90089580959095B8
:103660008C0D9D1DC5CF81E0CD2831F05F3F19F451
:1036700081E04F3F09F080E080FD24C081E08E258D
:10368000F82FF170DF2E80FF3FC08091C2012091A2
:10369000C30136E0821318C04D875E878D859E85F5
:1036A0000E946E1F292F22952F70223008F124309E
:1036B00030F59F7009F1D80115969C91907FE1F447
:1036C000FB2CBACF80E0DCCF90E0389FF001399F2F
:1036D000F00D1124EC53FE4F6181561306C060813A
:1036E000461303C062816E110FC001968770D2CF5E
:1036F0009F7011F0882321F3805E883008F3C801A1
:103700000E948019BD2CDCCFEE2009F495CF80916A
:10371000F90181608093F901F12C8ECF651312C0FD
:10372000341310C0E1100EC0F8018583C8010E9457
:10373000801986E0F801A4EFB1E001900D928A951E
:10374000E1F741C04D875E878D859E850E94C9192E
:10375000882309F4C8C0EE2009F4C5C08091F9019E
:10376000803270F02091F4013091F50138872F8379
:103770001986DB86CA868C87CE0107960E9480193F
:1037800086E0F801A4EFB1E001900D928A95E1F78F
:103790000E94461A0E94381AFF24F3944DCF9111CB
:1037A00015C07C2DD98AC88A6E2D89890E94F81986
:1037B00084EF91E00E94801986E0E4EFF1E0DF0100
:1037C0001D928A95E9F70E94381A36CF651312C008
:1037D000341310C0E1100EC0F8018583C8010E94A7
:1037E0008019E4EFF1E086E0DF011D928A95E9F7A8
:1037F000FA2C22CF4D875E878D859E850E94C91940
:10380000882309F470C0EE2009F46DC08091F9019D
:10381000803208F4B5CF2091F4013091F5013A835C
:1038200029831B82DD82CC828E83CE010196A6CFB6
:10383000C816D90638F1F601E81BF90BCF01F12CB7
:10384000883C910508F03DC0FE2CEE2009F44BC0E9
:10385000651326C0341324C08091F90180FD17C080
:10386000982F907FA1F0D80115968C931597903FD3
:1038700009F45CCF982F907F905F8F70892B1596FD
:103880008C9354CF809590958C0D9D1DD8CF86E05C
:10389000F801A4EFB1E001900D928A95E1F7CCCE4A
:1038A0004D875E878D859E850E94C919811168CFDD
:1038B0008091F90181608093F901C8010E9480190B
:1038C000BBCE7C2DD98AC88A6E2D89890E94F819B1
:1038D00073CFEE2041F04D875E878D859E850E94D7
:1038E000C91981114DCFC8010E94801955CF1F936E
:1038F000CF93DF93CDB7DEB72C970FB6F894DEBF2A
:103900000FBECDBF4F83588769877A878B879C8787
:10391000CE0107960E94B11A882309F442C09F8104
:1039200088852A853B85232B39F08F3F19F481E068
:103930009F3F19F080E001C081E080FD08C04F8109
:10394000588569857A858B859C850E94071A16E0C3
:103950008091C2019091C301891709F467C0819FCA
:10396000C00111248C539E4F0E94B11A882309F480
:103970005DC0E091C2011E9FF0011124EC53FE4F87
:103980004081518162817381848195810E94071AEF
:103990008091C20190E00196877099278093C201BF
:1039A000D7CF86E0FE013796DE01119601900D9289
:1039B0008A95E1F79F8188852A853B85232B39F0FD
:1039C0008F3F19F481E09F3F19F080E001C081E052
:1039D00080FDBDCF2091C30130E0C9010196877001
:1039E00099274091C2014817190699F096E0929FD5
:1039F000D001939FB00D1124AC53BE4FFE01319600
:103A000001900D929A95E1F78093C3010E94171AD5
:103A10009ECF0E94C5191092C3011092C20186E088
:103A2000E4EFF1E0DF011D928A95E9F72C960FB6DD
:103A3000F894DEBF0FBECDBFDF91CF911F910895E7
:103A4000EF92FF920F931F93CF93DF938C01892BFB
:103A500081F0F12CEE24E394E8012196F8018491A1
:103A6000843770F4843008F05FC08130B1F0823068
:103A7000A1F1DF91CF911F910F91FF90EF900895E9
:103A8000853709F44CC008F43DC09CE7980F903787
:103A900080F78F770E94001749C00E5F1F4FFE010D
:103AA000849190E2980F983060F48770FE2D01C0E9
:103AB000FF0F8A95EAF78F2F0E946D200E949420B5
:103AC00002C00E9424168F2D815030F2EFE9FFE0F2
:103AD0003197F1F700C00000F7CF0E5F1F4FFE01D6
:103AE000849190E2980F983050F48770FE2D01C0B9
:103AF000FF0F8A95EAF78F2F0E947320DFCF0E9475
:103B00000017E1CF0E5F1F4FFE01C491C150D8F2E4
:103B10008FE99FE00197F1F700C00000F7CF0E5F3B
:103B20001F4FFE01F490CFCF0E9424168E01CBCF01
:103B300008956093530270935402809355029093BA
:103B400056020C94B1190F931F93009153021091D8
:103B500054022091550230915602DC01CB01802B9A
:103B6000912BA22BB32B8093530290935402A093DA
:103B70005502B09356021F910F910C94B1190F93F7
:103B80001F930091530210915402209155023091DD
:103B90005602DC01CB0180239123A223B32380931F
:103BA000530290935402A0935502B09356021F9172
:103BB0000F910C94B1190F931F9300915302109120
:103BC00054022091550230915602DC01CB0180272E
:103BD0009127A227B3278093530290935402A09376
:103BE0005502B09356021F910F910C94B119109287
:103BF0004F021092500210925102109252020C94F5
:103C0000B11941E050E060E070E004C0440F551F7E
:103C1000661F771F8A95D2F740934F025093500248
:103C200060935102709352020C94B11941E050E03C
:103C300060E070E004C0440F551F661F771F8A952F
:103C4000D2F780914F0290915002A0915102B09111
:103C50005202842B952BA62BB72B80934F02909367
:103C60005002A0935102B09352020C94B11941E05A
:103C700050E060E070E004C0440F551F661F771FDE
:103C80008A95D2F7409550956095709580914F0236
:103C900090915002A0915102B09152028423952339
:103CA000A623B72380934F0290935002A093510212
:103CB000B09352020C94B11941E050E060E070E022
:103CC00004C0440F551F661F771F8A95D2F7809155
:103CD0004F0290915002A0915102B091520284275C
:103CE0009527A627B72780934F0290935002A09361
:103CF0005102B09352020C94B1190F931F9300918B
:103D00004F02109150022091510230915202DC0179
:103D1000CB01802B912BA22BB32B80934F0290933E
:103D20005002A0935102B09352021F910F910C9434
:103D3000B1190F931F9300914F02109150022091DF
:103D4000510230915202DC01CB0180239123A22346
:103D5000B32380934F0290935002A0935102B093EB
:103D600052021F910F910C94B1190F931F93009160
:103D70004F02109150022091510230915202DC0109
:103D8000CB0180279127A227B32780934F029093DE
:103D90005002A0935102B09352021F910F910C94C4
:103DA000B11908952AE0929F800D1124982F9770E1
:103DB00071E001C0770F9A95EAF78695869586950A
:103DC00025E0829FC001112450E040E0A62FB0E022
:103DD000FC01E40FF51FE650FE4F60819D01042EAB
:103DE00002C0369527950A94E2F72170219526277F
:103DF0002723262720834F5F5F4F4530510541F72A
:103E000008952AE0929F800D1124982F977086952F
:103E10008695869525E0829FA001112470E060E0E0
:103E200080E0FA01E60FF71FE650FE4F208130E0F8
:103E3000092E02C0369527950A94E2F721703327A0
:103E4000062E01C0220F0A94EAF7822B6F5F7F4F84
:103E50006530710531F70895BF92CF92DF92EF92EE
:103E6000FF920F931F93CF93DF938C01C0904F026B
:103E7000D0905002E0905102F09052028091530293
:103E800090915402A0915502B0915602C82AD92AA5
:103E9000EA2AFB2ACFE1D0E0BC2ED701C6010C2EC6
:103EA00004C0B695A795979587950A94D2F780FD9B
:103EB0000EC0219788F7B12C8B2DDF91CF911F91E8
:103EC0000F91FF90EF90DF90CF90BF900895B801D1
:103ED0008C2F0E94780C019761F3EECFCF93DF9384
:103EE000EC010E942C1FBE01DF91CF910C94780C45
:103EF0001F93CF93DF93EB019091C101992331F090
:103F0000CB01DF91CF911F910C946E1F882379F024
:103F1000CB010E942C1F182F682FCE010E94D21EA9
:103F2000BE01812FDF91CF911F910C94780CCB01B2
:103F30000E94011F182FF4CF809157028595859517
:103F400085950895809157028770089598E0899F1C
:103F500090011124622B609357020C94161E9091CD
:103F600057028095892380935702282F277061F488
:103F7000282F082E000C330B9217130629F0859575
:103F8000859585950C94371E0895909157029770EA
:103F900081E009F480E00895909113019923E1F004
:103FA0009091DB0397FF18C0E82FE695E695E6951C
:103FB000EF3139F12091010130910201E20FF32F2D
:103FC000F11D877021E030E001C0220F8A95EAF7E9
:103FD0008181822B8183089520910101309102011A
:103FE000F90132969FEF40E05191851751F09F3FC4
:103FF00019F4511101C0942F4F5F4E31A9F79F3F23
:1040000009F40895290F311D97FD3A95F90182832E
:104010000895909113019923F1F09091DB0397FF9C
:104020001AC0E82FE695E695E695EF3129F1209143
:10403000010130910201E20FF32FF11D282F2770AB
:1040400081E090E001C0880F2A95EAF78095918180
:104050008923818308952091010130910201F901A2
:104060003296205E3F4F9191891303C0DF01119773
:104070001C92E217F307B9F7089581E090E0E09110
:104080000101F0910201E80FF91F108201968032C0
:104090009105A9F7089590917B02892B80937B026B
:1040A0000895982F909580917B02892380937B02BD
:1040B000089510927B02089590917A02892B809343
:1040C0007A020895982F909580917A02892380939F
:1040D0007A02089510927A02089590917902892BBC
:1040E000809379020895982F909580917902892381
:1040F000809379020895109279020895809358026E
:104100000895109258020895209101013091020102
:10411000F9013196205E3F4F80E0919191118F5FC0
:10412000E217F307D1F70895E0910101F091020140
:1041300080917B028083E0910101F09102018081F6
:1041400090917A02892B8083E0910101F091020124
:10415000808190917902892B8083909158029923D4
:1041600061F0E0910101F09102018081892B80834F
:104170000E94842081111092580280910101909137
:1041800002010C94F3146DEE7EEF90E080E00E944B
:10419000FA2D60E082E090E00E94DC2D60E083E098
:1041A00090E00E94DC2D60E084E090E00E94DC2D35
:1041B00060E085E090E00E94DC2D40E050E0BA0134
:1041C00088E090E00C94EE2D90E080E00E94D62DE7
:1041D00021E08D3E9E4F09F020E0822F089582E07D
:1041E00090E00C94C82D682F82E090E00C94DC2DB8
:1041F00083E090E00C94C82D682F83E090E00C944D
:10420000DC2D84E090E00C94C82D682F84E090E0D1
:104210000C94DC2D8091E103843039F110927D0201
:1042200088E190E020E40FB6F894A89580936000B0
:104230000FBE2093600080E00E94590C83B7817FFD
:10424000846083BF83B7816083BF7894889583B788
:104250008E7F83BF0FB6F894A89580916000886127
:1042600080936000109260000FBE08950895089535
:10427000CF930E9436210E940A0F0E943721C0E08E
:104280008C2F0E94B90F892B31F4CF5FCD30C1F74D
:1042900080E0CF91089581E0FCCF0E94C5190E9473
:1042A000E7140C94590C1F920F920FB60F92112421
:1042B0008F939F93AF93BF9380917D02811113C021
:1042C0008091D7039091D803A091D903B091DA03DC
:1042D0004196A11DB11D8093D7039093D803A0935D
:1042E000D903B093DA03BF91AF919F918F910F9053
:1042F0000FBE0F901F90189582E084BD93E095BD8E
:104300009AEF97BD80936E0008952FB7F89480912F
:10431000D7039091D803A091D903B091DA032FBFAE
:104320000895CF92DF92EF92FF920F931F932FB7D2
:10433000F8944091D7035091D8036091D9037091BC
:10434000DA032FBF6A017B01EE24FF248C0130E0E9
:1043500020E0C016D106E206F30650F0481B590BC8
:10436000CA011F910F91FF90EF90DF90CF900895B9
:1043700041505109F3CF1F920F920FB60F921124A3
:104380008F939F93AF93BF938091D7039091D8035E
:10439000A091D903B091DA030196A11DB11D8093BC
:1043A000D7039093D803A093D903B093DA03BF91B6
:1043B000AF919F918F910F900FBE0F901F90189506
:1043C0000E946E29F8942FEF87EA91E621508040F1
:1043D0009040E1F700C0000087E090EBDC018093A3
:1043E000EA039093EB03A093EC03B093ED0388E111
:1043F0009CE00FB6F894A895809360000FBE909350
:104400006000FFCFAF92BF92CF92DF92EF92FF9208
:104410000F931F93CF93C0E0CC24C394D12CE82EEC
:10442000F12C8C2F0E94B90F5C0110E000E0C60156
:10443000002E02C0880F991F0A94E2F78A219B215F
:10444000892B99F40F5F1F4F0A30110581F7CF5F59
:10445000CD3039F780E0CF911F910F91FF90EF9011
:10446000DF90CF90BF90AF900895602F7C2F80E0B9
:104470000E945C0CE816F90629F781E0ECCFCF9397
:10448000C82F8CE20E940222882321F08C2FCF912A
:104490000C94022280E0CF910895CF930E94E420F3
:1044A000811102C00E94C320C5E608C00E940A0F05
:1044B0008FE39CE90197F1F700C00000C150B1F70C
:1044C00089E20E943F228111EFC08AE20E943F22CE
:1044D00081110E94C32085E00E943F2281110E9429
:1044E000E0210E94EF2080937C0287E00E943F221F
:1044F000882371F08BE10E943F22882309F4B1C028
:1045000090917C02892F8D7F91FF826080937C0245
:1045100080917C020E94F3200E94012190E0909300
:10452000DC038093DB0380EE0E943F22882341F06E
:104530009091DB03892F8E7F90FF81608093DB0356
:1045400089E30E943F22882341F09091DB03892F69
:104550008D7F91FF82608093DB0382EE0E943F2279
:10456000882341F09091DB03892F8B7F92FF846039
:104570008093DB0386EE0E943F22882341F09091D6
:10458000DB03892F877F93FF88608093DB0383EEB3
:104590000E943F22882341F09091DB03892F8F7E78
:1045A00094FF80618093DB0385E30E943F22882390
:1045B00041F09091DB03892F8F7D95FF806280937E
:1045C000DB0381E30E943F22882341F09091DB03CB
:1045D000892F8F7B96FF80648093DB0381E10E94AB
:1045E0003F22882341F09091DB03892F97FB87F9C5
:1045F00080588093DB038091DB030E94052187E2D2
:104600000E943F22C82F8EE10E943F228111C2608A
:104610008FE10E943F228111C46080E20E943F220C
:104620008111C86081E20E943F228111C06182E253
:104630000E943F228111C06283E20E943F228111C9
:10464000C06484E20E943F22882341F1C0688C2F1D
:104650000E94FC206C2F70E090E080E0CF910C94E1
:10466000991D8EE00E943F22882339F090917C02B0
:10467000892F8B7F92FF846049CF80E10E943F2287
:1046800090917C02882329F0892F877F93FF88608F
:104690003DCF892F8E7F90FF816038CFC111D7CF5A
:1046A0000E94F820682FD7CFCF9108958091800283
:1046B00080FF12C06091060185E0689FB00111245F
:1046C000759567957595679560387105A8F56115BD
:1046D0007105A1F1862F089581FF09C0609106013F
:1046E00085E0689FB001112475956795EDCF82FF35
:1046F00007C06091060185E0689FB0011124E4CFF6
:10470000209181022223A9F0909105016091060178
:1047100085E0689FB00111242917B0F6269FA001FB
:10472000279F500D1124692F70E0CA010E94AE2D01
:10473000CBCF65E070E0CECF8FE7089581E008959C
:104740008091800280FF0CC06091040170E075953B
:104750006795759567956115710549F1862F0895DF
:1047600081FF06C06091040170E075956795F3CFF5
:104770006091040182FD0BC0909181029923A1F008
:104780006091030180910401961738F0682F70E062
:104790006038710500F38FE70895899FC0011124E7
:1047A00070E00E94AE2DF4CF61E070E0D7CF81E0E1
:1047B0000895803F31F40E945623819580938402AE
:1047C0000895813F19F40E945623F8CF823F31F4B7
:1047D0000E9456238195809383020895833F19F4A4
:1047E0000E945623F8CF893F29F40E94A02380938A
:1047F000850208958A3F21F40E94A0238195F7CF76
:104800008B3F31F40E94A023819580938602089506
:104810008C3F19F40E94A023F8CF843F31F480919B
:1048200082028160809382020895853F21F4809105
:1048300082028260F7CF863F21F4809182028460F9
:10484000F1CF873F21F4809182028860EBCF883FCF
:1048500021F4809182028061E5CF8D3F31F4809117
:10486000800281608093800208958E3F21F48091C0
:1048700080028260F7CF8F3FB9F780918002846019
:10488000F1CF803FC1F48091840287FD10928402B1
:104890008091830281110EC08091840281110AC02F
:1048A00080918502811106C080918602811102C02B
:1048B000109281020895813F29F480918402181694
:1048C0002CF3E6CF90918302823F29F497FFE0CF4B
:1048D00010928302DDCF833F19F41916CCF3D8CFA1
:1048E000893F39F480918502181694F6109285025A
:1048F000CFCF8A3F29F48091850287FFC9CFF6CFB9
:104900008B3F39F48091860287FFC2CF10928602D6
:10491000BFCF8C3F29F4809186021816BCF3B8CF24
:10492000843F31F4809182028E7F80938202B0CFE7
:10493000853F21F4809182028D7FF7CF863F21F45D
:10494000809182028B7FF1CF873F21F48091820298
:10495000877FEBCF883F21F4809182028F7EE5CF65
:104960008D3F31F4809180028E7F8093800290CFC2
:104970008E3F21F4809180028D7FF7CF8F3F09F029
:1049800087CF809180028B7FF0CF82E892E00E94F7
:10499000FE140E94852190937F0280937E020895E9
:1049A0001F93CF93DF9380917E0290917F020E94AC
:1049B0009121AC01909181022091070130E0911189
:1049C00006C0209108018AE0289F90011124421717
:1049D000530780F080918302C09184021091850278
:1049E000D091860281110AC0C11178C0111176C020
:1049F000D11174C0DF91CF911F9108959F3F19F09D
:104A00009F5F90938102181624F40E94562380938E
:104A100083028091830287FF05C00E9456238195FF
:104A2000809383021C1624F40E94562380938402F0
:104A30008091840287FF05C00E9456238195809350
:104A4000840260918302662331F1C0918402CC23F9
:104A500011F1062E000C770B880B990B0E94A12CEC
:104A600023E333E343E35FE30E94052D0E94692CB7
:104A7000609383026C2FCC0F770B880B990B0E94ED
:104A8000A12C23E333E343E35FE30E94052D0E945F
:104A9000692C60938402111624F40E94A023809351
:104AA00085028091850287FF05C00E94A023819521
:104AB000809385021D1624F40E94A0238093860211
:104AC0008091860287FF05C00E94A0238195809374
:104AD0008602DF91CF911F910C94C5249F3F09F06E
:104AE0008FCFA0CF85E0E2E8F2E0DF011D928A954A
:104AF000E9F7109281021092800208958091A70236
:104B00000895CF93DF9300D01F92CDB7DEB79C01FD
:104B10008091E103843019F593E099833B832A83E4
:104B20009093E9008FEF9091E800815095FD06C0C9
:104B300095ED9A95F1F700008111F5CF8091E8008D
:104B400085FF0DC050E040E063E070E0CE010196CB
:104B50000E94DE278091E8008E778093E8000F9016
:104B60000F900F90DF91CF910895CF93DF9300D0F6
:104B70001F92CDB7DEB72091E103243031F522E05A
:104B80002983805891099B838A8383E08093E9007D
:104B90008FEF9091E800815095FD06C095ED9A95B4
:104BA000F1F700008111F5CF8091E80085FF0DC07D
:104BB00050E040E063E070E0CE0101960E94DE2705
:104BC0008091E8008E778093E8000F900F900F900F
:104BD000DF91CF9108959C018091E1038430F9F435
:104BE00082E08093E9009FEF8091E800915085FD7D
:104BF00006C085ED8A95F1F700009111F5CF8091FF
:104C0000E80085FF0CC050E040E065E070E0C901BD
:104C10000E94DE278091E8008E778093E800089557
:104C2000CF93DF93EC018091E1038430F1F4909114
:104C300013019923E9F09091DB0397FF19C080934A
:104C4000E9008FEF9091E800815095FD06C095E155
:104C50009A95F1F700008111F5CF8091E80050E0BE
:104C600040E060E270E085FD1AC0DF91CF910895C9
:104C700081E08093E9008FEF9091E800815095FDED
:104C800006C095ED9A95F1F700008111F5CF80915E
:104C9000E80085FFEACF50E040E068E070E0CE0138
:104CA0000E94DE278091E8008E778093E80080E202
:104CB000FE01A7E8B2E001900D928A95E1F7D5CF09
:104CC0008091E003811109C00E946E290E94CB29C6
:104CD0008091E20084608093E20008951092E003E6
:104CE0000895089508950C944D2142E061EC81E00F
:104CF0000E94EC2842E061EC82E00E94EC2842E055
:104D000061EC83E00E94EC2842E261EC84E00C94C8
:104D1000EC288091E303833009F455C030F48130EE
:104D200071F1823009F491C008958A3009F47DC090
:104D30008B3009F463C0893009F044C08091E203EC
:104D4000813209F03FC08091E6039091E70300971C
:104D500011F00397B9F58091E800877F8093E80010
:104D60008091E80082FF2AC08091F1008093A70221
:104D70008091E8008B778093E8000C942029809143
:104D8000E203813AF9F48091E800877F8093E8009C
:104D90008091E6039091E703892B61F460E287E854
:104DA00092E070E00E942D288091E8008B7780933C
:104DB000E800089560E090E080E0F3CF8091E103A7
:104DC0008111CECF08958091E203813AD9F7809185
:104DD000E6039091E703892BA9F78091E800877F8C
:104DE0008093E8008091E80080FFFCCF8091130160
:104DF0008093F1008091E8008E77BDCF8091E2032F
:104E0000813201F78091E6039091E703892BD1F677
:104E10008091E800877F8093E8000E94202980919C
:104E2000E403809313010C94C5198091E20381324D
:104E300049F68091E800877F8093E8000E9420294E
:104E40008091E5038093A80208958091E203813A5E
:104E500009F0B8CF8091E800877F8093E8008091C7
:104E6000E80080FFFCCF8091A802C2CF84B7877F83
:104E700084BF0FB6F894A8958091600088618093F4
:104E80006000109260000FBE80E880936100109275
:104E900061000E9436150E946E290E94CB298091E4
:104EA000E20084608093E20078940E944D2C0E947E
:104EB000381589E091E00E94E2148091E103853089
:104EC00029F00E9440150E94AF14F7CF0E940A21DA
:104ED0008091DF03882389F30E943821882369F3B6
:104EE0000E94C827EACF292F33272330310579F1D3
:104EF00058F421303105F1F02230310519F190E0FC
:104F000080E030E020E01AC02132310599F12232F0
:104F10003105A9F7643098F770E0FB01EE0FFF1F31
:104F2000E15DFE4F20813181655D7E4FFB01808117
:104F300090E004C082E190E026E933E1FA01318398
:104F4000208308958DE690E029E233E1F7CF992799
:104F50008130910561F028F0029789F6E9EFF2E1DE
:104F600002C0E5E2F3E1849190E09F01E7CFEDE03C
:104F7000F3E1F9CF643008F0C2CFE62FF0E0EE0F96
:104F8000FF1FE95CFE4F2081318189E090E0D6CFA0
:104F900080E189BD82E189BD09B400FEFDCF809129
:104FA000D8008F7D8093D8008091E000826080934C
:104FB000E0008091E00081FDFCCF0895AF92BF92A8
:104FC000CF92DF92FF920F931F93CF93DF936C01E9
:104FD000EB018A010E943F29F82E811123C001159F
:104FE000110539F0F80180819181C81BD90BC80ED9
:104FF000D91EB12CA12C2097A9F08091E80085FD45
:1050000022C08091E8008E778093E8000115110599
:10501000A1F0F80180819181A80EB91EB182A08211
:1050200085E0F82E8F2DDF91CF911F910F91FF908A
:10503000DF90CF90BF90AF9008950E943F298823C2
:10504000D1F2F82EEFCFF60181916F018093F1003C
:105050002197FFEFAF1ABF0ACECFFC018091E80382
:105060009091E90386179707A0F06115710529F45F
:105070009091E8009E779093E80090E061157105AB
:1050800051F4911108C08091E80082FF35C080E0A2
:105090000895BC01F2CF8091E1038823C9F18530E6
:1050A000C9F18091E80083FD31C08091E80082FD64
:1050B000EACF8091E80080FFE1CF2091F30080915A
:1050C000F200322F282F6115710519F028303105B3
:1050D00058F091E02830310509F090E02091E80087
:1050E0002E772093E800CACF81918093F100615020
:1050F00071092F5F3F4FE7CF8091E103882341F093
:10510000853041F08091E80083FFBDCF81E00895B4
:1051100082E0089583E00895FC018091E803909176
:10512000E90386179707A0F06115710529F48091AE
:10513000E8008E778093E80090E06115710551F4E6
:10514000911108C08091E80082FF36C080E0089588
:10515000BC01F2CF8091E1038823D1F18530D1F1F8
:105160008091E80083FD32C08091E80082FDEACFA3
:105170008091E80080FFE1CF2091F3008091F20060
:10518000322F282F6115710519F02830310558F09C
:1051900091E02830310509F090E08091E8008E77A9
:1051A0008093E800CACF84918093F10031966150DA
:1051B00071092F5F3F4FE6CF8091E103882341F0D3
:1051C000853041F08091E80083FFBCCF81E00895F5
:1051D00082E0089583E00895982F973028F08F702B
:1051E0008093E90081E008959093E900242F762FC1
:1051F00050E0981731F07091EC002091ED00509143
:10520000F00021FD02C09F5FE8CF3091EB003E7FB0
:105210003093EB003091ED003D7F3093ED00309105
:10522000EB0031603093EB007093EC002093ED00C5
:105230005093F0002091EE0027FDE5CF80E0089527
:105240008091E20387FF13C08091E80082FF06C0CF
:105250008091E8008B778093E80004C08091E1039F
:105260008111F2CF08958091E1038823D9F38091D1
:10527000E80080FFF8CF8091E8008E77ECCF209196
:10528000E4003091E50085E69091EC0090FF06C0C7
:105290009091E80090FF06C080E008959091E800AA
:1052A00092FDFACF9091E103992391F0953091F01E
:1052B0009091EB0095FD10C04091E4005091E50005
:1052C0002417350709F381509A01F1F684E0089517
:1052D00082E0089583E0089581E008950E94DC292A
:1052E0000E94E429E0EEF0E0808181608083E8EDB7
:1052F000F0E080818F77808319BCA7EDB0E08C91BE
:105300008E7F8C9380818F7E80831092E00308953E
:105310000F931F93CF93DF930E94DC290E94E4290F
:10532000C8EDD0E088818F77888388818068888302
:1053300088818F7D888319BC1092E1031092DD0370
:105340001092DF031092DE0300EE10E0F80180817E
:105350008B7F808388818160888342E060E080E089
:105360000E94EC28E1EEF0E080818E7F8083E2EE07
:10537000F0E0808181608083808188608083F80193
:1053800080818E7F8083888180618883DF91CF9147
:105390001F910F910895E8EDF0E080818F7E80836A
:1053A000E7EDF0E080818160808384E082BF81E06E
:1053B0008093E0030C948829E8EDF0E080818E7FF3
:1053C00080831092E20008951092DA001092E100BA
:1053D00008951F920F920FB60F9211242F933F93AF
:1053E0004F935F936F937F938F939F93AF93BF93ED
:1053F000EF93FF938091E10082FF0BC08091E20068
:1054000082FF07C08091E1008B7F8093E1000E94C2
:105410004C2C8091DA0080FF19C08091D80080FF69
:1054200015C08091DA008E7F8093DA008091D900D8
:1054300080FF94C080E189BD82E189BD09B400FE8E
:10544000FDCF81E08093E1030E9460268091E1001E
:1054500080FF19C08091E20080FF15C08091E200BA
:105460008E7F8093E2008091E20080618093E20071
:105470008091D80080628093D80019BC85E0809329
:10548000E1030E9472268091E10084FF29C080918F
:10549000E20084FF25C080E189BD82E189BD09B4B5
:1054A00000FEFDCF8091D8008F7D8093D800809141
:1054B000E1008F7E8093E1008091E2008F7E8093F7
:1054C000E2008091E20081608093E2008091DD0340
:1054D000882309F449C084E08093E1030E94732685
:1054E0008091E10083FF29C08091E20083FF25C005
:1054F0008091E100877F8093E10082E08093E10367
:105500001092DD038091E1008E7F8093E100809115
:10551000E2008E7F8093E2008091E20080618093C0
:10552000E20042E060E080E00E94EC288091F00020
:1055300088608093F0000E947126FF91EF91BF91E7
:10554000AF919F918F917F916F915F914F913F911B
:105550002F910F900FBE0F901F90189519BC1092AD
:10556000E1030E946E2672CF8091E30087FD02C0A6
:1055700081E0B2CF83E0B0CF1F920F920FB60F92AF
:1055800011242F933F934F935F936F937F938F9348
:105590009F93AF93BF93CF93EF93FF93C091E90095
:1055A000CF708091EC001092E9008091F000877F2D
:1055B0008093F00078940E94F82A1092E90080917C
:1055C000F00088608093F000C093E900FF91EF91B4
:1055D000CF91BF91AF919F918F917F916F915F918B
:1055E0004F913F912F910F900FBE0F901F901895E4
:1055F0001F93CF93DF93CDB7DEB7AA970FB6F8947A
:10560000DEBF0FBECDBFE2EEF3E08091F1008193EB
:1056100023E0EA3EF207C9F70E9489268091E8005C
:1056200083FF42C08091E2039091E3039A3008F037
:105630003BC0E92FF0E0E15EF44D0C94C22D292B24
:105640004D2B542B4D2B542BA82BCA2B542B1F2CDA
:105650002C2C803879F0823839F58091E6038F70F0
:105660008093E9008091EB0085FB882780F91092F8
:10567000E90006C08091DE039091DF039111826002
:105680009091E800977F9093E8008093F10010924A
:10569000F1008091E8008E772DC0282F2D7F21F416
:1056A0008823D1F0823059F18091E80083FF0AC04D
:1056B0008091E800877F8093E8008091EB00806212
:1056C0008093EB00AA960FB6F894DEBF0FBECDBF55
:1056D000DF91CF911F9108958091E403813021F7EC
:1056E000933009F080E08093DF031092E90080910D
:1056F000E800877F8093E8000E942029D5CF809121
:10570000E4038111F2CF8091E6038F7069F28093F8
:10571000E9002091EB0020FFE8CF933031F4809135
:10572000EB0080628093EB00E0CF9091EB00906102
:105730009093EB0021E030E001C0220F8A95EAF758
:105740002093EA001092EA008091EB008860EACF93
:105750008111AACF1091E4031F778091E300807834
:10576000812B8093E3008091E800877F8093E8009D
:105770000E9420298091E80080FFFCCF8091E30007
:1057800080688093E30083E0111101C082E0809380
:10579000E1038ACF8058823008F086CF8091E403FD
:1057A0009091E5038C3D23E09207A1F583E08A8385
:1057B0008AE289834FB7F894DE01139620E03EE039
:1057C00051E2E32FF0E050935700E49120FF03C033
:1057D000E295EF703F5FEF708E2F90E0EA30C0F0FF
:1057E000C7968D939D932F5F243159F74FBF8091BA
:1057F000E800877F8093E8006AE270E0CE010196BE
:105800000E942D288091E8008B778093E8004CCF90
:10581000C096E7CFAE014F5F5F4F6091E6030E94F5
:105820007327BC01892B09F43FCF9091E800977F43
:105830009093E80089819A810E948C28E3CF803878
:1058400009F032CF8091E800877F8093E800809153
:10585000DD038093F1001DCF811126CF9091E403E9
:10586000923008F021CF8091E800877F8093E80094
:105870009093DD030E9420298091DD03882331F07D
:1058800084E08093E1030E9475260ECF8091E300AF
:1058900087FDF6CF81E0F5CF0895CF938091E103A6
:1058A000882399F0C091E900CF708091EC0080FDD1
:1058B0000EC080E0C82B1092E9008091E80083FDC3
:1058C0000E94F82ACF70C093E900CF91089580E834
:1058D000F1CF0E94702C6894B1110C94FF2C0895A4
:1058E0000E94E42C88F09F5798F0B92F9927B75160
:1058F000B0F0E1F0660F771F881F991F1AF0BA9574
:10590000C9F714C0B13091F00E94FE2CB1E00895A7
:105910000C94FE2C672F782F8827B85F39F0B93F99
:10592000CCF3869577956795B395D9F73EF4909526
:105930008095709561957F4F8F4F9F4F0895E894A4
:1059400009C097FB3EF490958095709561957F4FC7
:105950008F4F9F4F9923A9F0F92F96E9BB27939575
:10596000F695879577956795B795F111F8CFFAF485
:10597000BB0F11F460FF1BC06F5F7F4F8F4F9F4FB6
:1059800016C0882311F096E911C0772321F09EE814
:10599000872F762F05C0662371F096E8862F70E07A
:1059A00060E02AF09A95660F771F881FDAF7880F54
:1059B0009695879597F9089557FD9058440F551F70
:1059C00059F05F3F71F04795880F97FB991F61F081
:1059D0009F3F79F087950895121613061406551FF8
:1059E000F2CF4695F1DF08C0161617061806991F64
:1059F000F1CF86957105610508940895E894BB2759
:105A000066277727CB0197F908950E94182D0C94EB
:105A1000892D0E947B2D38F00E94822D20F0952345
:105A200011F00C94722D0C94782D11240C94FF2CF1
:105A30000E94DC2C70F3959FC1F3950F50E0551F29
:105A4000629FF001729FBB27F00DB11D639FAA27D3
:105A5000F00DB11DAA1F649F6627B00DA11D661F22
:105A6000829F2227B00DA11D621F739FB00DA11D43
:105A7000621F839FA00D611D221F749F3327A00DFD
:105A8000611D231F849F600D211D822F762F6A2F99
:105A900011249F5750409AF0F1F088234AF0EE0FFE
:105AA000FF1FBB1F661F771F881F91505040A9F72B
:105AB0009E3F510580F00C94722D0C94FF2C5F3F9B
:105AC000E4F3983ED4F3869577956795B795F79567
:105AD000E7959F5FC1F7FE2B880F911D96958795DF
