:100000000C9421030C9468030C9468030C9468030B
:100010000C9468030C9468030C9468030C946803B4
:100020000C9468030C9468030C9454260C942627B3
:100030000C94F1200C9468030C9468030C946803EE
:100040000C9468030C9468030C9468030C94680384
:100050000C9468030C944A210C9468030C94680374
:100060000C9468030C9468030C9468030C94680364
:100070000C9468030C9468030C9468030C94680354
:100080000C9468030C9468030C9468030C94680344
:100090000C9468030C9468030C9468030C94680334
:1000A0000C9468030C9468030C946803DF0EE20E52
:1000B000EA0EEF0EF40EF90EFE0E030F080F0D0FF1
:1000C000120F170F190F1C0F1F0F220F250F280FCC
:1000D0002A0F2F0F7D108010A110B210BA10C5107A
:1000E000C810CB10CE1014111711D110D410D91084
:1000F000E610F310F610FA100711FA16FA162C177C
:100100002C178F188F188F188F1879170E181F1823
:100110001F187F188F188F188818181918192A197E
:100120002A1921192A192A192A19181918192619E8
:100130002A192A1926199327BA27B228BA27B228CA
:1001400006282928B22880288F2829001E001F0091
:100150002000210022002300240025002600270083
:100160002D002E0000002A004A004B002B0000004A
:1001700014001A000800150017001C0018000C00DD
:10018000120013002F00300031004D004E003900E6
:10019000000004001600070009000A000B000D0013
:1001A0000E000F00330034002800000000000000A3
:1001B0000000E1001D001B000600190005001100F1
:1001C00010003600370038000000E5000000520043
:1001D0000000E000E3000000E200000000002C004E
:1001E000000000000000E60001510000E4005000A3
:1001F00051004F0035003A003B003C003D003E00FE
:100200003F00400041004200430044004500000020
:1002100001000100005C01000000C25CC35CC55C21
:10022000C65CC75CC85CC95CCA5C01000100010017
:1002300001000100010001000100000001000100B7
:1002400001000100010001000100010001000100A6
:10025000010001000000000000000000010001009A
:100260000100010001000100010001000100010086
:100270000100000001000000010000000100010079
:10028000000001000000000001000000000000006C
:100290000100010000000100010001000100000058
:1002A0000000000000002A2B2800000000000000D1
:1002B00000000000000000000029000000002C1ECB
:1002C0003420212224342627252E362D3738271E88
:1002D0001F202122232425263333362E37381F04AE
:1002E00005060708090A0B0C0D0E0F101112131446
:1002F00015161718191A1B1C1D2F3130232D350404
:1003000005060708090A0B0C0D0E0F101112131425
:1003100015161718191A1B1C1D2F3130354C0000EB
:1003200000000000000000000000000000000000CD
:1003300000007E0F00D4FFFFFFC70000007800041C
:100340007F3F1F643214643214783C1E1E140A0569
:100350002223252628292A2C2D2F303233353638D2
:100360003A3B3D3E4042434547494A4C4E5051532B
:100370005557595A5C5E6062646668696B6D6F714F
:10038000737577797B7D7F81838587898A8C8E9051
:10039000929496989A9C9E9FA1A3A5A7A8AAACAE5A
:1003A000AFB1B3B4B6B8B9BBBCBEBFC1C2C3C5C69A
:1003B000C7C9CACBCCCDCED0D1D2D2D3D4D5D6D743
:1003C000D7D8D9D9DADADBDBDBDCDCDCDCDCDDDD81
:1003D000DDDDDCDCDCDCDCDBDBDBDADAD9D9D8D771
:1003E000D7D6D5D4D3D2D2D1D0CECDCCCBCAC9C713
:1003F000C6C5C3C2C1BFBEBCBBB9B8B6B4B3B1AF4A
:10040000AEACAAA8A7A5A3A19F9E9C9A98969492E9
:10041000908E8C8A89878583817F7D7B79777573C0
:10042000716F6D6B6968666462605E5C5A5957559E
:100430005351504E4C4A4947454342403E3D3B3A5A
:100440003836353332302F2D2C2A292826252322E1
:10045000FFAA7F55400001010101010101010102D4
:100460000202020202020202030303030303030364
:10047000040404040404040505050505060606062F
:1004800006070707070708080808090909090A0AEB
:100490000A0B0B0B0C0C0C0D0D0D0E0E0E0F0F0F8F
:1004A000101011111112121313141415151616171A
:1004B00017181819191A1A1B1B1C1D1D1E1E1F2088
:1004C00020212222232424252626272829292A2BD5
:1004D0002C2D2D2E2F3031323233343536373839FA
:1004E0003A3B3C3D3E3F40414243444546474849F4
:1004F0004A4C4D4E4F50515354555658595A5B5DC6
:100500005E5F616264656668696B6C6D6F70727363
:100510007577787A7B7D7E8082838587888A8C8ECA
:100520008F91939596989A9C9EA0A2A3A5A7A9ABFC
:10053000ADAFB1B3B5B7BABCBEC0C2C4C6C9CBCDEE
:10054000CFD1D4D6D8DBDDDFE2E4E7E9EBEEF0F3A0
:10055000F5F8FAFDFF0403300000000E0369006B9C
:10056000006B0069003600380000001A0377007540
:100570000071007500650020007300740075006450
:100580000069006F00000004030904090242000230
:100590000100A0FA09040000010301010009211172
:1005A0000100012240000705810308000A09040137
:1005B00000020300000009211101000122220007AE
:1005C000058203200001070503032000011201102A
:1005D00001000000086B690300010001020301062D
:1005E00060FF0961A1010962150026FF00952075D1
:1005F0000881020963150026FF0095207508910205
:10060000C005010906A101050719E029E715002524
:100610000195087501810295017508810105071989
:100620000029FF150026FF009506750881000508C2
:10063000190129059505750191029501750391012F
:10064000C00011241FBECFEFDAE0DEBFCDBF04B67D
:1006500003FE27C08091740290917502A0917602EA
:10066000B09177028730904BA740B04BD1F41092F5
:10067000740210927502109276021092770214BEE4
:1006800084B7877F84BF0FB6F894A89580916000E7
:10069000886180936000109260000FBEE0E0F8E394
:1006A000099511E0A0E0B1E0E4EEF2E502C00590AA
:1006B0000D92AA35B107D9F722E0AAE5B1E001C051
:1006C0001D92A437B207E1F70E9407230C9470290A
:1006D0000C9400003E9A0C944C070C944A070C941E
:1006E0007A0381FF02C0469801C0469A0C94F20436
:1006F00081E0089581E0089508950C947C031F9390
:10070000CF93DF9300D000D01F92CDB7DEB74983DF
:100710005A836B833091880189819A81311114C089
:10072000662359F0222349F00E94511E182F682F8A
:1007300089819A810E94FA1D03C00E94251E182FEC
:1007400069817A81812F04C00E94511E69817A815A
:100750000F900F900F900F900F90DF91CF911F91FE
:100760000C94F811FC01262F408151816281738124
:1007700084810C947F03CF93DF93EC0160E00E94AF
:10078000B203BE01DF91CF910C947D03FF920F93D2
:100790001F93CF93DF93E82FF0E0E256FD4FF490E4
:1007A000C82FC695C695C695D0E0FE01E25DFC4F08
:1007B0000491877010E0082E02C0159507950A94E1
:1007C000E2F701701127FE01E25EFC4FC491D0E018
:1007D00002C0D595C7958A95E2F7C170DD2701154E
:1007E000110519F081EE0E944816209719F086EE47
:1007F0000E9448168F2D0E94A716CD2B19F086EE69
:100800000E947B16012B41F081EEDF91CF911F9169
:100810000F91FF900C947B16DF91CF911F910F9158
:10082000FF900895EF92FF920F931F93CF93DF9362
:10083000EC01162F0AE08881882309F457C0813023
:1008400009F045C08981813051F47E0182E0E80ED3
:10085000F11CCA818C2F0E9448168C2F12C0823046
:1008600049F47E01E2E0EE0EF11C8A810E944816F6
:10087000E7012FC0833041F47E01F2E0EF0EF11C5E
:100880008A810E947B16F4CF843011F0219621C01A
:100890002A81229680E090E030E0205331092A300E
:1008A000310558F4089FA001099F500D1124C9017A
:1008B000840F951F21962881EFCF009751F0EFE923
:1008C000FFE03197F1F700C000000197F6CF0E94DA
:1008D000C6032196812F882309F4ADCFEFE9FFE00D
:1008E0003197F1F700C000008150F5CFDF91CF9133
:1008F0001F910F91FF90EF90089560E00C94120407
:100900008F929F92AF92BF92CF92DF92EF92FF921F
:100910000F931F936B017C0181E090E0A0E0B0E0B9
:100920004C015D0104C0880C991CAA1CBB1C4A9593
:10093000D2F7AC01BD0104C0440F551F661F771FDD
:100940002A95D2F7482959296A297B2904C0880F9A
:10095000991FAA1FBB1F0A95D2F78A019B010C2180
:100960001D212E213F21401751076207730739F4DB
:10097000BC01CD016C297D298E299F290AC0809553
:100980009095A095B095BC01CD016C217D218E2163
:100990009F211F910F91FF90EF90DF90CF90BF901C
:1009A000AF909F908F9008950F93382F262F6091CE
:1009B000F8017091F9018091FA019091FB01042FE7
:1009C000432F0E9480040F910C94361D0E949621A3
:1009D0000E94891F811102C00E9429200C946A0381
:1009E0000C946D03089581E008950C94F304CF9363
:1009F000C82F0E9471038C2F0E94F504CF91089597
:100A000008950E9406190E9400052FEF84E39CE0E0
:100A1000215080409040E1F700C000000C9470210C
:100A20000F931F93CF93DF93EC0161E00E94B20319
:100A30008C01BE010E94D50F8823A9F1BE01C80117
:100A40000E946F03882379F1BE01C8010E942E1312
:100A5000882349F1BE01C8010E946F13882319F150
:100A6000BE01C8010E949A148823E9F0BE01C801A2
:100A70000E94C80E8823B9F08A81882369F0011585
:100A80008CE5180731F00E3D1C4531F40E942920F9
:100A90000AC00E94010507C0CE01DF91CF911F91CE
:100AA0000F910C94780380E0DF91CF911F910F910B
:100AB000089580E090E008950895880F991FFC0143
:100AC000E25CFC4F859194910895CF93DF930E944F
:100AD000F8110E946106EC01811521E59207A0F54D
:100AE000811540E5940708F086C0C11580E2D8075B
:100AF000F0F4C11521E0D20708F0DFC0C03ED105F7
:100B000088F4C03CD10508F062C0C130D10509F4B9
:100B1000D4C008F4D0C0CE010497813A910508F4FE
:100B2000CCC0C9C0C83ED10508F4C7C0C4C0C115F7
:100B300040E4D40708F05CC0C11580E3D80708F092
:100B40004DC0CE019F7046C0811525E59207A0F4E7
:100B5000811544E5940708F095C0C11583E5D807D1
:100B600008F07AC0C11522E5D20708F05FC0DC2F7B
:100B7000CC27C16FD06AA1C0811549E59407A0F4C4
:100B8000C11588E5D80708F082C0C11526E5D2074F
:100B900008F091C08C2F0E94F5068F71C82FD0E00D
:100BA000DC2FCC27D06289C081154AE5940708F470
:100BB00073C090568115904208F07DC08D2F8F71C3
:100BC0000E94F506DD27D0628F71D82B76C0CE014A
:100BD000805C91090E945D05EC016FC0CE019927F0
:100BE000D3FF03C0EC01D86C68C0EC01D06C65C0C9
:100BF000DF70D06A62C074E0969587957A95E1F7C8
:100C000083709C2F937021E030E002C0220F331FCD
:100C10009A95E2F73C68382BCF70C695C69540E2AE
:100C2000C49FE0011124C22BD32B47C0CE01837097
:100C3000992721E030E002C0220F331F8A95E2F7A6
:100C40008C2F8695869540E2849FC0011124E9018E
:100C5000C82BD92BDC6831C0CE018370992721E0E5
:100C600030E002C0220F331F8A95E2F78C2F869561
:100C7000869540E2849FC0011124E901C82BD92B3D
:100C8000DA681BC0D82FCC27C46FD06A16C0DC2FFF
:100C9000CC27C06FD06A11C08F700E94F50694E017
:100CA000D695C7959A95E1F7CF70D0E0DC2FCC2789
:100CB000D069C82B02C0C0E0D0E0CE01DF91CF9157
:100CC00008958238910569F1B0F48133910509F4F2
:100CD0006DC048F48932910509F463C08A329105E8
:100CE00009F469C008958533910509F455C0893325
:100CF0009105B9F00895833E910569F138F4803E7D
:100D00009105B1F0823E910509F10895863E910565
:100D1000A9F1873E9105B9F1843E910509F064C0BF
:100D200023C02091650220FD4FC021FD4DC00895D4
:100D30008091650280FD44C08091660280FF44C0BE
:100D40008091650284FD42C083EE4DC080916502B2
:100D500082FF38C0F5CF8091650282FD33C080915B
:100D6000660280FD31C0ECCF8091660281FF32C007
:100D70008091650284FD2AC087EE35C080916502AE
:100D800083FF26C0F5CF8091650283FD21C080914D
:100D9000660281FD1FC0ECCF8091650285FD1CC0FD
:100DA0001DC08091650285FD19C016C08091650245
:100DB00086FD16C017C08091650286FD13C010C065
:100DC00089E311C082EE0FC080EE0DC080E00BC041
:100DD00086EE09C084EE07C089E205C085E303C042
:100DE0008AE201C081E390E008959091650292FF4C
:100DF0000DC0282F2871283019F4877F846006C021
:100E0000282F2471243011F48B7F886093FF0DC04C
:100E1000282F2871283119F4877E846106C0282F75
:100E20002471243111F48B7E88612091660220FFA9
:100E30000DC0382F3871383019F4877F816006C0B3
:100E4000382F3171313011F48E7F886021FF0DC051
:100E5000282F2871283119F4877E816106C0282F38
:100E60002171213111F48E7E886194FD877E089571
:100E700024E0829FC0011124FC01E05DFD4F6081F0
:100E80007181828193810895089580EA8A95F1F7AE
:100E9000089508950C9449070C944907CF93DF9364
:100EA000A0E3B1E045E351E061E070E08D91E82F0F
:100EB000E295EF70F0E021A18F70EB0102C0CC0F42
:100EC000DD1F8A95E2F7CE019C2F9095922391A386
:100ED00092A1892B82A34A175B0741F7AFE1B1E0EA
:100EE00040E351E061E070E08D91E82FE295EF7012
:100EF000F0E021A18F70EB0102C0CC0FDD1F8A95BD
:100F0000E2F7CE019C2F9095922391A392A1892B79
:100F100082A34A175B0741F7ECE1F2E0A0E3B2E0FD
:100F200080E392E011921192119211921D921D9202
:100F30001D921D928E179F07A9F785E00E947908E0
:100F4000DF91CF910C94E6042F923F924F925F92E3
:100F50006F927F928F929F92AF92BF92CF92DF92C9
:100F6000EF92FF920F931F93CF93DF93CDB7DEB72E
:100F700028970FB6F894DEBF0FBECDBF30E3C32E67
:100F800031E0D32E0CE112E0F12C1E830D83D80149
:100F90004D905D906D907C90F801108211821282CC
:100FA0001382D6018D916D01482F42954F70842E8A
:100FB000912C98868F82D40191969C9191978F70F5
:100FC00022242394312C01C0220C8A95EAF7892F20
:100FD000822991968C93919792968C919297E22C7C
:100FE000E0948E2192968C930E944507EFE1F1E008
:100FF00080E090E0B1902B2D22952F7030E0D90148
:1010000090962C91D8014D915D916D917C91498381
:101010005A836B837C8330E0BB2DBF7002C0359553
:101020002795BA95E2F720FD0DC041E050E060E061
:1010300070E0082E04C0440F551F661F771F0A94E6
:10104000D2F703C040E050E0BA0189809A80AB80BB
:10105000BC80482959296A297B29D8014D935D9381
:101060006D937C93139701968131910519F6EF8169
:10107000F88581A1E822E1A282A1282A22A20C5FA0
:101080001F4F81E0AD81BE814D915D916D917C914D
:10109000441555056605770509F480E0F82AE0E374
:1010A000F2E0E017F10709F070CF2F2D45E060E383
:1010B00072E08CE192E00E947A080E94F0048F2D89
:1010C00028960FB6F894DEBF0FBECDBFDF91CF914B
:1010D0001F910F91FF90EF90DF90CF90BF90AF9056
:1010E0009F908F907F906F905F904F903F902F9048
:1010F00008950895FF920F931F93CF93DF93F82ED7
:10110000D92F8B01C42F222349F081E080935C0109
:101110000E94232190935B0180935A0180915C018E
:101120008823F1F080915A0190915B010E943B214C
:101130000697B0F0EF2DFD2FD80180E090E04C2F06
:1011400050E08417950754F4019111912191319148
:101150000D931D932D933D930196F3CF10925C0157
:10116000DF91CF911F910F91FF900895EF92FF9221
:101170000F931F93CF93DF93F62E472FE82FF0E0C6
:10118000711106C0EB5AFB4F6491762F862F72C007
:10119000272F30E0EB5AFB4FE4910E2F10E056E082
:1011A000659FC0011124CFEFD0E0BE010E94E62868
:1011B0005BEA5603C001579F900D11248F0D911DBE
:1011C0008F0D911D982F990F890F7E01E21AF30A56
:1011D000E09ED001E19EB00DF09EB00D1124489F1D
:1011E000A0011124452F55277E01E41AF50AE09E3F
:1011F000A001E19E500DF09E500D11247E01E81AD1
:10120000F108E29EC001E39E900DF29E900D112424
:10121000892F9927C81BD90BC09FC001C19F900D72
:10122000D09F900D11246230710591F048F4611542
:101230007105E1F061307105A9F48B2F752F19C08C
:101240006430710561F038F06630710579F00AC0DC
:10125000892F7B2F0EC08E2F7B2FE52F0AC08E2F5C
:10126000792F02C0852F7E2FEB2F03C08B2F7E2F6F
:10127000E92F6E2FDF91CF911F910F91FF90EF908B
:1012800008950895CF93DF93762FE901682F842F77
:101290000E94B608798368838A83DF91CF9108958D
:1012A000493C08F048EC0C94420980914402282FF4
:1012B000269530E02115310519F48170826005C052
:1012C0002532310524F08170886480934402809136
:1012D0004702893C18F088EC80934702089588E023
:1012E00090E00C943029CF92DF92EF92FF926B0145
:1012F0007C010E945509B701A60188E090E0FF90AB
:10130000EF90DF90CF900C944E2960914402709141
:10131000450280914602909147020C947309E4E4DF
:10132000F2E083E0808311828FEF828388EC8383F5
:10133000148260817181828193810C947309809100
:10134000440280FF02C08695089580E00895809150
:101350004802833018F48F5F809348026091440202
:101360007091450280914602909147020C94730956
:1013700080914802882319F081508093480260913F
:1013800044027091450280914602909147020C946C
:10139000730980914802089580934802662351F0B2
:1013A00060914402709145028091460290914702FB
:1013B0000C947309089560E00C94CC098091450267
:1013C000089580914602089580914702089570E043
:1013D0000C94750F609103018091440280FF0AC054
:1013E0008091020123E0829FC0011124875B9D4F01
:1013F0000C94E7098091040190910501891780F709
:10140000E82FF0E09F01220F331FE20FF31FE75B8D
:10141000FD4F1182108212828F5FF0CF90914402B3
:1014200090FF16C09091040120910501921770F46D
:10143000E92FF0E0DF01AA0FBB1FEA0FFB1FE75BFC
:10144000FD4F8183608342839F5FF0CF0C94EA0954
:101450000895CF93DF9300D01F92CDB7DEB7909160
:10146000440290FF0AC09E012F5F3F4F0E94500927
:101470004B8169818A810E940E0A0F900F900F9014
:10148000DF91CF910895CF93DF93EC01EC81F0E0F1
:10149000E05BFC4F4491E4E4F2E0628181810E94D0
:1014A000290A8C818F5F8C83DF91CF910895CF9330
:1014B000DF93EC01E4E4F2E0438162818C810E94DD
:1014C000290A8C818F5F8C83DF91CF9108950F93D0
:1014D0001F93CF93DF9300D01F92CDB7DEB78C015F
:1014E00080915D0181110AC09E012F5F3F4F48EC42
:1014F0006FEF0E9450098A8180935D01F801848119
:10150000813051F028F0823061F440915D010AC0D1
:1015100080915D0140E007C060915D0140E080E0A6
:1015200003C040E080E060E00E940E0AF801848180
:1015300090E0019663E070E00E94FA2884830F90A7
:101540000F900F90DF91CF911F910F910895AF925F
:10155000BF92CF92DF92EF92FF920F931F93CF93A0
:10156000DF9300D01F92CDB7DEB7182FF62E042FD1
:10157000E22E9091440290FF6DC0E92FE695AE2FC8
:10158000B0E0AB5CBE4F8C91809367019E7F923040
:1015900061F49E012F5F3F4F812F0E9450094B81C4
:1015A00069818A810E940E0A43C0823019F4009139
:1015B00047023EC0863019F41091450239C0893087
:1015C000D9F38931A9F5E9518E2F8170D82EE6958E
:1015D000F0E0E05BFB4FA590B490C12CBB24609180
:1015E0000601C61618F52C2D30E0A29EC001A39E60
:1015F000900DB29E900D112470E00E94E628812F7C
:10160000D11002C0860F01C0861B90910401290FE2
:10161000311DA901440F551F240F351F275B3D4F76
:10162000402F6F2D0E945009C394D9CF0E94EA0920
:1016300010934502F092460200934702EE2051F0CB
:101640006091440270914502809146029091470258
:101650000E9473090F900F900F90DF91CF911F910F
:101660000F91FF90EF90DF90CF90BF90AF900895D3
:10167000E4E4F2E09181282F4381628188E0890FC0
:101680000C94A70A81E00C94380BE4E4F2E0918119
:10169000282F4381628188EF890F0C94A70A81E08B
:1016A0000C94450BE4E4F2E0628128E0620F08F458
:1016B0006FEF282F438181810C94A70A81E00C945D
:1016C000520BE4E4F2E0628128E0621B08F460E07F
:1016D000282F438181810C94A70A81E00C94610B2F
:1016E000E4E4F2E0438128E0420F08F44FEF282FB2
:1016F000628181810C94A70A81E00C94700BE4E470
:10170000F2E0438128E0421B08F440E0282F628188
:1017100081810C94A70A81E00C947F0B20E00C944B
:10172000A70AFF920F931F93CF93DF93EC01F12C45
:101730000FEF10E060910601F616F0F480910401BD
:101740002F2D30E0280F311DC901880F991F280F58
:10175000391F275B3D4F70E0C8010E94FA28962F81
:101760008C814091470260914602F99E800D1124C0
:101770000E945009F394DECF0E94EA099A818C817D
:1017800090FF02C08F5F01C081508C83DF91CF91A9
:101790001F910F91FF900895BF92CF92DF92EF9229
:1017A000FF920F931F93CF93DF93FC01828180FF01
:1017B00002C00FEF01C001E010E080910601181790
:1017C00008F040C080910401C12ED12CE601C80F61
:1017D000D11DCE01880F991FC80FD91FC75BDD4FE0
:1017E000198218821A8234E0E32EF12CB12C8091F8
:1017F0005F018B0D893014F0877005C087FF03C02F
:1018000090910601890F082E000C990BC816D90675
:1018100091F4809147028E9DA0018F9D500D11245F
:1018200055954795559547959E0160914602809143
:1018300045020E945009B00EF1E0EF1AF108B9F626
:101840001F5FBBCF0E94EA0980915F01013031F434
:10185000811102C080910601815007C090E001967D
:101860006091060170E00E94FA2880935F01DF9189
:10187000CF911F910F91FF90EF90DF90CF90BF908D
:101880000895CF938091040190910501891770F418
:10189000E82FF0E09F01220F331FE20FF31FE75BF9
:1018A000FD4F1182108212828F5FF0CFC0E06091F5
:1018B0000601C617C0F5EC2FF0E070E0CF010E94E2
:1018C000FA2820910401820F20915E01022E000C63
:1018D000330B90E0E217F307CCF020910101022EC8
:1018E000000C330B2E173F078CF09C01220F331F87
:1018F000820F931F9C01275B3D4F409147026091EF
:101900004602809145020E9450090BC0FC01EE0F77
:10191000FF1F8E0F9F1FFC01E75BFD4F118210829E
:101920001282CF5FC4CF0E94EA092091000180910A
:101930005E01820F80935E0190910101920F90935E
:10194000010119165CF4082E000C990B4091060158
:1019500050E041505109841795071CF021952093C0
:101960000001CF9108950F931F93CF93DF938C01C4
:10197000FC018481958101968170992795838483E8
:10198000C0E0D5E580910601C81700F580910401FB
:101990002C2F30E0280F311DC901880F991F280F07
:1019A000391F275B3D4F4C2F4695F8018481958167
:1019B000840F911D817040914702609146028D9F76
:1019C000802D11240E945009CF5FDCCFDF91CF9191
:1019D0001F910F910C94EA090F931F93CF93DF93FC
:1019E000EC0100E010E080910601282F30E00217A2
:1019F000130724F5909104019801290F311DA901C5
:101A0000440F551F240F351F275B3D4F869590E0EF
:101A10004C81081719071CF4442331F002C041110E
:101A200003C04091470201C040E0609146028091AE
:101A300045020E9450090F5F1F4FD5CF0E94EA094F
:101A40008C8190E00196817099278C83DF91CF91F2
:101A50001F910F910895E4E4F2E080818E7F8083EE
:101A600060817181828193810E9473091092680163
:101A70002FEF80E792E0215080409040E1F700C0D6
:101A800000000C94EA09E4E4F2E080818E7F808318
:101A9000109268012FEF80E792E021508040904043
:101AA000E1F700C000000C94EA09609144026695D9
:101AB00070E04BE050E087E091E00E941B29892B09
:101AC00019F481E0809368010E94232190936101C1
:101AD0008093600108959091440290FF35C0917009
:101AE000811102C0926006C0853210F0986402C075
:101AF000880F982B90934402662351F06091440222
:101B00007091450280914602909147020E947309AC
:101B100060914402669570E04BE050E087E091E010
:101B20000E941B29892B19F01092680102C00E94A3
:101B3000550D81E080936301409147026091460218
:101B4000809145020C948E0B0895682F9091440269
:101B5000969581E0890F853208F081E00C946B0D39
:101B600081E00C94A50D682F9091440296958FEF1B
:101B7000890F09F484E20C946B0D81E00C94B30D91
:101B800061E00C946B0DE4E4F2E08081816080837D
:101B900086950C94C00D8091440280FD0C942B0D11
:101BA0000C94C30D60E00C946B0D80916601811163
:101BB0002EC00E94891F811104C00E9429200E940A
:101BC0008F090E946F0960934402709345028093CD
:101BD0004602909347026E7F61F40E948F090E9433
:101BE0006F0960934402709345028093460290937C
:101BF00047020E945509109268018091440280FFBB
:101C000003C086950E94D20D81E0809366010895FD
:101C1000E4E4F2E080818160808386950C94D20DAB
:101C20001092680108950F931F93CF93DF938091D3
:101C30006801882309F48CC080916701E091440217
:101C4000E695E81BE0936201823049F4F0E0E45B42
:101C5000FC4FE491CE2FD0E003E41AE049C0863077
:101C600049F4F0E0E75BFC4FE491CE2FD0E007E5CC
:101C70001AE03EC0893051F4E695F0E0EA5BFC4F93
:101C8000E491CE2FD0E001E91BE032C08F3051F457
:101C9000E695F0E0ED5BFC4FE491CE2FD0E00CEC4C
:101CA0001BE026C0853149F4F0E0E05CFC4FE49194
:101CB000CE2FD0E001E41CE01BC0883181F08332DC
:101CC00039F4EEE3F3E0C591D49107E61AE010C0D1
:101CD000843251F4C4EFD1E00CEE1CE009C0C8EE30
:101CE000D3E003EB1CE004C0C0EDD7E001E419E051
:101CF00080916301882389F0109263010E9423215F
:101D00009E0120953095820F931F909361018093DF
:101D100060011092650110926401809160019091C0
:101D200061010E943B218C179D0790F0E0916001BA
:101D3000F0916101CE0FDF1FD0936101C09360016C
:101D400080E691E0F801DF91CF911F910F91099406
:101D5000DF91CF911F910F910895882311F0FA011F
:101D600001C0FB010994CF93DF93C82FD62F0E94A7
:101D70009F098C1740F00E949F098D1720F4DF9176
:101D8000CF910C94B00D8C2FDF91CF910C94C00D9E
:101D90000F931F93CF93FB01C281CC2309F463C03F
:101DA0008C010E94D21E8272F801E25CFC45E43193
:101DB000F10508F059C0EA5AFF4F0C940E290E9411
:101DC000CB0D06C04DEB5DE060EB7DE00E94AD0EFB
:101DD000C0E04AC040EB5DE06DEB7DE0F7CF4FE443
:101DE0005BE062E47BE0F2CF42E45BE06FE47BE047
:101DF000EDCF4DE65BE06EE57BE0E8CF4EE55BE0E6
:101E00006DE67BE0E3CF4BE85BE06CE77BE0DECFA9
:101E10004CE75BE06BE87BE0D9CF48EB59E067EA41
:101E200079E0D4CF47EA59E068EB79E0CFCF81E0A1
:101E300017C065E082E010C068E086E00DC06EE08B
:101E400089E00AC064E18FE007C067E185E104C072
:101E500088E106C062E289E10E94B30EB9CF83E255
:101E60000E94C00DB5CFC1E08C2FCF911F910F9173
:101E700008955DB1E42FEF7021E030E001C0220F42
:101E8000EA95EAF7352F322B3DB942954F70E42F92
:101E9000F0E032A1422F4095342342A1242B4FB7CA
:101EA000F894FC01CB01880F991F680F791F6E0F02
:101EB0007F1FE617F70789F0819198E02EB900009F
:101EC00000C087FF3EB9880F000000C000C000C0FE
:101ED0003EB900C09A9591F7ECCF4FBF87EC90E0E8
:101EE0000197F1F700C00000089542EC0C94390FFF
:101EF00082E290E00E942829803281F483E290E01F
:101F00000E942829893051F484E290E00E94282917
:101F100091E0803109F090E0892F01C080E081706C
:101F20000895CF93C82F811102C06FEF01C060E206
:101F300082E290E00E943C29C11102C06FEF01C013
:101F400069E083E290E00E943C29C11102C06FEF7A
:101F500001C060E184E290E0CF910C943C2980E0E4
:101F60000E94910F0C94831F089585E290E00E94D7
:101F70002829682F70E080E090E0089585E290E0E5
:101F80000C943C290E94B40F0E94780F81110CC060
:101F900060E070E0CB010E94BE0F0E9473110E94AE
:101FA000521281E00C94910F0895CF93FB01C281EE
:101FB000CC23E9F09C0122513F452031310520F42A
:101FC00082510E9462120CC08031FFE59F0751F4DC
:101FD00081E00E945C1D43E062E081E00E94D40445
:101FE000C0E018C081319F45A9F482E0F2CF803172
:101FF000EFE59E0711F481E004C081319F4549F46B
:1020000082E00E947D1D43E062E081E00E94D404F2
:1020100001C0C1E08C2FCF9108952FEFFC012083E8
:102020000895CF93DF93EC018881813889F028F4FB
:102030008038A1F40E94E40910C0823861F083382E
:1020400069F40E94DE0989830E94E1098A8306C03F
:102050000E949F0902C00E94C9098983DF91CF9124
:102060000895CF93DF93EC0188818138B1F058F463
:10207000803851F5D9810E94E109C82F0E94DE09FC
:102080004D2F6C2F1DC08238B1F08338E9F40E94C7
:10209000E409482F6A81898113C089810E94D20D89
:1020A0008981811104C0DF91CF910C94430DDF91A0
:1020B000CF910C94080E8981DF91CF910C94DB09AC
:1020C000DF91CF910C948E0BDF91CF910895EF9219
:1020D000FF920F931F93CF93DF93EC01F62E01969F
:1020E000E8814E2F50E0FA013197E331F10508F015
:1020F000ADC0E659FF4F0C940E29198289E057C0F4
:102100008981823039F0833061F0813031F50E946D
:102110002F2102C00E94B50F9A838B837C836D832D
:1021200097C08E01E12C8E2D0E943807F801828322
:1021300073836483E3940D5F1F4FF5E0EF12F3CFD9
:1021400087C08981823049F46A817B818C819D813D
:102150000E9414290E94BE0F7BC06F2DCE010E94E9
:102160000D1076C04B816A8189810E9445119C8344
:102170008D836EC02C813D813227232732274B81EE
:102180006A8189810E945E1163C00E94731160C0E0
:102190000E9431105DC00E9411105AC00E94850932
:1021A00057C00E94051224C00E94071299838A8397
:1021B0004FC06B8170E089819A81AE014C5F5F4FA7
:1021C0009827892798270E940A1242C06B8170E0E5
:1021D00089819A81AE014C5F5F4F982789279827A4
:1021E0000E942F1235C00E94521232C00E9432113A
:1021F00089832EC06B8170E089819A81AE014C5F2A
:102200005F4F9827892798270E94B21121C06B81C0
:1022100070E089819A81AE014C5F5F4F98278927D2
:1022200098270E94D61114C00E94AF0F11C0CE0192
:102230000E94FE212FEF81EE94E0215080409040DB
:10224000E1F700C000000E94702102C08FEF888378
:102250006F2DCE01DF91CF911F910F91FF90EF90E5
:102260000C94FE2184E0089550E0440F551F22E2B3
:10227000629F400D511D11249A016AEA869F200D2C
:10228000311D1124C901869608950F931F93CF9392
:10229000DF930E9434118C010E942829C82FD0E0BE
:1022A000DC2FCC27C80101960E9428299E01282BEB
:1022B000C901DF91CF911F910F9108950F931F9343
:1022C000CF93DF93122F032F0E943411EC01602F64
:1022D0000E943C29612FCE010196DF91CF911F9181
:1022E0000F910C943C29AF92BF92CF92DF92EF9264
:1022F000FF920F931F93CF93DF93A12CE12CF12C2E
:10230000B12C00E010E0C0E0D0E06701C00ED11EAB
:10231000FE01EE0FFF1FEC0DFD1DE65BFE4F25914C
:1023200034914C2F6B2D8A2D0E945E112196C13164
:10233000D10571F70E5D1F4FB39485E0B812E3CF5E
:102340008AEAE80EF11CA39484E0A812D9CFDF91A9
:10235000CF911F910F91FF90EF90DF90CF90BF90A2
:10236000AF900895EF92FF920F931F93CF93DF9357
:10237000EA017A01E60EF71E8C01C8018696CE1599
:10238000DF0569F0083A22E0120720F40E942829AC
:10239000888301C0188221960F5F1F4FEECFDF9117
:1023A000CF911F910F91FF90EF900895EF92FF92C0
:1023B0000F931F93CF93DF93EA017A01E60EF71E86
:1023C0008C01C8018696CE15DF0559F0083A22E047
:1023D000120718F468810E943C2921960F5F1F4F55
:1023E000F0CFDF91CF911F910F91FF90EF90089563
:1023F000462F843038F4753028F4613118F4672F93
:102400000C94451180E090E0089580E1089582E306
:1024100091E00895EF92FF920F931F93CF93DF9374
:10242000EA017A01E60EF71E8C01C80182539D4F26
:10243000CE15DF0569F0023321E0120720F40E9477
:102440002829888301C0188221960F5F1F4FEDCF86
:10245000DF91CF911F910F91FF90EF900895EF9230
:10246000FF920F931F93CF93DF93EA017A01E60E59
:10247000F71E8C01C80182539D4FCE15DF0559F020
:10248000023321E0120718F468810E943C2921964A
:102490000F5F1F4FEFCFDF91CF911F910F91FF90F3
:1024A000EF900895CF93DF93CEECD2E060E0CE01C1
:1024B0000E943C292196C11584E0D807B9F7DF9125
:1024C000CF910895DF92EF92FF920F931F93CF93D6
:1024D000DF9300D000D0CDB7DEB7F82E8FE08F1598
:1024E000E8F18FEF93E00E942829811137C00EECAC
:1024F00012E0FF2069F0011584E0180779F1C801A6
:102500000E942829811101C0FA940F5F1F4FF1CF5B
:1025100019821A821B821C82DD24D39478018FEFEA
:10252000E81AF80AC8010E94282989831A82882398
:10253000A9F09FEF980F933058F48A83D9820E5FE9
:102540001F4FC7010E9428298B83882339F0780107
:10255000CE0101960E947D048701E0CF0F900F907D
:102560000F900F90DF91CF911F910F91FF90EF90FF
:10257000DF9008950F931F93CF93DF93C62FD42F2F
:10258000122FFC0182818823C9F060936B010E94A5
:10259000232190936A018093690180E28C0F883037
:1025A00008F057C0C77081E001C0880FCA95EAF7EC
:1025B000DF91CF911F910F910C94BA1680916B010E
:1025C000681330C08091690190916A010E943B219B
:1025D000883C910538F500E20D0FCD17B9F080E287
:1025E0008C0F883040F4C77081E001C0880FCA9515
:1025F000EAF70E94C116083028F581E09D2F9770F8
:1026000001C0880F9A95EAF70E94BA16812F0E949E
:10261000A7160830F0F4D77081E001C0880FDA9572
:10262000EAF70AC080E28C0F883098F4C77081E026
:1026300001C0880FCA95EAF7DF91CF911F910F91E2
:102640000C94C116812FDF91CF911F910F910C94A3
:10265000A716DF91CF911F910F9108959C01CB0197
:10266000233F4CE53407F9F078F4283DFCE53F07BB
:10267000B9F0293D4CE5340711F1273D3C4531F5D2
:1026800026E241EE61EE1EC0253FFCE53F0799F0D2
:1026900070F0263F3C45D1F427E245EE66EE12C0CD
:1026A00027E245EE0EC026E241EE60EE0BC027E2C7
:1026B00045EE64EE07C026E241EE62EE03C028E27A
:1026C00041E065EE0E94BA1280E00895FC0182812B
:1026D000882319F010926B01089581E00895CF933B
:1026E000DF93EC01FB018281882309F41FC1C23012
:1026F000FCE5DF0708F41BC1C6319CE5D90738F0BB
:102700009E012A5F3C452930310508F010C10E9426
:102710009C1F9093660280936502C031ECE5DE0752
:1027200009F4C3C008F041C0C8308CE5D80709F4EB
:102730009AC0F0F4C430ECE5DE0709F487C068F411
:10274000C2308CE5D80709F477C0C330DC4509F006
:10275000E3C080916502826076C0C630ECE5DE079A
:1027600009F46EC008F07BC08091650288606BC080
:10277000CC308CE5D80709F485C068F4CA30ECE5A4
:10278000DE0709F474C008F079C00E940619809130
:102790006502806858C0CE308CE5D80709F476C051
:1027A00008F07FC0809165028BC0CB3FECE5DE076F
:1027B00009F44FC018F5C3318CE5D80709F47DC082
:1027C00078F4C131ECE5DE0709F473C0C231DC45B1
:1027D00009F0A2C00E940619809165028F7733C06C
:1027E000C5318CE5D80709F472C008F486C0CA3F29
:1027F000DC4509F091C0809166023EC0CF3FFCE508
:10280000DF0709F45FC058F4CD3F9CE5D90709F410
:1028100044C008F43FC08091660282602DC0C13080
:10282000FDE5DF0709F475C008F45DC0C230DD4581
:1028300009F072C080E06EC080916502816003C0C3
:102840008091650280618093650266C08091650217
:1028500011C0809166028260809366025DC08091A3
:1028600065028062F0CF809165028064ECCF809138
:10287000650288608460E7CF8160EECF8091650259
:102880008E7FE1CF809165028D7FDDCF80916502E3
:10289000877FD9CF8091660218C0809166028D7FB4
:1028A000DBCF809165028F7ECECF809165028F7DD8
:1028B000CACF809165028F7BC6CF80916502877FEA
:1028C0008B7FC1CF809166028D7F8E7FC5CF809137
:1028D000650282FB222720F991E0922790FB82F982
:1028E00090FB83F9B0CF80916602982F90959170FC
:1028F0008E7F892B90FB81F9AFCF0E9406198091C2
:10290000650287FB222720F991E0922790FB87F947
:102910009ACF81E00E942B208091650290916602FF
:102920000E94AD1F0E94061980E001C081E0DF9186
:10293000CF910895CF93DF9386319C4541F5EB010C
:102940000E94D21E982F8A8120911201309113018A
:10295000882379F09A7A81E009F480E080936C0111
:10296000911102C069E201C065E3C9010E947220B1
:102970000AC080916C01811102C069E201C065E367
:10298000C9010E9474200E94201F80E001C081E0E4
:10299000DF91CF9108959093720180937101089512
:1029A000E0917101F0917201309721F00190F08176
:1029B000E02D099480E00895E0917101F091720199
:1029C000309721F00280F381E02D09940895209141
:1029D0006F01309170012817390771F090937001E1
:1029E00080936F01E0917101F0917201309721F0B5
:1029F0000680F781E02D0994089520916D013091B2
:102A00006E012817390771F090936E0180936D0164
:102A1000E0917101F0917201309721F00084F1850D
:102A2000E02D0994089585B7806885BF85B78068D3
:102A300085BF089508950C941A150C941B150C94D9
:102A40001A150C941A150E9413150E941F150C9448
:102A50001D1581E008950C9429150E941A210E94E9
:102A60004E070E94C20F0E94AD210E94D50D0C940A
:102A700021152F923F924F925F926F927F928F9289
:102A80009F92AF92BF92CF92DF92EF92FF920F93FD
:102A90001F93CF93DF93CDB7DEB72B970FB6F89484
:102AA000DEBF0FBECDBF0E94A4070E942B1581116F
:102AB00011C08FEF89838A831B820E94232181604A
:102AC000782F9D838C8349815A816B818D810E94EF
:102AD00014166BC044E7242E41E0342E00E010E0D1
:102AE0000B87802F0E9438074B015C01F101419058
:102AF0005190619071901F014626572668267926CD
:102B0000411451046104710431F40F5F1F4F05300B
:102B1000110531F7CECF80910D0281FD0E9444074F
:102B200080E0C12CD12C7601C394B301A2014C21C9
:102B30005D216E217F21452B462B472B71F18E8322
:102B4000FB85FF838C209D20AE20BF2081E089285B
:102B50008A288B2809F480E088870E9423218160DD
:102B6000782F9A8789874E815F8168858A850E9440
:102B70001416000F111F000F111FF801EC58FE4F23
:102B800080819181A281B381C826D926EA26FB26BD
:102B9000C082D182E282F38208C08F5FCC0CDD1C40
:102BA000EE1CFF1C813109F6B0CF0E94130E0E946B
:102BB000D014909173018917F1F00E94D014809382
:102BC00073012B960FB6F894DEBF0FBECDBFDF9119
:102BD000CF911F910F91FF90EF90DF90CF90BF901A
:102BE000AF909F908F907F906F905F904F903F90AD
:102BF0002F900C94F7042B960FB6F894DEBF0FBEFF
:102C0000CDBFDF91CF911F910F91FF90EF90DF909B
:102C1000CF90BF90AF909F908F907F906F905F907C
:102C20004F903F902F900895CF93DF93CDB7DEB7AD
:102C30002B970FB6F894DEBF0FBECDBF4F835887DA
:102C400069877A878B87DE01119686E0FD011192F4
:102C50008A95E9F785E0FE01379601900D928A95F5
:102C6000E1F749815A816B817C818D819E810E942F
:102C7000BF1B2B960FB6F894DEBF0FBECDBFDF9102
:102C8000CF910895FC01808191810E94931E089547
:102C9000CF93882371F1C82F8CEF8C0F813AD0F439
:102CA0006C2F80911201909113010E943C20882387
:102CB00049F06C2F80911201909113010E947420B1
:102CC0000E94201F6C2F80911201909113010E948D
:102CD00072200CC080E28C0F883058F4C77081E0FD
:102CE00001C0880FCA95EAF70E94D51ECF910C94B7
:102CF000201FCF910895882349F1682F8CEF860F0C
:102D0000813A38F480911201909113010E9474204D
:102D10000CC080E2860F883050F4677081E001C0FB
:102D2000880F6A95EAF70E94DB1E0C94201F8BE542
:102D3000860F833020F480E090E00C94E714685A0A
:102D4000673120F480E090E00C94FD140895CF9357
:102D5000C82F0E944816C93349F42FEF87EE93E03D
:102D6000215080409040E1F700C000008C2FCF91AF
:102D70000C947B16882321F00E94D51E0C94201FF2
:102D80000895882321F00E94DB1E0C94201F0895D3
:102D9000CF92DF92EF92FF920F931F93CF93DF9327
:102DA0007C01062FC72FFC01D581D295DF701281DF
:102DB00011110E94F21E0E94CB1E882379F011236C
:102DC00069F080E2800F883048F082E00E946A1F3C
:102DD0000E94CB1E91E0D82ED92601C0D12CCC2E3A
:102DE000C2948FE0C8228C2D90E0FC01E358FF4F85
:102DF0000C940E298C2F807FCF70882311F0C29500
:102E0000C07F112399F0CC2309F464C180E2800FC4
:102E1000883010F0011104C08C2F0E94D51E03C011
:102E20008C2F0E94E51E0E94201F54C1802F0E94FB
:102E30007B16CC2309F473C180E2800F883010F038
:102E4000011104C08C2F0E94DB1E03C08C2F0E9436
:102E5000EB1E0E94201F63C18C2F807FCF708032B9
:102E600011F0C295C07F002319F00130C9F022C0D3
:102E7000112371F0DD2341F0D13031F40E94051FA0
:102E80008C2B0E940D1F4BC10E94051F8C2B1DC057
:102E9000DD2319F0D13009F442C10E94161F25C06C
:102EA000112321F0D63008F03AC10EC0D53008F019
:102EB00036C11BC0112361F0DD2331F0F70185819C
:102EC00080FF08C18F7085838C2F0E94BA1627C19E
:102ED000DD2359F0093309F00EC1FFEF27EE83E03F
:102EE000F15020408040E1F704C18C2F0E94C116B0
:102EF00016C18C2F837009F045C0111114C1402FE9
:102F0000429546954770440F440F602F6F70862F8F
:102F100090E0A0E0B0E0042E04C0880F991FAA1F23
:102F2000BB1F0A94D2F704FF10C00FE010E020E0AE
:102F300030E004C0000F111F221F331F4A95D2F743
:102F4000009510952095309503C000E010E09801A1
:102F5000C695C695C370BC01CD01602B712B822B29
:102F6000932BC23049F058F4C13019F00E94101D63
:102F7000DAC00E94FE1CD7C00E94221DD4C00E944D
:102F8000FC1CD1C0112319F08C2F817001C08695D3
:102F9000882309F4C8C0402F429546954770440FD6
:102FA000440F602F6F70862F90E0A0E0B0E0042EF9
:102FB00004C0880F991FAA1FBB1F0A94D2F704FFF1
:102FC00010C00FE010E020E030E004C0000F111F3F
:102FD000221F331F4A95D2F7009510952095309502
:102FE00003C000E010E09801C695C695C370BC010F
:102FF000CD01602B712B822B932BC23049F058F4FA
:10300000C13019F00E94D51D8EC00E94C31D8BC017
:103010000E94E71D88C00E94361D85C0CF70112315
:1030200039F08C2F0E945C1D802F0E94BA167BC045
:10303000802F0E94C1168C2F0E947D1D74C0023FFC
:1030400001F128F4003F41F0013FA1F03FC0033FF0
:10305000F9F0043F39F13AC0112341F0D53008F0BE
:103060005EC08C2F8F710E94A21D59C0D63008F00F
:1030700056C0F7CF112339F08C2F8F710E945C1D41
:103080004EC01123C9F38C2F8F710E947D1D47C044
:10309000112329F08C2F8F710E94471D40C00E9480
:1030A000421D3DC0112349F0CF718C2F0E945C1D41
:1030B00063E08C2F0E94551F32C081E00E946A1F7E
:1030C000D23068F182E00E946A1F29C0112331F0DA
:1030D000DD2391F2802F0E94481621C0DD2399F252
:1030E000093349F49FEFE7EEF3E09150E040F04000
:1030F000E1F700C00000802F0E947B1610C04C2F0B
:103100004F70602FC7010E9459050E946D1C0FC0AF
:103110004C2F4F70602FC7010E945C0508C088EFDC
:103120008C0D843020F40E94D0140E94F704DD201E
:10313000C9F00E94C71E80FD15C0F70112820E94CF
:10314000C11E0E945C1DC7010E94D3180E94C11EAF
:10315000DF91CF911F910F91FF90EF90DF90CF9073
:103160000C947D1DDF91CF911F910F91FF90EF90F7
:10317000DF90CF9008950F931F93CF93DF93EC01CF
:10318000688179818A810E949E1E8C010E94F91DAE
:103190000E94EA1CB801CE010E94C816DF91CF91AF
:1031A0001F910F910895CF93DF93FC01908181814E
:1031B00023813481232B31F08F3F31F481E09F3F15
:1031C00019F403C081E001C080E080FD0EC0EF0172
:1031D000CF010E941005882341F0CE010E94BB1848
:1031E000CE01DF91CF910C94BB03DF91CF91089575
:1031F0000E94F21E0E94021F0C94201F8091120157
:10320000909113010E9476200C94F8180E94E21EFF
:103210000C94FE18E92FE295EF704E2F50E0FA0162
:103220003297EE30F105B0F4E357FF4F0C940E29BE
:10323000803F91F018F4883E68F40EC0843F51F44A
:103240000BC0883E48F0813F29F406C093FB8827D5
:1032500080F9089580E0089581E008950E94931E0A
:103260000E940A190895CF93DF9300D000D01F92D7
:10327000CDB7DEB70F900F900F900F900F90DF91AA
:10328000CF910895CF93DF9300D000D000D0CDB779
:10329000DEB726960FB6F894DEBF0FBECDBFDF9126
:1032A000CF9108951F93CF93DF93C091890116E0CA
:1032B00080918A01C81799F0D0E01C9FF0011D9FF2
:1032C000F00D1124E557FE4F4081518162817381D9
:1032D000848195810E9442192196C770E9CFDF91C0
:1032E000CF911F9108954091BB015091BC01609115
:1032F000BD017091BE018091BF019091C0010C94FD
:1033000042190F931F93CF93DF938091C001829551
:103310008F7009F05DC08091BD01882309F458C009
:103320008091890110918A016091BB017091BC016B
:10333000C091BE01D091BF0191E06F3F09F090E0D4
:10334000292F06E0811709F443C0209721F07F3F21
:1033500021F030E003C031E001C0322F90E030FDB9
:1033600034C0089FF001099FF00D1124DF01A5571B
:10337000BE4F11963C911197371327C03C913613DD
:1033800024C012963C91129731111FC013964D9193
:103390005C9114974C1B5D0B483C5105B0F4809137
:1033A000C0018F7080618093C001E057FE4F808123
:1033B0008F70806180838BEB91E00E94D318DF9146
:1033C000CF911F910F910C94521901968770BACF2B
:1033D000DF91CF911F910F9108959F92AF92BF926D
:1033E000CF92DF92EF92FF920F931F93CF93DF93D1
:1033F000CDB7DEB761970FB6F894DEBF0FBECDBF75
:103400008C0185E0F801DE011D9601900D928A95F0
:10341000E1F7F80140815181E2809091BB01609118
:10342000BC012091BE013091BF012115310531F061
:103430006F3F31F481E09F3F19F403C081E001C088
:1034400080E0F82FF1709F2E80FD46C1F801A38027
:10345000B4808BEBC82E81E0D82EF090BD01F50131
:10346000E21BF30BFF2009F4DFC08091C001E83CB0
:10347000F10508F09BC0282F207F09F052C0561399
:1034800013C0491311C0FE2CE1100EC08F70806173
:103490008093C0010E947319C6010E94D3188091C5
:1034A000C001F801858358C1AB2831F05F3F31F48A
:1034B00081E04F3F19F403C081E001C080E080FD4E
:1034C00003C081E08E2502C080E090E0F82FF1700B
:1034D000FF2E80FF1CC08091890120918A0136E077
:1034E000821709F417C190E0389FF001399FF00D61
:1034F0001124E557FE4F6181561306C060814613C3
:1035000003C06281E61203C001968770E9CFFE2CEA
:10351000EE2009F421C18091C00181608093C00137
:103520005AC0561306C0491304C0E11002C0F80186
:103530009FC04D875E878D859E850E942E198823AA
:1035400079F1EE2069F12091C001822F82958F7070
:1035500090E0029774F08091BB019091BC01988734
:103560008F831986BB86AA862C87CE0107960E9478
:10357000D31886E0F801ABEBB1E001900D928A958B
:10358000E1F70E9481190E9473190DC0561729F1A5
:103590004D875E878D859E850E942E1981112CC0D6
:1035A000C8010E94D318FF24F394D6C0282F207F8F
:1035B00069F77A2DB98AA88A6E2D89890E943319F4
:1035C0008BEB91E00E94D31886E0F60111928A9568
:1035D000E9F70E947319F12CBFC04913D9CFE1104C
:1035E000D7CFF8018583C8010E94D31886E0F60181
:1035F00011928A95E9F7B0C0EE2091F22091C001B6
:10360000822F82958F7090E002970CF4B2CF809158
:10361000BB019091BC019A8389831B82BD82AC82DD
:103620002E83CE010196A3CFE83CF10508F047C0F8
:10363000FE2CEE2009F4B4CF561330C049132EC02F
:103640002091C00120FD21C0822F82958F70482FCC
:1036500050E041155105C9F0F80125834F3051055F
:1036600041F08F5F982F9295907F822F8F70892BDA
:103670008583C8010E94D31886E0F801ABEBB1E066
:1036800001900D928A95E1F742C086E0F801ABEB1C
:10369000B1E001900D928A95E1F75EC04D875E879B
:1036A0008D859E850E942E19811163CF8091C00166
:1036B00081608093C001C8010E94D3184DC07A2D4B
:1036C000B98AA88A6E2D89890E94331986E0F6018D
:1036D00011928A95E9F71BC0EE2009F461CF4D875E
:1036E0005E878D859E850E942E19F82E882309F409
:1036F00057CF86E0F801ABEBB1E001900D928A95CF
:10370000E1F78BEB91E00E9442160E9481190E9422
:10371000731922C04D875E878D859E850E94931EFA
:10372000292F22952F70223028F49F7039F08111B3
:1037300005C00BC0243028F49F7049F4805E8830A7
:1037400020F0C8010E94D3189F2CF92C05C0F80165
:103750009581907F99F7F9CF8F2D61960FB6F894E8
:10376000DEBF0FBECDBFDF91CF911F910F91FF90B4
:10377000EF90DF90CF90BF90AF909F9008951F93F0
:10378000CF93DF93CDB7DEB72C970FB6F894DEBF9B
:103790000FBECDBF4F83588769877A878B879C87F9
:1037A000CE0107960E94ED198823D1F09F8188856C
:1037B0002A853B85232B31F08F3F31F481E09F3FF9
:1037C00019F403C081E001C080E080FD47C04F8153
:1037D000588569857A858B859C850E9442193EC0F3
:1037E00086E0FE013796DE01119601900D928A95D2
:1037F000E1F7FF81E8856A857B856115710531F008
:10380000EF3F31F481E0FF3F19F403C081E001C0D4
:1038100080E080FD23C020918A0130E0C90101963B
:10382000877099274091890150E084179507F1F13D
:10383000F983EA837D836C8396E0929FD001939F06
:10384000B00D1124A557BE4FFE01319601900D9287
:103850009A95E1F780938A010E94521916E08091AF
:10386000890190918A01891771F1189FC001112473
:1038700085579E4F0E94ED19882329F1E091890117
:103880001E9FF0011124E557FE4F40815181628156
:103890007381848195810E9442198091890190E011
:1038A00001968770992780938901D9CF0E940619C4
:1038B00010928A0110928901EBEBF1E086E0DF01C2
:1038C0001D928A95E9F72C960FB6F894DEBF0FBECD
:1038D000CDBFDF91CF911F910895EF92FF920F938B
:1038E0001F93CF93DF938C01892B09F46CC0F12CCB
:1038F000EE24E394E8012196F8018491843740F4A2
:10390000843008F051C0813081F0823019F15BC001
:10391000853709F444C0A8F19CE7980F903708F068
:1039200052C08F770E947B1641C00E5F1F4FFE0171
:10393000849190E2980F983050F48770FE2D01C06A
:10394000FF0F8A95EAF78F2F0E94F51E14C00E9480
:1039500048162DC00E5F1F4FFE01849190E2980F14
:10396000983060F48770FE2D01C0FF0F8A95EAF74A
:103970008F2F0E94FB1E0E94201F19C00E947B16E1
:1039800016C00E5F1F4FFE01C491CC2381F08FE95A
:103990009FE00197F1F700C00000C150F6CF0E5F25
:1039A0001F4FFE01F49003C00E9448168E018F2D18
:1039B000882309F49FCFEFE9FFE03197F1F700C0CA
:1039C00000008150F5CFDF91CF911F910F91FF90B3
:1039D000EF900895089508950C94EB1C0C94EC1C42
:1039E0000E94EE1C6093FC017093FD018093FE0128
:1039F0009093FF010C94F8180C94F01C0F931F93F4
:103A00000091FC011091FD012091FE013091FF0118
:103A1000602B712B822B932B1F910F910C94F01C18
:103A20000F931F930091FC011091FD012091FE0165
:103A30003091FF0160237123822393231F910F9103
:103A40000C94F01C0F931F930091FC011091FD0149
:103A50002091FE013091FF01602771278227932773
:103A60001F910F910C94F01C0C94EB1C0E94341DC0
:103A70006093F8017093F9018093FA019093FB0130
:103A80000C94F81860E070E0CB010C94361D0F9395
:103A90001F9341E050E060E070E08A019B0104C0A8
:103AA000000F111F221F331F8A95D2F7C901B801D9
:103AB0001F910F910C94361D0F931F9341E050E01E
:103AC00060E070E004C0440F551F661F771F8A95A1
:103AD000D2F78091F8019091F901A091FA01B0918B
:103AE000FB018A019B01082B192B2A2B3B2BC901B7
:103AF000B8011F910F910C94361D0F931F9341E055
:103B000050E060E070E004C0440F551F661F771F4F
:103B10008A95D2F740955095609570958091F801FF
:103B20009091F901A091FA01B091FB018A019B01EA
:103B3000082319232A233B23C901B8011F910F91A0
:103B40000C94361D0F931F9341E050E060E070E04D
:103B500004C0440F551F661F771F8A95D2F78091C6
:103B6000F8019091F901A091FA01B091FB018A014D
:103B70009B01082719272A273B27C901B8011F9154
:103B80000F910C94361D0F931F930091F801109123
:103B9000F9012091FA013091FB01602B712B822BEE
:103BA000932B1F910F910C94361D0F931F9300912F
:103BB000F8011091F9012091FA013091FB01602385
:103BC0007123822393231F910F910C94361D0F9321
:103BD0001F930091F8011091F9012091FA013091A1
:103BE000FB0160277127822793271F910F910C9467
:103BF000361D089521E1929F800D1124E82FE6954E
:103C0000E695E695877051E001C0550F8A95EAF771
:103C100085E0E89FF0011124EF53FE4F20E030E0F3
:103C200070E04081CB01022E02C0969587950A94E0
:103C3000E2F78170819584278523842781932F5F04
:103C40003F4F2530310569F7089521E1929F800D9E
:103C50001124682F669566956695982F977085E074
:103C6000689FB001112440E050E080E0FB01E40FC8
:103C7000F51FEF53FE4F208130E0092E02C036952C
:103C800027950A94E2F721703327042E01C0220FF2
:103C90000A94EAF7822B4F5F5F4F4530510531F7A9
:103CA0000895BF92CF92DF92EF92FF920F931F93EE
:103CB000CF93DF938C01C090F801D090F901E09090
:103CC000FA01F090FB018091FC019091FD01A0911F
:103CD000FE01B091FF01C82AD92AEA2AFB2ACFE1C6
:103CE000D0E0D701C6010C2E04C0B695A7959795D4
:103CF00087950A94D2F780FD04C0219790F7B12CE4
:103D000007C0BC2EB8018C2F0E9465050197A9F34E
:103D10008B2DDF91CF911F910F91FF90EF90DF904E
:103D2000CF90BF900895CF93DF93EC010E94511E76
:103D3000BE010E946505DF91CF9108951F93CF9337
:103D4000DF93EB0190918801992321F0CB010E9430
:103D5000931E13C0882349F0CB010E94511E182FD7
:103D6000682FCE010E94FA1D04C0CB010E94251EBF
:103D7000182FBE01812F0E946505DF91CF911F9101
:103D80000895809100028595859585950895809187
:103D900000028770089590910002977081E009F405
:103DA00080E0089580910C02089590910C02892B77
:103DB00080930C020895809590910C028923809342
:103DC0000C02089510920C02089590910B02892B19
:103DD00080930B020895809590910B028923809324
:103DE0000B02089510920B02089590910A02892BFC
:103DF00080930A020895809590910A028923809306
:103E00000A02089510920A0208958091010208950D
:103E100008950C94081F0C94091F909101029817A3
:103E200021F0809301020C940B1F089580910102F0
:103E3000882329F01092010280E00C940B1F089552
:103E4000E0911201F091130180910C028083E091C6
:103E50001201F0911301908180910B02892B8083D4
:103E6000E0911201F0911301908180910A02892B57
:103E7000808380910102882381F0E0911201F0910A
:103E800013019081892B80838091120190911301FD
:103E90000E94302081110E94161F80911201909182
:103EA00013010C94DC140C94081F98E0899F900176
:103EB0001124262B209300020E945C1D8091000299
:103EC0008595859585950C94531F1092000280E08E
:103ED0000C94531F2091000280958223809300024E
:103EE000982F977079F430E0482F082E000C550B6E
:103EF0002417350739F08595859585950E947D1D98
:103F00000C94651F08956FEF7FEF80E090E00C94B4
:103F10005A2980E090E00E94362921E08C3E9E4F95
:103F200009F020E0822F089582E090E00C94282987
:103F300083E090E00C942829CF9384E090E00E94E5
:103F40002829C82F81E290E00E9428292C2F30E0F8
:103F5000A901582BCA01CF910895CF93C92F682F7B
:103F600084E090E00E943C296C2F81E290E0CF91A8
:103F70000C943C29AB01BC018FE090E00C944E29DD
:103F8000AB01BC0183E190E00C944E2960E070E04D
:103F9000CB010C94C01F60E070E0CB010E94BA1FFF
:103FA0000C94C61F6CEE7EEF80E090E00E945A29D0
:103FB00060E082E090E00E943C2960E083E090E0D5
:103FC0000E943C291092FC011092FD011092FE010A
:103FD0001092FF0160E084E090E00E943C2960E0E4
:103FE00081E290E00E943C2960E085E090E00E9440
:103FF0003C2960E086E090E00E943C296FEF87E07A
:1040000090E00E943C2940E050E0BA0188E090E056
:104010000E944E2960E08DE090E00E943C2940E043
:1040200050E0BA0188E190E00E944E2960E087E10B
:1040300090E00E943C2940E050E0BA018CE190E021
:104040000E944E2960E080E290E00E943C290C949E
:10405000CB1F0C94D21F682F8EE090E00C943C296B
:10406000FC01329697E080E0915029F021912223C3
:10407000D9F38F5FF9CF0895662349F0FC0132969A
:1040800008962191621729F0E817F907D1F780E027
:10409000089581E008959C01FC0132969FEF80E035
:1040A0004191461789F09F3F19F4411101C0982FA3
:1040B0008F5F8630A9F79F3F39F0F901E90FF11DB5
:1040C00097FDFA956283089508959C012A5F3F4FFA
:1040D000FC014281461301C01282019682179307A8
:1040E000B9F708950C944B200C946520029626E0B5
:1040F000FC0111922A95E9F7089508950C947D200A
:104100000C947D20CF930E9480200E94A4070E94DF
:104110007E20C0E08C2F0E943807672B682B692B0C
:1041200029F4CF5FC530B1F780E001C081E0CF91C5
:1041300008950C947D200C9499200E949B208091DE
:104140006B02843009F439C010920E0220E488E139
:1041500090E00FB6F894A895809360000FBE20936E
:10416000600080E00E94F7040E94100E80910F0210
:1041700081110AC081E080930F0280914402817016
:10418000809310020E94430D0E949B2083B7817F81
:10419000846083BF83B7816083BF7894889583B739
:1041A0008E7F83BF0FB6F894A895809160008861D8
:1041B00080936000109260000FBE08950C947D20E3
:1041C0000E9406190E94D0140E94F70410920F0258
:1041D0008091100281110E94080E0E94550D0C94CE
:1041E000DE201F920F920FB60F9211248F939F9390
:1041F000AF93BF9380910E02811113C08091610231
:1042000090916202A0916302B09164024196A11D57
:10421000B11D8093610290936202A0936302B093F8
:104220006402BF91AF919F918F910F900FBE0F903D
:104230001F90189582E084BD93E095BD9AEF97BDDD
:1042400080936E0008952FB7F89480916102909149
:104250006202A0916302B09164022FBF08952FB74C
:10426000F894609161027091620280916302909172
:1042700064022FBF08959C014FB7F89480916102AA
:1042800090916202A0916302B09164024FBF821BC1
:10429000930B089578941F920F920FB60F921124EA
:1042A0008F939F93AF93BF9380916102909162022D
:1042B000A0916302B09164020196A11DB11D80938B
:1042C000610290936202A0936302B0936402BF9173
:1042D000AF919F918F910F900FBE0F901F901895E7
:1042E00081E08093E00080E28093D8001092C900C2
:1042F0008FE19EE40197F1F700C0000087E090EBAA
:10430000DC018093740290937502A0937602B093BF
:1043100077029CE088E10FB6F894A895809360003E
:104320000FBE90936000FFCF0C94AF0F0E94A407C4
:104330002FEF86E791E0215080409040E1F700C0E8
:1043400000000E94A40780E00E94380760FF04C0BC
:104350000E9494210C94702108950E94891F81115C
:1043600002C00E9429200E94941F80930D020E9487
:104370009C1F90936602809365020E94981F682F8D
:1043800070E080E090E00C94FC1C8091190208958C
:1043900008950895CF93DF93EC010E94E0238230CB
:1043A00011F0843039F581E08093E9008FEF90912E
:1043B000E800815095FD06C095ED9A95F1F7000053
:1043C0008111F5CF8091E80085FF14C040E050E0F6
:1043D00068E070E0CE010E94FD238091E8008E77B6
:1043E0008093E80088E0FE01A1E1B2E001900D9227
:1043F0008A95E1F7DF91CF9108950895CF936032C8
:1044000019F520916B022430F9F4C091E900CF70C6
:104410003091EC00232F217030FD20E8C22B22E0E8
:104420002093E9002091E80020FF0BC040E050E01D
:1044300060E270E00E94FD238091E8008E77809317
:10444000E800CF70C093E900CF91089580916A028F
:10445000811109C00E94D9250E9436268091E20070
:1044600084608093E200089510926A02089508958E
:1044700008950C94E02042E061EC81E00E94522516
:1044800042E261EC82E00E94522542E260EC83E06D
:104490000C94522580916D02833009F460C030F491
:1044A000813071F0823009F499C008958A3009F49E
:1044B00085C08B3009F46BC0893009F0A7C020C0DB
:1044C00080916C02813A09F0A1C08091E800877F59
:1044D0008093E8008091700290917102892B21F401
:1044E00068E081E192E003C060E080E090E070E08D
:1044F0000E9493248091E8008B778093E8000895D0
:1045000080916C02813209F081C08091700290919B
:104510007102892B09F07AC08091E800877F80932F
:10452000E8008091E80082FD05C080916B02811156
:10453000F8CF6CC02091F3008091F20090E0922BB4
:10454000029729F48091F1008B7F813021F48091D2
:10455000F100809319028091E8008B7753C080911D
:104560006C02813A09F052C0809170029091710200
:10457000892B09F04BC08091E800877F8093E80089
:104580008091E80080FFFCCF80911E0136C08091B1
:104590006C028132D9F58091700290917102892B61
:1045A000A9F58091E800877F8093E8000E94872525
:1045B00080916E0280931E010C94061980916C020A
:1045C000813221F58091E800877F8093E8000E9486
:1045D000872580916F0280931A02089580916C0262
:1045E000813AA1F48091E800877F8093E800809170
:1045F000E80080FFFCCF80911A028093F100809147
:10460000E8008E778093E8000C94872508951F9327
:10461000CF93DF93CDB7DEB7A0970FB6F894DEBF88
:104620000FBECDBF84B7877F84BF0FB6F894A8951F
:1046300080916000886180936000109260000FBEDE
:1046400090E080E80FB6F894809361009093610049
:104650000FBE0E9423150E94D9250E943626809104
:10466000E20084608093E20078940E94CB280E944C
:104670002D1584E191E00E94CB1413E080916B0230
:10468000853069F40E949D20809169028823B1F3EE
:104690000E948220882391F30E94E723EFCF0E949B
:1046A000391580916B02843049F71093E9008091AD
:1046B000E80082FFE3CF8091E80085FF0AC040E078
:1046C00050E060E270E0CE0101960E94482491E043
:1046D00001C090E08091E8008B778093E8009923F7
:1046E00069F260E2CE0101960E946710C7CF0C9478
:1046F0007923292F332723303105C9F060F4213085
:10470000310581F02230310509F04AC082E490E0A1
:104710002BE835E049C02132310511F12232310553
:1047200079F13EC082E190E02DEC35E03DC0992763
:104730008130910561F040F08230910559F0039786
:1047400079F5E5E5F5E008C0E7E8F5E005C0EBE65A
:10475000F5E002C0EBE5F5E0849190E09F0124C014
:104760006115710541F061307105D1F489E090E087
:1047700026EB35E019C089E090E02DE935E014C062
:104780006115710541F06130710551F482E290E0EC
:104790002FED35E009C080E490E021E036E004C070
:1047A00080E090E020E030E0FA013183208308953A
:1047B00080916B02843011F081E0089582E00895C9
:1047C00080911B02811102C00C94D823089580E1CE
:1047D00089BD82E189BD09B400FEFDCF8091D8007A
:1047E0008F7D8093D8008091E00082608093E0000C
:1047F0008091E00081FDFCCF0895CF92DF92EF928F
:10480000FF920F931F93CF93DF93EC018B017A01FB
:104810000E94A625811133C0E114F10439F0F7019B
:1048200080819181081B190BC80FD91FC12CD12C75
:104830000115110519F18091E80085FD16C08091E0
:10484000E8008E778093E800E114F10449F0F70165
:1048500080819181C80ED91ED182C08285E00FC0AF
:104860000E94A625882321F30AC089918093F10034
:1048700001501109FFEFCF1ADF0ADACF80E0DF9194
:10488000CF911F910F91FF90EF90DF90CF900895FF
:10489000CF92DF92EF92FF920F931F93CF93DF930C
:1048A000EC018B017A010E94A625811133C0E1142D
:1048B000F10439F0F70180819181081B190BC80FB1
:1048C000D91FC12CD12C0115110519F18091E800D7
:1048D00085FD16C08091E8008B778093E800E11495
:1048E000F10449F0F70180819181C80ED91ED1826F
:1048F000C08285E00FC00E94A625882321F30AC04C
:104900008091F100899301501109FFEFCF1ADF0A5E
:10491000DACF80E0DF91CF911F910F91FF90EF9060
:10492000DF90CF9008952091720230917302261784
:10493000370748F06115710539F42091E8002E77AA
:104940002093E80001C0B901FC0120E06115710568
:1049500079F180916B028823F1F18530F1F180913A
:10496000E80083FD3CC08091E80082FD2EC080916C
:10497000E80080FFEBCF2091F3008091F20090E0FF
:10498000922B6115710551F08830910538F4219111
:104990002093F100615071090196F3CF21E008974F
:1049A00009F020E08091E8008E778093E800CECF78
:1049B0002111CFCF0AC080916B02882361F085302E
:1049C00061F08091E80083FD0AC08091E80082FFD9
:1049D000F2CF80E0089582E0089583E0089581E0B9
:1049E000089520917202309173022617370748F01C
:1049F0006115710539F42091E8002E772093E800C5
:104A000001C0B901FC0120E06115710591F18091AF
:104A10006B02882309F440C0853009F43FC08091BF
:104A2000E80083FD3DC08091E80082FD2FC08091A9
:104A3000E80080FFE9CF2091F3008091F20090E040
:104A4000922B6115710559F08830910540F424913D
:104A50002093F1003196615071090196F2CF21E067
:104A6000089709F020E08091E8008E778093E800B5
:104A7000CBCF2111CCCF0AC080916B02882361F08B
:104A8000853061F08091E80083FD0AC08091E800E4
:104A900082FFF2CF80E0089582E0089583E00895D8
:104AA00081E00895982F973068F59093E900981762
:104AB00039F07091EC002091ED005091F00003C0AE
:104AC000242F762F50E021FD02C09F5FECCF309164
:104AD000EB003E7F3093EB003091ED003D7F309353
:104AE000ED003091EB0031603093EB007093EC00FF
:104AF0002093ED005093F0002091EE0027FDE5CFCC
:104B000080E008958F708093E90081E0089580919E
:104B10006C0287FF11C08091E80082FD05C0809182
:104B20006B028111F8CF11C08091E8008B770BC028
:104B300080916B02882349F08091E80080FFF8CFD4
:104B40008091E8008E778093E80008952091E4003A
:104B50003091E50095E64091EC00842F817040FF94
:104B600023C08091E80080FD1DC080916B028823E6
:104B700099F0853099F08091EB0085FD11C040914E
:104B8000E4005091E5002417350729F3915011F006
:104B90009A01E1CF84E0089582E0089583E00895CA
:104BA00081E0089580E008954091E80042FFDDCF64
:104BB00008950E9447260E944F26E0EEF0E0808193
:104BC00081608083E8EDF0E080818F77808319BC7D
:104BD000A7EDB0E08C918E7F8C9380818F7E808357
:104BE00010926A0208950F931F93CF93DF930E9450
:104BF00047260E944F26C8EDD0E088818F778883B2
:104C000088818068888388818F7D888319BC109211
:104C10006B0210926702109269021092680200EE15
:104C200010E0F80180818B7F808388818160888398
:104C300042E060E080E00E945225E1EEF0E08081F9
:104C40008E7F8083E2EEF0E08081816080838081CE
:104C500088608083F80180818E7F80838881806175
:104C60008883DF91CF911F910F910895E8EDF0E0D7
:104C700080818F7E8083E7EDF0E08081816080839A
:104C800084E082BF81E080936A020C94F325E8ED12
:104C9000F0E080818E7F80831092E2000895109270
:104CA000DA001092E10008951F920F920FB60F9252
:104CB00011242F933F934F935F936F937F938F9321
:104CC0009F93AF93BF93EF93FF938091E10082FF97
:104CD0000BC08091E20082FF07C08091E1008B7FD2
:104CE0008093E1000E94CA288091DA0080FF1FC0F3
:104CF0008091D80080FF1BC08091DA008E7F809366
:104D0000DA008091D90080FF0DC080E189BD82E189
:104D100089BD09B400FEFDCF81E080936B020E9443
:104D2000262205C019BC10926B020E943422809189
:104D3000E10080FF19C08091E20080FF15C08091E2
:104D4000E2008E7F8093E2008091E2008061809398
:104D5000E2008091D80080628093D80019BC85E081
:104D600080936B020E9438228091E10084FF30C062
:104D70008091E20084FF2CC080E189BD82E189BD81
:104D800009B400FEFDCF8091D8008F7D8093D800BC
:104D90008091E1008F7E8093E1008091E2008F7E20
:104DA0008093E2008091E20081608093E200809134
:104DB0006702882311F084E007C08091E30087FD3B
:104DC00002C081E001C083E080936B020E9439221F
:104DD0008091E10083FF29C08091E20083FF25C01C
:104DE0008091E100877F8093E10082E080936B02F5
:104DF000109267028091E1008E7F8093E1008091A4
:104E0000E2008E7F8093E2008091E20080618093D7
:104E1000E20042E060E080E00E9452258091F000D4
:104E200088608093F0000E943722FF91EF91BF913C
:104E3000AF919F918F917F916F915F914F913F9132
:104E40002F910F900FBE0F901F9018951F920F92E9
:104E50000FB60F9211242F933F934F935F936F934D
:104E60007F938F939F93AF93BF93CF93DF93EF93F2
:104E7000FF93C091E900CF708091EC00D82FD170E2
:104E800080FDD0E81092E9008091F000877F809348
:104E9000F00078940E946A271092E9008091F00057
:104EA00088608093F000CD2BCF70C093E900FF9114
:104EB000EF91DF91CF91BF91AF919F918F917F91B2
:104EC0006F915F914F913F912F910F900FBE0F9077
:104ED0001F9018951F93CF93DF93CDB7DEB7AA9796
:104EE0000FB6F894DEBF0FBECDBFECE6F2E08091C6
:104EF000F100819322E0E437F207C9F70E944A22C9
:104F00008091E80083FF2EC180916C0290916D0228
:104F1000492F50E04A30510508F024C1FA01E55606
:104F2000FF4F0C940E29803821F0823809F01AC105
:104F300008C08091680290916902992389F082608B
:104F40000FC0809170028F70873008F00BC1809382
:104F5000E9008091EB0085FB882780F91092E90039
:104F60009091E800977F9093E8008093F100109271
:104F7000F100D1C0282F2D7F09F0F4C0882319F04B
:104F8000823061F0EFC080916E02813009F0EAC09A
:104F9000933009F080E0809369022EC080916E0208
:104FA00081112AC0809170028F702FEF280F263058
:104FB00008F0D8C08093E9002091EB0020FF1CC0CE
:104FC000933021F48091EB00806214C09091EB004B
:104FD00090619093EB0021E030E0A90102C0440F02
:104FE000551F8A95E2F74093EA001092EA008091FB
:104FF000EB0088608093EB001092E9008091E8005C
:10500000877F8093E8000E948725ACC08111AAC0E9
:1050100010916E021F778091E3008078812B80933E
:10502000E3008091E800877F8093E8000E94872555
:105030008091E80080FFFCCF8091E300806880933E
:10504000E300111102C082E001C083E080936B0293
:1050500089C08058823008F085C080916E0290919E
:105060006F028C3D53E0950779F583E08A838AE2ED
:1050700089834FB7F894DE01139620E03EE051E2B9
:10508000E32FF0E050935700E49120FF03C0E29536
:10509000EF703F5FEF708E2F90E0EA3010F0C79610
:1050A00001C0C0968D939D932F5F243149F74FBF68
:1050B0008091E800877F8093E8006AE270E0CE018B
:1050C00001960E94932416C0609170027091710243
:1050D000AE014F5F5F4F0E947723BC01892B09F41B
:1050E00041C09091E800977F9093E80089819A8170
:1050F0000E94F1248091E8008B778093E80032C011
:10510000803881F58091E800877F8093E800809166
:1051100067028093F1008091E8008E7772CF811151
:1051200021C080916E0290916F0299270297D4F46A
:105130008091E800877F8093E80080916E028093E1
:1051400067020E94872580916702811106C08091C5
:10515000E30087FD02C081E001C084E080936B0220
:105160000E943B228091E80083FF0AC08091E80002
:10517000877F8093E8008091EB0080628093EB0052
:10518000AA960FB6F894DEBF0FBECDBFDF91CF91C8
:105190001F9108950895CF9380916B028823A1F009
:1051A000C091E900CF709091EC00892F817090FD43
:1051B00080E8C82B1092E9008091E80083FD0E94EE
:1051C0006A27CF70C093E900CF910895AA1BBB1B3B
:1051D00051E107C0AA1FBB1FA617B70710F0A61BF7
:1051E000B70B881F991F5A95A9F780959095BC0118
:1051F000CD01089597FB072E16F4009407D077FD94
:1052000009D00E94E62807FC05D03EF490958195D0
:105210009F4F0895709561957F4F0895EE0FFF1F82
:105220000590F491E02D099469279627692778273E
:10523000872778270895FC014150504030F00190B5
:105240000616D1F73197CF01089588279927089539
:10525000F999FECF92BD81BDF89A992780B508953E
:10526000A6E1B0E044E050E00C946229A8E1B0E08F
:1052700042E050E00C946229262FF999FECF92BDAE
:1052800081BDF89A019700B4021639F01FBA20BD0B
:105290000FB6F894FA9AF99A0FBE08950396272F3D
:1052A0000E943D290E943C29252F0E943D29242F40
:1052B0000C943D290196272F0E943D290C943C29EE
:1052C000DC01CB01FC01F999FECF06C0F2BDE1BDC6
:1052D000F89A319600B40D9241505040B8F70895B5
:0452E000F894FFCF70
:1052E4000102000800080801191A1B1C1D1E1F20BA
:1052F40021220202C521CA21C821FD21C92101910F
:10530400909293959496973435F0F136F4F5F6F738
:1053140030313233C60001020202020606060909D0
:10532400090909090F0F0F0F0F0F15151518191972
:0A5334001919191919191919232460
:00000001FF
